:020000040800F2
:100000000000022099130008BD120008C312000866
:10001000C9120008CF120008D51200080000000025
:10002000000000000000000000000000DB120008DB
:10003000E912000800000000F7120008051300088C
:10004000E9130008E9130008E9130008E9130008A0
:10005000E9130008E9130008E9130008E913000890
:10006000E9130008E9130008E9130008E913000880
:10007000E9130008E9130008E9130008E913000870
:1000800011130008E9130008E9130008000000003C
:10009000000000000000000000000000E91300085C
:1000A000E9130008E9130008E9130008E913000840
:1000B000E913000825130008E9130008E9130008F4
:1000C000E9130008E9130008E9130008E913000820
:1000D000E9130008E91300083913000800000000C4
:1000E000E9130008E9130008E91300080000000004
:1000F000000000000000000000000000E9130008FC
:1001000000000000E9130008E9130008E9130008E3
:1001100000000000000000000000000000000000DF
:10012000E91300084D130008E9130008E91300085B
:10013000E9130008000000000000000000000000BB
:10014000000000000000000000000000E9130008AB
:10015000E9130008E9130008E91300086113000817
:10016000E9130008E9130008000000000000000087
:10017000000000000000000000000000000000007F
:1001800000000000E913000800000000000000006B
:08019000E9130008E91300085F
:1001980010B5054C237833B9044B13B10448AFF3B9
:1001A80000800123237010BD14000020000000000F
:1001B800384A000808B5034B1BB103490348AFF39D
:1001C800008008BD0000000018000020384A000820
:1001D80053B94AB9002908BF00281CBF4FF0FF31A6
:1001E8004FF0FF3000F074B9ADF1080C6DE904CEA2
:1001F80000F006F8DDF804E0DDE9022304B07047FA
:100208002DE9F047089D04468E46002B4DD18A42C1
:10021800944669D9B2FA82F252B101FA02F3C2F1F4
:10022800200120FA01F10CFA02FC41EA030E944085
:100238004FEA1C48210CBEFBF8F61FFA8CF708FBA6
:1002480016E341EA034306FB07F199420AD91CEB7E
:10025800030306F1FF3080F01F81994240F21C81B0
:10026800023E63445B1AA4B2B3FBF8F008FB1033F8
:1002780044EA034400FB07F7A7420AD91CEB04042D
:1002880000F1FF3380F00A81A74240F207816444FD
:10029800023840EA0640E41B00261DB1D440002382
:1002A800C5E900433146BDE8F0878B4209D9002DE6
:1002B80000F0EF800026C5E9000130463146BDE870
:1002C800F087B3FA83F6002E4AD18B4202D38242DA
:1002D80000F2F980841A61EB030301209E46002D89
:1002E800E0D0C5E9004EDDE702B9FFDEB2FA82F2DE
:1002F800002A40F09280A1EB0C014FEA1C471FFA3C
:100308008CFE0126200CB1FBF7F307FB131140EA22
:1003180001410EFB03F0884208D91CEB010103F1EF
:10032800FF3802D2884200F2CB804346091AA4B2B1
:10033800B1FBF7F007FB101144EA01440EFB00FE85
:10034800A64508D91CEB040400F1FF3102D2A645EA
:1003580000F2BB800846A4EB0E0440EA03409CE789
:10036800C6F12007B34022FA07FC4CEA030C20FA36
:1003780007F401FA06F31C43F9404FEA1C4900FA56
:1003880006F3B1FBF9F8200C1FFA8CFE09FB1811D3
:1003980040EA014108FB0EF0884202FA06F20BD946
:1003A8001CEB010108F1FF3A80F08880884240F296
:1003B8008580A8F102086144091AA4B2B1FBF9F0DA
:1003C80009FB101144EA014100FB0EFE8E4508D9D5
:1003D8001CEB010100F1FF346CD28E456AD902385A
:1003E800614440EA0840A0FB0294A1EB0E01A1423F
:1003F800C846A64656D353D05DB1B3EB080261EBAD
:100408000E0101FA07F722FA06F3F1401F43C5E986
:10041800007100263146BDE8F087C2F12003D840BC
:100428000CFA02FC21FA03F3914001434FEA1C47FE
:100438001FFA8CFEB3FBF7F007FB10360B0C43EAF0
:10044800064300FB0EF69E4204FA02F408D91CEBA0
:10045800030300F1FF382FD29E422DD9023863449E
:100468009B1B89B2B3FBF7F607FB163341EA03413E
:1004780006FB0EF38B4208D91CEB010106F1FF388D
:1004880016D28B4214D9023E6144C91A46EA004684
:1004980038E72E46284605E70646E3E61846F8E616
:1004A8004B45A9D2B9EB020864EB0C0E0138A3E75F
:1004B8004646EAE7204694E74046D1E7D0467BE740
:1004C800023B614432E7304609E76444023842E7B8
:1004D800704700BF80B487B000AF78603960FF23F1
:1004E800FB75FF23BB7500233B6113E07A683B690A
:1004F80013441A78BB7D5340FB73FB7B0E4AD25CD6
:10050800FB7D5340BB75FB7B0C4AD35CFB753B6999
:1005180001333B613A693B689A42E7D3FB7D1B0292
:100528001AB2BB7D1BB213431BB29BB218461C37D1
:10053800BD465DF8047B7047504A0008504B0008E0
:1005480080B483B000AF78607B681A68094B1B6879
:100558009A4208D1084B01221A70084B1B880133B4
:100568009AB2064B1A8000BF0C37BD465DF8047B73
:10057800704700BF300000206A0200206C02002093
:1005880080B582B000AF78607B681A68574B1B68EB
:100598009A4240F0D781564B1B780F2B02D1554B0E
:1005A80001221A70544B1B68172B09DC514B1B781E
:1005B800002B05D0504B1B6801334F4A136013E2E0
:1005C8004E4B1B7883F00103DBB2002B0BD04B4B57
:1005D80001221A70454803F02CF81922484943486B
:1005E80002F0F7FF00E2464B1B780F2B40F08481A6
:1005F800434B5B781AB2424B9B781B021BB21343E6
:100608001BB29BB2C3F30A039AB23E4B1A803C4B0F
:100618009B78DB08DBB21AB2394BDB785B011BB283
:1006280013431BB29BB2C3F30A039AB2354B5A80E9
:10063800334BDB789B09DBB21AB2314B1B799B0039
:100648001BB213431AB22E4B5B799B021BB21343A6
:100658001BB29BB2C3F30A039AB22A4B9A80284B67
:100668005B795B08DBB21AB2254B9B79DB011BB2C5
:1006780013431BB29BB2C3F30A039AB2214BDA802D
:100688001F4B9B791B09DBB21AB21D4BDB791B018F
:100698001BB213431BB29BB2C3F30A039AB2194BA2
:1006A8001A81174BDB79DB09DBB21AB2144B1B7AC0
:1006B8005B001BB213431AB2114B5B7A5B021BB28D
:1006C80013431BB29BB2C3F30A039AB20D4B5A8170
:1006D8000C4B5B89002B19D00A4B5B89B3F5966FDD
:1006E80014D2094B01221A701DE000BF000100203E
:1006F80060020020680200206402002069020020D5
:10070800080200202402002089020020834B5B8914
:10071800B3F5966F07D9814B5B89B3F5FA6F02D2AF
:100728007F4B00221A707F4B5B7A9B08DBB21AB2B0
:100738007C4B9B7A9B011BB213431BB29BB2C3F346
:100748000A039AB2754B9A81764B9B7A5B09DBB2A6
:100758001AB2744BDB7ADB001BB213431BB29BB299
:10076800C3F30A039AB26D4BDA816E4B1B7B1AB244
:100778006C4B5B7B1B021BB213431BB29BB2C3F3D4
:100788000A039AB2654B1A82664B5B7BDB08DBB2C5
:100798001AB2644B9B7B5B011BB213431BB29BB227
:1007A800C3F30A039AB25D4B5A825E4B9B7B9B094B
:1007B800DBB21AB25B4BDB7B9B001BB213431AB252
:1007C800584B1B7C9B021BB213431BB29BB2C3F357
:1007D8000A039AB2514B9A82524B1B7C5B08DBB2DC
:1007E8001AB2504B5B7CDB011BB213431BB29BB2AA
:1007F800C3F30A039AB2494BDA824A4B5B7C1B0962
:10080800DBB21AB2474B9B7C1B011BB213431BB2D2
:100818009BB2C3F30A039AB2404B1A83414B9B7CA9
:10082800DB09DBB21AB23F4BDB7C5B001BB2134324
:100838001AB23C4B1B7D5B021BB213431BB29BB22B
:10084800C3F30A039AB2354B5A83364B1B7D9B0878
:10085800DBB21AB2334B5B7D9B011BB213431BB255
:100868009BB2C3F30A039AB22C4B9A832D4B5B7D40
:100878005B09DBB21AB22B4B9B7DDB001BB2134327
:100888001BB29BB2C3F30A039AB2244BDA83254BFB
:10089800DB7D03F00103002B03D0204B01221A84D7
:1008A80002E01E4B00221A841E4BDB7D03F002037C
:1008B800002B03D0194B01225A8402E0174B002267
:1008C8005A84194B00221A80164BDB7D03F004036F
:1008D800002B02D0144B01221A80124BDB7D03F04F
:1008E8000803002B02D0104B03221A800D4B1B7EED
:1008F8009AB20E4B1A8025E00D4B00221A700D4B50
:1009080000221A700C4B00221A600C4802F091FE6B
:1009180001220B49094802F05CFE65E02402002030
:10092800890200200802002004020020060200209C
:1009380069020020680200206402002000010020F3
:10094800600200207B681A68294B1B689A424BD1C9
:100958000A230A222749264802F079FD254B1B78ED
:10096800AA2B3CD1234B5B78552B38D10821214841
:10097800FFF7B0FD03461A461F4B1A801D4B1B7A22
:100988001AB21C4B5B7A1B021BB213431BB29AB2FE
:100998001A4B1A80184B1A88184B1B889A421BD17D
:1009A800144B9A78164B1A70124BDA78154B1A704A
:1009B800104B1A79144B1A700E4B5A79134B1A7044
:1009C8000C4B9A79124B1A700A4BDA79114B1A7040
:1009D800114B01221A7002E00F4B00221A700A22F2
:1009E8000449034802F0C5FD0837BD4680BD00BF75
:1009F800BC000020480200205802002056020020B7
:100A08005A0200205C0200205B0200205D020020E8
:100A18005E0200205F0200205202002080B485B0F0
:100A280000AF0346FB71FB794FF4B46202FB03F39A
:100A3800094A82FB03121A44D211DB17D31A03F5B1
:100A48008873FB60FB687B817B8918461437BD4639
:100A58005DF8047B704700BF81808080B0B500AF2F
:100A680000F0C0FC00F0E0F800F04CFA00F014FAD6
:100A780000F0BAF900F0E2F900F03EF900F08AF966
:100A88000A225649564802F074FD564802F09CF86E
:100A9800554B1B78002BFBD001225449544802F0D7
:100AA80098FD544A544B14461D460FCD0FC495E883
:100AB800070003C42270514B1B78002B79D0504B90
:100AC8001B78002B2CD04F4B1B781846FFF7A6FF3E
:100AD80003461A464C4B1A804C4B1B781846FFF7B6
:100AE8009DFF03461A46484B5A80494B1B781846C7
:100AF800FFF794FF03461A46434B9A80454B1B78F1
:100B08001846FFF78BFF03461A463F4BDA80424BE5
:100B18001B8801339AB2404B1A80394B00221A7055
:100B2800394B1B88DAB2334B5A70374B1B881B0A78
:100B38009BB25BB203F007035AB2334B5B88DB000E
:100B48005BB213435BB2DAB22A4B9A702E4B5B88C6
:100B58005B099BB2DBB203F03F03DAB2254BDA70D4
:100B6800294B9B889B089BB2DAB2224B1A71264B01
:100B78009B889B0A9BB25BB203F001035AB2224BDB
:100B8800DB885B005BB213435BB2DAB2194B5A7174
:100B98001D4BDB88DB099BB25BB203F00F035AB233
:100BA8001E4B1B891B015BB213435BB2DAB2114BBC
:100BB8009A714FF400411A4801F043FB0A231922A5
:100BC8000C490B4802F043FC164B1B8801339AB2C0
:100BD800144B1A80044B00221A7059E7480200206F
:100BE800BC000020300000206A02002060020020C3
:100BF8000001002070020020080200208902002065
:100C0800520200205A020020000000205C0200204E
:100C18005B0200205D020020540200202402002014
:100C2800000402406E02002080B594B000AF07F1C6
:100C3800200330220021184603F0F2FE07F10C03CE
:100C480000221A605A609A60DA601A610023BB6059
:100C5800274B1B6C264A43F080531364244B1B6CB0
:100C680003F08053BB60BB6800237B60214B1B688B
:100C7800204A43F4404313601E4B1B6803F440436F
:100C88007B607B6802233B620123FB6210233B638A
:100C98000223BB630023FB6308233B6464237B6458
:100CA8000223BB640423FB6407F12003184601F008
:100CB800E3FA0346002B01D000F07EF90F23FB6016
:100CC80002233B6100237B614FF48053BB61002307
:100CD800FB6107F10C030321184601F045FD0346AB
:100CE800002B01D000F068F900BF5037BD4680BD29
:100CF800003802400070004080B586B000AF07F1B0
:100D0800080300221A605A609A60DA603B460022A3
:100D18001A605A601D4B1E4A1A601C4B40F2E7329B
:100D28005A601A4B00229A60184B40F2E732DA6098
:100D3800164B00221A61154B00229A61134801F0E4
:100D4800F3FE0346002B01D000F036F94FF4805330
:100D5800BB6007F1080319460C4802F09FF80346E8
:100D6800002B01D000F028F900233B6000237B60B2
:100D78003B461946054802F09BFA0346002B01D072
:100D880000F01AF900BF1837BD4680BD30000020BA
:100D98000004004080B500AF114B124A1A60104B96
:100DA8004FF4E1325A600E4B00229A600C4B00223D
:100DB800DA600B4B00221A61094B0C225A61084B6E
:100DC80000229A61064B0022DA61054802F0F2FA25
:100DD8000346002B01D000F0EFF800BF80BD00BF34
:100DE800780000200010014080B500AF114B124A76
:100DF8001A60104B4FF4E1325A600E4B00229A6091
:100E08000C4B0022DA600B4B00221A61094B0C22B2
:100E18005A61084B00229A61064B0022DA610548A4
:100E280002F0C8FA0346002B01D000F0C5F800BF55
:100E380080BD00BFBC0000200044004080B500AF6A
:100E4800124B134A1A60114B124A5A600F4B4FF457
:100E580080529A600D4B4FF40052DA600B4B4FF4FE
:100E680080621A61094B0C225A61084B00229A6170
:100E7800064B0022DA61054802F09CFA0346002B73
:100E880001D000F099F800BF80BD00BF000100202C
:100E980000140140A086010080B582B000AF002395
:100EA8007B60174B1B6B164A43F480031363144B88
:100EB8001B6B03F480037B607B6800233B60104B53
:100EC8001B6B0F4A43F4001313630D4B1B6B03F4A6
:100ED80000133B603B6800220021102000F0CFFB8C
:100EE800102000F0E8FB00220021392000F0C7FBA9
:100EF800392000F0E0FB00BF0837BD4680BD00BFC9
:100F08000038024080B588B000AF07F10C0300221A
:100F18001A605A609A60DA601A610023BB60234B3A
:100F28001B6B224A43F001031363204B1B6B03F036
:100F38000103BB60BB6800237B601C4B1B6B1B4A17
:100F480043F002031363194B1B6B03F002037B602E
:100F58007B6800220221164801F05AF900224FF45A
:100F68000041144801F054F90223FB6001233B615E
:100F780000237B610023BB6107F10C0319460C4871
:100F880000F0C2FF4FF40043FB6001233B610023E4
:100F98007B610023BB6107F10C031946054800F08B
:100FA800B3FF00BF2037BD4680BD00BF00380240F8
:100FB800000002400004024080B400AF72B600BFD7
:100FC800FEE7000080B483B000AF00237B60104BC5
:100FD8005B6C0F4A43F4804353640D4B5B6C03F422
:100FE80080437B607B6800233B60094B1B6C084A8D
:100FF80043F080531364064B1B6C03F080533B6033
:101008003B6800BF0C37BD465DF8047B704700BFE6
:101018000038024080B584B000AF78607B681B68F8
:101028000E4A934215D10023FB600D4B1B6C0C4AF2
:1010380043F0020313640A4B1B6C03F00203FB60CA
:10104800FB68002200211D2000F019FB1D2000F084
:1010580032FB00BF1037BD4680BD00BF0004004012
:101068000038024080B58EB000AF786007F12403E5
:1010780000221A605A609A60DA601A617B681B68FD
:10108800824A93422CD100233B62814B5B6C804A9D
:1010980043F0100353647E4B5B6C03F010033B6218
:1010A8003B6A0023FB617A4B1B6B794A43F00203CE
:1010B8001363774B1B6B03F00203FB61FB69C023CF
:1010C8007B620223BB620023FB6203233B6307238B
:1010D8007B6307F1240319466E4800F015FFD1E041
:1010E8007B681B686C4A934263D10023BB61684BE1
:1010F8001B6C674A43F400331364654B1B6C03F4A1
:101108000033BB61BB6900237B61614B1B6B604A89
:1011180043F0010313635E4B1B6B03F001037B6118
:101128007B690C237B620223BB620023FB620323DF
:101138003B6307237B6307F124031946574800F0F4
:10114800E3FE574B574A1A60554B4FF000625A60FE
:10115800534B00229A60524B0022DA60504B4FF4F6
:1011680080621A614E4B00225A614D4B00229A61EF
:101178004B4B4FF48072DA61494B00221A62484B9C
:1011880000225A62464800F0B1FA0346002B01D00B
:10119800FFF712FF7B68424A9A63414A7B68936370
:1011A80000220021262000F06AFA262000F083FAA7
:1011B80068E07B681B683C4A934263D100233B612B
:1011C800334B5B6C324A43F020035364304B5B6C07
:1011D80003F020033B613B690023FB602C4B1B6B36
:1011E8002B4A43F001031363294B1B6B03F00103E4
:1011F800FB60FB684FF4C0537B620223BB62002391
:10120800FB6203233B6308237B6307F1240319462E
:10121800224800F079FE254B254A1A60234B4FF0EF
:1012280020625A60214B00229A60204B0022DA602B
:101238001E4B4FF480621A611C4B00225A611B4BF3
:1012480000229A61194B4FF48072DA61174B002221
:101258001A62164B00225A62144800F047FA0346F5
:10126800002B01D0FFF7A8FE7B68104A9A630F4A4B
:101278007B68936300220021472000F000FA472092
:1012880000F019FA00BF3837BD4680BD0010014094
:1012980000380240000402400044004000000240C0
:1012A800440100208860024000140140A40100208D
:1012B8002864024080B400AFFEE780B400AFFEE7C8
:1012C80080B400AFFEE780B400AFFEE780B400AFA3
:1012D800FEE780B400AF00BFBD465DF8047B7047F1
:1012E80080B400AF00BFBD465DF8047B704780B492
:1012F80000AF00BFBD465DF8047B704780B500AF06
:1013080000F0C2F800BF80BD80B500AF024800F011
:1013180085FB00BF80BD00BF4401002080B500AF41
:10132800024801F0B3FC00BF80BD00BF30000020C0
:1013380080B500AF024802F01FFA00BF80BD00BFB1
:10134800BC00002080B500AF024800F067FB00BF7A
:1013580080BD00BFA401002080B500AF024802F0A4
:101368000BFA00BF80BD00BF0001002080B400AFB1
:10137800064BD3F88830054A43F47003C2F8883026
:1013880000BFBD465DF8047B704700BF00ED00E07C
:10139800DFF834D00D480E490E4A002302E0D45835
:1013A800C4500433C4188C42F9D30B4A0B4C0023A5
:1013B80001E013600432A242FBD3FFF7D7FF03F02A
:1013C8000BFBFFF74BFB70470000022000000020DA
:1013D80014000020804C0008140000209002002017
:1013E800FEE7000080B500AF0E4B1B680D4A43F4C2
:1013F800007313600B4B1B680A4A43F48063136045
:10140800084B1B68074A43F480731360032000F0FD
:101418002BF90F2000F008F8FFF7D4FD0023184639
:1014280080BD00BF003C024080B582B000AF78604C
:10143800124B1A68124B1B7819464FF47A73B3FB98
:10144800F1F3B2FBF3F3184600F043F90346002B1F
:1014580001D001230EE07B680F2B0AD8002279689F
:101468004FF0FF3000F00BF9064A7B681360002349
:1014780000E0012318460837BD4680BD080000205B
:10148800100000200C00002080B400AF064B1B7831
:101498001A46064B1B681344044A136000BFBD4636
:1014A8005DF8047B704700BF100000208C0200200C
:1014B80080B400AF034B1B681846BD465DF8047B3B
:1014C800704700BF8C02002080B485B000AF786000
:1014D8007B6803F00703FB600C4BDB68BB60BA68F2
:1014E8004FF6FF031340BB60FB681A02BB68134347
:1014F80043F0BF6343F40033BB60044ABB68D36066
:1015080000BF1437BD465DF8047B704700ED00E06E
:1015180080B400AF044BDB681B0A03F007031846CE
:10152800BD465DF8047B704700ED00E080B483B0F1
:1015380000AF0346FB7197F90730002B0BDBFB79F3
:1015480003F01F02074997F907305B09012000FAE9
:1015580002F241F8232000BF0C37BD465DF8047B3A
:10156800704700BF00E100E080B483B000AF0346DD
:101578003960FB7197F90730002B0ADB3B68DAB258
:101588000C4997F907301201D2B20B4483F80023B3
:101598000AE03B68DAB20849FB7903F00F03043B21
:1015A8001201D2B20B441A7600BF0C37BD465DF863
:1015B800047B704700E100E000ED00E080B489B0F2
:1015C80000AFF860B9607A60FB6803F00703FB615D
:1015D800FB69C3F10703042B28BF0423BB61FB6924
:1015E8000433062B02D9FB69033B00E000237B612F
:1015F8004FF0FF32BB6902FA03F3DA43BB681A40C3
:101608007B699A404FF0FF317B6901FA03F3D943B4
:101618007B680B40134318462437BD465DF8047BAE
:101628007047000080B582B000AF78607B68013BEE
:10163800B3F1807F01D301230FE00A4A7B68013BA5
:1016480053600F214FF0FF30FFF78EFF054B00224C
:101658009A60044B07221A60002318460837BD46D3
:1016680080BD00BF10E000E080B582B000AF7860B8
:101678007868FFF729FF00BF0837BD4680BD80B5F1
:1016880086B000AF0346B9607A60FB7300237B61C4
:10169800FFF73EFF78617A68B9687869FFF78EFFCF
:1016A800024697F90F3011461846FFF75DFF00BF55
:1016B8001837BD4680BD80B582B000AF0346FB71C8
:1016C80097F907301846FFF731FF00BF0837BD46C6
:1016D80080BD80B582B000AF78607868FFF7A2FF60
:1016E800034618460837BD4680BD000080B586B061
:1016F80000AF786000237B61FFF7DAFE38617B6812
:10170800002B01D1012399E07B68022283F8352060
:101718007B68002283F834207B681B681A687B6822
:101728001B6822F001021A600FE0FFF7C1FE0246B3
:101738003B69D31A052B08D97B6820225A657B6838
:10174800032283F83520032378E07B681B681B6835
:1017580003F00103002BE8D17B681B681B687B61E1
:101768007A69384B13407B617B685A687B689B6851
:101778001A437B68DB681A437B681B691A437B68DA
:101788005B691A437B689B691A437B68DB691A4368
:101798007B681B6A13437A6913437B617B685B6AC6
:1017A800042B07D17B68DA6A7B681B6B13437A6961
:1017B80013437B617B681B687A691A607B681B68C6
:1017C8005B697B617B6923F007037B617B685B6AEC
:1017D8007A6913437B617B685B6A042B17D17B684A
:1017E8009B6A7A6913437B617B68DB6A002B0ED0A6
:1017F800786800F00DFB0346002B08D07B68402278
:101808005A657B68012283F83520012316E07B683E
:101818001B687A695A61786800F0C4FA0346FB606D
:101828007B68DB6D3F229A40FB689A607B680022E8
:101838005A657B68012283F835200023184618373B
:10184800BD4680BD3F8010F080B586B000AFF8601F
:10185800B9607A603B600023FB75FB689B6D3B6158
:10186800FB6893F83430012B01D1022340E0FB6878
:10187800012283F83420FB6893F83530DBB2012B62
:101888002FD1FB68022283F83520FB6800225A65B5
:101898003B687A68B968F86800F056FAFB68DB6D4F
:1018A8003F229A403B699A60FB681B681A68FB688C
:1018B8001B6842F016021A60FB681B6C002B07D0ED
:1018C800FB681B681A68FB681B6842F008021A600C
:1018D800FB681B681A68FB681B6842F001021A6003
:1018E80005E0FB68002283F834200223FB75FB7DAA
:1018F80018461837BD4680BD80B584B000AF786003
:101908007B689B6DFB60FFF7D3FDB8607B6893F83D
:101918003530DBB2022B08D07B6880225A657B68A1
:10192800002283F83420012352E07B681B681A6880
:101938007B681B6822F016021A607B681B685A696C
:101948007B681B6822F080025A617B681B6C002B45
:1019580003D17B689B6C002B07D07B681B681A68D7
:101968007B681B6822F008021A607B681B681A688B
:101978007B681B6822F001021A6013E0FFF798FDEC
:101988000246BB68D31A052B0CD97B6820225A65FE
:101998007B68032283F835207B68002283F8342093
:1019A800032315E07B681B681B6803F00103002B09
:1019B800E4D17B68DB6D3F229A40FB689A607B68C4
:1019C800012283F835207B68002283F83420002325
:1019D80018461037BD4680BD80B483B000AF78602C
:1019E8007B6893F83530DBB2022B04D07B68802209
:1019F8005A6501230CE07B68052283F835207B6853
:101A08001B681A687B681B6822F001021A600023B1
:101A180018460C37BD465DF8047B704780B586B024
:101A280000AF78600023BB608E4B1B688E4AA2FB18
:101A380003239B0A7B617B689B6D3B613B691B6849
:101A4800FB607B68DB6D08229A40FB681340002B23
:101A58001AD07B681B681B6803F00403002B13D0A3
:101A68007B681B681A687B681B6822F004021A608E
:101A78007B68DB6D08229A403B699A607B685B6DE6
:101A880043F001027B685A657B68DB6D01229A404E
:101A9800FB681340002B12D07B681B685B6903F05E
:101AA8008003002B0BD07B68DB6D01229A403B69D9
:101AB8009A607B685B6D43F002027B685A657B68BD
:101AC800DB6D04229A40FB681340002B12D07B6820
:101AD8001B681B6803F00203002B0BD07B68DB6DCF
:101AE80004229A403B699A607B685B6D43F004026C
:101AF8007B685A657B68DB6D10229A40FB6813404F
:101B0800002B43D07B681B681B6803F00803002B7D
:101B18003CD07B68DB6D10229A403B699A607B68F9
:101B28001B681B6803F48023002B18D07B681B6894
:101B38001B6803F40023002B08D17B681B6C002B67
:101B480024D07B681B6C786898471FE07B689B6C87
:101B5800002B1BD07B689B6C7868984716E07B68E5
:101B68001B681B6803F48073002B07D17B681B6814
:101B78001A687B681B6822F008021A607B681B6C75
:101B8800002B03D07B681B6C786898477B68DB6DFB
:101B980020229A40FB681340002B00F08F807B685E
:101BA8001B681B6803F01003002B00F087807B681C
:101BB800DB6D20229A403B699A607B6893F8353048
:101BC800DBB2052B36D17B681B681A687B681B68FB
:101BD80022F016021A607B681B685A697B681B68CA
:101BE80022F080025A617B681B6C002B03D17B6852
:101BF8009B6C002B07D07B681B681A687B681B6886
:101C080022F008021A607B68DB6D3F229A403B692C
:101C18009A607B68012283F835207B68002283F86C
:101C280034207B681B6D002B7ED07B681B6D786829
:101C3800984779E07B681B681B6803F48023002BB6
:101C48001DD07B681B681B6803F40023002B0DD193
:101C58007B685B6C002B31D07B685B6C786898473D
:101C68002CE000BF08000020B5814E1B7B68DB6BB1
:101C7800002B23D07B68DB6B786898471EE07B6875
:101C88001B681B6803F48073002B0FD17B681B68EB
:101C98001A687B681B6822F010021A607B680122B0
:101CA80083F835207B68002283F834207B68DB6B5F
:101CB800002B03D07B68DB6B786898477B685B6D8B
:101CC800002B32D07B685B6D03F00103002B22D020
:101CD8007B68052283F835207B681B681A687B6857
:101CE8001B6822F001021A60BB680133BB607A6985
:101CF8009A4207D37B681B681B6803F00103002B1B
:101D0800F2D100E000BF7B68012283F835207B68B0
:101D1800002283F834207B68DB6C002B05D07B68BD
:101D2800DB6C7868984700E000BF1837BD4680BD77
:101D380080B483B000AF78607B685B6D18460C3761
:101D4800BD465DF8047B704780B485B000AFF8608D
:101D5800B9607A603B60FB681B681A68FB681B689F
:101D680022F480221A60FB681B683A685A60FB6894
:101D78009B68402B08D1FB681B687A689A60FB68EF
:101D88001B68BA68DA6007E0FB681B68BA689A6083
:101D9800FB681B687A68DA6000BF1437BD465DF8D7
:101DA800047B704780B485B000AF78607B681B689F
:101DB800DBB2103B144AA2FB03231B09FB60134A46
:101DC800FB6813441B781A467B68DA65FB68032BAB
:101DD80009D97B681B6823F47F7323F003031A1D5A
:101DE8007B689A6507E07B681B6823F47F7323F0A0
:101DF80003037A6893657B689B6D18461437BD4664
:101E08005DF8047B704700BFABAAAAAA684C00081B
:101E180080B485B000AF78600023FB737B689B6A51
:101E2800BB607B689B69002B1FD1BB68032B56D80E
:101E380001A252F823F000BF511E0008631E0008DB
:101E4800511E0008E71E00087B68DB6A03F08073F8
:101E5800002B46D00123FB7343E07B68DB6AB3F1B8
:101E6800C07F40D10123FB733DE07B689B69B3F5DC
:101E7800005F21D1BB68032B37D801A252F823F0A9
:101E8800991E00089F1E0008991E0008B11E000830
:101E98000123FB7330E07B68DB6A03F08073002B5F
:101EA80025D00123FB7322E07B68DB6AB3F1C07F96
:101EB8001FD10123FB731CE0BB68022B03D9BB684D
:101EC800032B03D018E00123FB7315E07B68DB6A62
:101ED80003F08073002B0ED00123FB730BE000BFCF
:101EE8000AE000BF08E000BF06E000BF04E000BF52
:101EF80002E000BF00E000BFFB7B18461437BD4678
:101F08005DF8047B704700BF80B489B000AF78608B
:101F1800396000237B6100233B610023BB61002300
:101F2800FB6159E10122FB6902FA03F37B613B681B
:101F38001B687A6913403B613A697B699A4240F0B1
:101F480048813B685B6803F00303012B05D03B68BD
:101F58005B6803F00303022B30D17B689B68BB618D
:101F6800FB695B00032202FA03F3DB43BA691340FF
:101F7800BB613B68DA68FB695B0002FA03F3BA6984
:101F88001343BB617B68BA699A607B685B68BB6115
:101F98000122FB6902FA03F3DB43BA691340BB6110
:101FA8003B685B681B0903F00102FB6902FA03F353
:101FB800BA691343BB617B68BA695A603B685B685E
:101FC80003F00303032B17D07B68DB68BB61FB6955
:101FD8005B00032202FA03F3DB43BA691340BB61D7
:101FE8003B689A68FB695B0002FA03F3BA6913431A
:101FF800BB617B68BA69DA603B685B6803F003031E
:10200800022B23D1FB69DA087B68083253F82230A7
:10201800BB61FB6903F007039B000F2202FA03F37D
:10202800DB43BA691340BB613B681A69FB6903F07B
:1020380007039B0002FA03F3BA691343BB61FB6908
:10204800DA087B680832B96943F822107B681B6894
:10205800BB61FB695B00032202FA03F3DB43BA6945
:102068001340BB613B685B6803F00302FB695B00DC
:1020780002FA03F3BA691343BB617B68BA691A6051
:102088003B685B6803F44033002B00F0A280002318
:10209800FB60574B5B6C564A43F480435364544B84
:1020A8005B6C03F48043FB60FB68524AFB699B0846
:1020B800023352F82330BB61FB6903F003039B0032
:1020C8000F2202FA03F3DB43BA691340BB617B6852
:1020D800494A934219D07B68484A934213D07B6897
:1020E800474A93420DD07B68464A934207D07B68A3
:1020F800454A934201D1042308E0072306E003235D
:1021080004E0022302E0012300E00023FA6902F060
:10211800030292009340BA691343BB613549FB69D6
:102128009B080233BA6941F82320384B9B68BB618E
:102138003B69DB43BA691340BB613B685B6803F4E6
:102148008013002B03D0BA693B691343BB612F4A44
:10215800BB6993602D4BDB68BB613B69DB43BA69A4
:102168001340BB613B685B6803F40013002B03D08A
:10217800BA693B691343BB61244ABB69D360234BEB
:102188005B68BB613B69DB43BA691340BB613B6871
:102198005B6803F40033002B03D0BA693B6913432F
:1021A800BB611A4ABB695360184B1B68BB613B692A
:1021B800DB43BA691340BB613B685B6803F4803357
:1021C800002B03D0BA693B691343BB610F4ABB6953
:1021D8001360FB690133FB61FB690F2B7FF6A2AE2D
:1021E80000BF00BF2437BD465DF8047B704700BFC1
:1021F800003802400038014000000240000402405C
:1022080000080240000C024000100240003C01405F
:1022180080B483B000AF78600B467B8013467B7038
:102228007B78002B03D07A887B689A6103E07B88EF
:102238001A047B689A6100BF0C37BD465DF8047BC1
:10224800704780B485B000AF78600B467B807B68B0
:102258005B69FB607A88FB6813401A04FB68D94302
:102268007B880B401A437B689A6100BF1437BD46D0
:102278005DF8047B7047000080B586B000AF7860D9
:102288007B68002B01D1012367E27B681B6803F0A0
:102298000103002B75D0884B9B6803F00C03042BBB
:1022A8000CD0854B9B6803F00C03082B12D1824B92
:1022B8005B6803F48003B3F5800F0BD17E4B1B687A
:1022C80003F40033002B5BD07B685B68002B57D18D
:1022D800012342E27B685B68B3F5803F06D1764B09
:1022E8001B68754A43F4803313601DE07B685B68A4
:1022F800B3F5A02F0CD1704B1B686F4A43F48023B1
:1023080013606D4B1B686C4A43F4803313600BE019
:10231800694B1B68684A23F480331360664B1B685B
:10232800654A23F4802313607B685B68002B13D015
:10233800FFF7BEF8386108E0FFF7BAF802463B69D4
:10234800D31A642B01D9032307E25B4B1B6803F400
:102358000033002BF0D014E0FFF7AAF8386108E04A
:10236800FFF7A6F802463B69D31A642B01D9032369
:10237800F3E1514B1B6803F40033002BF0D100E06C
:1023880000BF7B681B6803F00203002B63D04A4B35
:102398009B6803F00C03002B0BD0474B9B6803F0A2
:1023A8000C03082B1CD1444B5B6803F48003002BFF
:1023B80016D1414B1B6803F00203002B05D07B6844
:1023C800DB68012B01D00123C7E13B4B1B6823F0DD
:1023D800F8027B681B69DB00374913430B603AE05E
:1023E8007B68DB68002B20D0344B01221A60FFF792
:1023F8005FF8386108E0FFF75BF802463B69D31ADB
:10240800022B01D90323A8E12B4B1B6803F002031D
:10241800002BF0D0284B1B6823F0F8027B681B695F
:10242800DB00254913430B6015E0244B00221A609A
:10243800FFF73EF8386108E0FFF73AF802463B69D3
:10244800D31A022B01D9032387E11B4B1B6803F026
:102458000203002BF0D17B681B6803F00803002BF4
:1024680036D07B685B69002B16D0154B01221A60A9
:10247800FFF71EF8386108E0FFF71AF802463B69D3
:10248800D31A022B01D9032367E10B4B5B6F03F0CF
:102498000203002BF0D01BE0094B00221A60FFF763
:1024A80007F838610EE0FFF703F802463B69D31AD4
:1024B800022B07D9032350E10038024000004742AD
:1024C800800E4742884B5B6F03F00203002BEAD172
:1024D8007B681B6803F00403002B00F0978000233F
:1024E800FB75814B1B6C03F08053002B0FD100232D
:1024F800BB607D4B1B6C7C4A43F0805313647A4B62
:102508001B6C03F08053BB60BB680123FB75774BE2
:102518001B6803F48073002B18D1744B1B68734A33
:1025280043F480731360FEF7C3FF386108E0FEF7D9
:10253800BFFF02463B69D31A022B01D903230CE1E2
:102548006A4B1B6803F48073002BF0D07B689B6890
:10255800012B06D1644B1B6F634A43F001031367D9
:102568001CE07B689B68052B0CD15F4B1B6F5E4A98
:1025780043F0040313675C4B1B6F5B4A43F0010392
:1025880013670BE0584B1B6F574A23F0010313677F
:10259800554B1B6F544A23F0040313677B689B68F1
:1025A800002B15D0FEF784FF38610AE0FEF780FFA4
:1025B80002463B69D31A41F28832934201D9032378
:1025C800CBE0494B1B6F03F00203002BEED014E065
:1025D800FEF76EFF38610AE0FEF76AFF02463B69C4
:1025E800D31A41F28832934201D90323B5E03E4B16
:1025F8001B6F03F00203002BEED1FB7D012B05D1ED
:10260800394B1B6C384A23F0805313647B689B69F1
:10261800002B00F0A180344B9B6803F00C03082BBF
:102628005CD07B689B69022B41D1314B00221A6038
:10263800FEF73EFF386108E0FEF73AFF02463B69C5
:10264800D31A022B01D9032387E0274B1B6803F019
:102658000073002BF0D17B68DA697B681B6A1A4328
:102668007B685B6A9B011A437B689B6A5B08013B3A
:102678001B041A437B68DB6A1B061B4913434B6028
:102688001B4B01221A60FEF713FF386108E0FEF7C2
:102698000FFF02463B69D31A022B01D903235CE0E2
:1026A800114B1B6803F00073002BF0D054E0104B63
:1026B80000221A60FEF7FCFE386108E0FEF7F8FE1B
:1026C80002463B69D31A022B01D9032345E0064B86
:1026D8001B6803F00073002BF0D13DE07B689B6919
:1026E800012B07D1012338E0003802400070004078
:1026F800600047421B4B5B68FB607B689B69012B52
:1027080028D0FB6803F480027B68DB699A4221D1F8
:10271800FB6803F03F027B681B6A9A421AD1FA6889
:1027280047F6C07313407A68526A9201934211D1F6
:10273800FB6803F440327B689B6A5B08013B1B041F
:102748009A4207D1FB6803F070627B68DB6A1B065C
:102758009A4201D0012300E0002318461837BD46ED
:1027680080BD00BF0038024080B584B000AF7860FB
:1027780039607B68002B01D10123CCE0684B1B68D2
:1027880003F007033A689A420CD9654B3A68D2B20B
:102798001A70634B1B6803F007033A689A4201D02A
:1027A8000123B8E07B681B6803F00203002B20D0EC
:1027B8007B681B6803F00403002B05D0594B9B680A
:1027C800584A43F4E05393607B681B6803F008039E
:1027D800002B05D0534B9B68524A43F460439360E7
:1027E800504B9B6823F0F0027B689B684D4913436C
:1027F8008B607B681B6803F00103002B44D07B6867
:102808005B68012B07D1474B1B6803F40033002B8F
:1028180019D101237FE07B685B68022B03D07B68BA
:102828005B68032B07D13F4B1B6803F00073002B39
:1028380009D101236FE03B4B1B6803F00203002B17
:1028480001D1012367E0374B9B6823F003027B68C3
:102858005B68344913438B60FEF72AFEF8600AE090
:10286800FEF726FE0246FB68D31A41F288329342ED
:1028780001D903234FE02B4B9B6803F00C027B68C4
:102888005B689B009A42EBD1254B1B6803F007035A
:102898003A689A420CD2224B3A68D2B21A70204B4C
:1028A8001B6803F007033A689A4201D0012332E01B
:1028B8007B681B6803F00403002B08D0194B9B6846
:1028C80023F4E0527B68DB68164913438B607B680E
:1028D8001B6803F00803002B09D0124B9B6823F4F4
:1028E80060427B681B69DB000E4913438B6000F074
:1028F80021F802460B4B9B681B0903F00F030A499A
:10290800CB5C22FA03F3094A1360094B1B6818468B
:10291800FEF78AFD002318461037BD4680BD00BF6C
:10292800003C024000380240504C000808000020DB
:102938000C0000202DE9B04F90B000AF00237B635E
:102948000023FB6300233B630023BB63594B9B6855
:1029580003F00C03082B0DD0082B00F2A180002BEC
:1029680002D0042B03D09BE0534BBB639BE0534B3B
:10297800BB6398E04F4B5B6803F03F037B634D4BB1
:102988005B6803F48003002B28D04A4B5B689B09E3
:1029980000223B627A623B6AC3F308000021474B7E
:1029A80003FB01F2002300FB03F31344434AA0FB9B
:1029B8000212FA620A46BA62FA6A1344FB627B6B35
:1029C8000022BB61FA61D7E90623D7E90A01FDF7BE
:1029D800FFFB02460B461346FB6353E0354B5B682F
:1029E8009B0900223B617A613B69C3F3080A4FF0F7
:1029F800000B52465B464FF000004FF000015901B2
:102A080041EAD261500102460B46B2EB0A0863EB79
:102A18000B094FF000024FF000034FEA891343EA15
:102A280098634FEA8812B2EB080463EB09054FF08C
:102A380000024FF00003EB0043EA5473E20014462F
:102A48001D4614EB0A033B6045EB0B037B604FF01C
:102A580000024FF00003D7E9004529468B022146C2
:102A680043EA915321468A02104619467B6B00229D
:102A7800BB60FA60D7E90223FDF7AAFB02460B46C2
:102A88001346FB630B4B5B681B0C03F0030301331A
:102A98005B003B63FA6B3B6BB2FBF3F3BB6302E097
:102AA800054BBB6300BFBB6B18464037BD46BDE84E
:102AB800B08F00BF003802400024F40040787D0148
:102AC80080B400AF034B1B681846BD465DF8047B15
:102AD800704700BF0800002080B500AFFFF7F0FF87
:102AE8000246054B9B689B0A03F007030349CB5C2E
:102AF80022FA03F3184680BD00380240604C0008F3
:102B080080B500AFFFF7DCFF0246054B9B685B0B07
:102B180003F007030349CB5C22FA03F3184680BD90
:102B280000380240604C000880B582B000AF786081
:102B38007B68002B01D1012341E07B6893F83D308D
:102B4800DBB2002B06D17B68002283F83C20786832
:102B5800FEF760FA7B68022283F83D207B681A68DA
:102B68007B6804331946104600F088FA7B68012216
:102B780083F846207B68012283F83E207B68012287
:102B880083F83F207B68012283F840207B6801227C
:102B980083F841207B68012283F842207B68012268
:102BA80083F843207B68012283F844207B68012254
:102BB80083F845207B68012283F83D2000231846CE
:102BC8000837BD4680BD000080B485B000AF78608E
:102BD8007B6893F83D30DBB2012B01D0012344E040
:102BE8007B68022283F83D207B681B68DA687B6873
:102BF8001B6842F00102DA607B681B681E4A934238
:102C080018D07B681B68B3F1804F13D07B681B68B2
:102C18001A4A93420ED07B681B68194A934209D01E
:102C28007B681B68174A934204D07B681B68164A66
:102C3800934211D17B681B689B6803F00703FB6014
:102C4800FB68062B10D07B681B681A687B681B68BA
:102C580042F001021A6007E07B681B681A687B680B
:102C68001B6842F001021A60002318461437BD465B
:102C78005DF8047B704700BF00000140000400407D
:102C880000080040000C00400040014080B582B0C0
:102C980000AF78607B681B681B6903F00203022B96
:102CA80022D17B681B68DB6803F00203022B1BD16F
:102CB8007B681B686FF002021A617B6801221A7731
:102CC8007B681B689B6903F00303002B03D07868BB
:102CD80000F0B5F905E0786800F0A7F9786800F029
:102CE800B8F97B6800221A777B681B681B6903F0B8
:102CF8000403042B22D17B681B68DB6803F0040300
:102D0800042B1BD17B681B686FF004021A617B6877
:102D180002221A777B681B689B6903F44073002BB7
:102D280003D0786800F08BF905E0786800F07DF949
:102D3800786800F08EF97B6800221A777B681B6838
:102D48001B6903F00803082B22D17B681B68DB682A
:102D580003F00803082B1BD17B681B686FF008027F
:102D68001A617B6804221A777B681B68DB6903F0A9
:102D78000303002B03D0786800F061F905E0786858
:102D880000F053F9786800F064F97B6800221A773C
:102D98007B681B681B6903F01003102B22D17B682A
:102DA8001B68DB6803F01003102B1BD17B681B68C2
:102DB8006FF010021A617B6808221A777B681B681B
:102DC800DB6903F44073002B03D0786800F037F90F
:102DD80005E0786800F029F9786800F03AF97B682E
:102DE80000221A777B681B681B6903F00103012B1B
:102DF8000ED17B681B68DB6803F00103012B07D148
:102E08007B681B686FF001021A617868FDF798FB10
:102E18007B681B681B6903F08003802B0ED17B68DD
:102E28001B68DB6803F08003802B07D17B681B6875
:102E38006FF080021A61786800F0B2FA7B681B684C
:102E48001B6903F04003402B0ED17B681B68DB68CD
:102E580003F04003402B07D17B681B686FF04002EA
:102E68001A61786800F0FFF87B681B681B6903F03B
:102E78002003202B0ED17B681B68DB6803F020033E
:102E8800202B07D17B681B686FF020021A617868D5
:102E980000F07CFA00BF0837BD4680BD80B584B01D
:102EA80000AF786039600023FB737B6893F83C308F
:102EB800012B01D10223B4E07B68012283F83C2076
:102EC8007B68022283F83D207B681B689B68BB6097
:102ED800BB6823F07703BB60BB6823F47F43BB6008
:102EE8007B681B68BA689A603B681B68B3F5005F2B
:102EF8003ED0B3F5005F00F28780B3F5805F00F045
:102F08008680B3F5805F7FD8702B1AD0702B7BD862
:102F1800602B50D0602B77D8502B3CD0502B73D8D7
:102F2800402B58D0402B6FD8302B64D0302B6BD827
:102F3800202B60D0202B67D8002B5CD0102B5AD0C8
:102F480062E07B6818683B6899683B685A683B6828
:102F5800DB6800F08DF97B681B689B68BB60BB6809
:102F680043F07703BB607B681B68BA689A604FE0E0
:102F78007B6818683B6899683B685A683B68DB68F7
:102F880000F076F97B681B689A687B681B6842F4D6
:102F980080429A603CE07B6818683B6859683B68E7
:102FA800DB681A4600F0EAF87B681B68502118466F
:102FB80000F043F92CE07B6818683B6859683B6867
:102FC800DB681A4600F009F97B681B68602118461F
:102FD80000F033F91CE07B6818683B6859683B6867
:102FE800DB681A4600F0CAF87B681B68402118465F
:102FF80000F023F90CE07B681A683B681B681946E7
:10300800104600F01AF903E00123FB7300E000BF4B
:103018007B68012283F83D207B68002283F83C20EE
:10302800FB7B18461037BD4680BD80B483B000AF27
:10303800786000BF0C37BD465DF8047B704780B4EC
:1030480083B000AF786000BF0C37BD465DF8047BE5
:10305800704780B483B000AF786000BF0C37BD46BE
:103068005DF8047B704780B483B000AF786000BF20
:103078000C37BD465DF8047B7047000080B485B00E
:1030880000AF786039607B681B68FB607B68344AF6
:1030980093420FD07B68B3F1804F0BD07B68314AE5
:1030A800934207D07B68304A934203D07B682F4A0B
:1030B800934208D1FB6823F07003FB603B685B68B0
:1030C800FA681343FB607B68254A93421BD07B68F0
:1030D800B3F1804F17D07B68224A934213D07B68A4
:1030E800214A93420FD07B68204A93420BD07B68D9
:1030F8001F4A934207D07B681E4A934203D07B68DD
:103108001D4A934208D1FB6823F44073FB603B6877
:10311800DB68FA681343FB60FB6823F080023B68B6
:103128005B691343FB607B68FA681A603B689A68BE
:103138007B68DA623B681A687B689A627B68084A2F
:10314800934203D13B681A697B681A637B68012242
:103158005A6100BF1437BD465DF8047B704700BF55
:10316800000001400004004000080040000C00403E
:1031780000400140004401400048014080B487B04D
:1031880000AFF860B9607A60FB681B6A7B61FB6816
:103198001B6A23F00102FB681A62FB689B693B61AA
:1031A8003B6923F0F0033B617B681B013A691343D9
:1031B8003B617B6923F00A037B617A69BB6813432F
:1031C8007B61FB683A699A61FB687A691A6200BF99
:1031D8001C37BD465DF8047B704780B487B000AFEC
:1031E800F860B9607A60FB681B6A23F01002FB681C
:1031F8001A62FB689B697B61FB681B6A3B617B69A0
:1032080023F470437B617B681B037A6913437B61FA
:103218003B6923F0A0033B61BB681B013A69134378
:103228003B61FB687A699A61FB683A691A6200BF78
:103238001C37BD465DF8047B704780B485B000AF8D
:10324800786039607B689B68FB60FB6823F07003DB
:10325800FB603A68FB68134343F00703FB607B6835
:10326800FA689A6000BF1437BD465DF8047B704762
:1032780080B487B000AFF860B9607A603B60FB68E3
:103288009B687B617B6923F47F437B613B681A02FF
:103298007B681A43BB6813437A6913437B61FB68F5
:1032A8007A699A6000BF1C37BD465DF8047B704799
:1032B80080B485B000AF786039607B6893F83C30A3
:1032C800012B01D1022350E07B68012283F83C20C6
:1032D8007B68022283F83D207B681B685B68FB6083
:1032E8007B681B689B68BB60FB6823F07003FB600E
:1032F8003B681B68FA681343FB607B681B68FA68C5
:103308005A607B681B681C4A934218D07B681B680C
:10331800B3F1804F13D07B681B68184A93420ED0D4
:103328007B681B68164A934209D07B681B68154A5C
:10333800934204D07B681B68134A93420CD1BB6844
:1033480023F08003BB603B685B68BA681343BB60CB
:103358007B681B68BA689A607B68012283F83D2005
:103368007B68002283F83C20002318461437BD46AA
:103378005DF8047B704700BF000001400004004076
:1033880000080040000C00400040014080B483B0B9
:1033980000AF786000BF0C37BD465DF8047B70470E
:1033A80080B483B000AF786000BF0C37BD465DF8CD
:1033B800047B704780B582B000AF78607B68002BD3
:1033C80001D101233FE07B6893F83D30DBB2002B4D
:1033D80006D17B68002283F83C207868FDF742FE1E
:1033E8007B68242283F83D207B681B68DA687B6849
:1033F8001B6822F40052DA60786801F079F87B687B
:103408001B681A697B681B6822F490421A617B6802
:103418001B685A697B681B6822F02A025A617B681C
:103428001B68DA687B681B6842F40052DA607B68C4
:1034380000221A647B68202283F83D207B682022C2
:1034480083F83E20002318460837BD4680BD80B566
:103458008AB002AFF860B9603B601346FB80002376
:103468007B61FB6893F83D30DBB2202B7CD1BB68D5
:10347800002B02D0FB88002B01D1012375E0FB68EB
:1034880093F83C30012B01D102236EE0FB68012246
:1034980083F83C20FB6800221A64FB68212283F829
:1034A8003D20FEF705F87861FB68FA889A84FB6886
:1034B800FA88DA84FB689B68B3F5805F08D1FB68FB
:1034C8001B69002B04D10023FB61BB68BB6103E0CF
:1034D800BB68FB610023BB61FB68002283F83C20CA
:1034E8002AE03B6800937B6900228021F86800F09D
:1034F800F3FC0346002B01D0032336E0FB69002BC5
:103508000BD1BB691B881A46FB681B68C2F308020B
:103518005A60BB690233BB6107E0FB691A78FB6834
:103528001B685A60FB690133FB61FB68DB8C9BB24B
:10353800013B9AB2FB68DA84FB68DB8C9BB2002BF8
:10354800CFD13B6800937B6900224021F86800F0E6
:10355800C3FC0346002B01D0032306E0FB682022AE
:1035680083F83D20002300E0022318462037BD469B
:1035780080BD80B584B000AFF860B9601346FB80A9
:10358800FB6893F83E30DBB2202B1DD1BB68002BC3
:1035980002D0FB88002B01D1012316E0FB6893F8C9
:1035A8003C30012B01D102230FE0FB68012283F894
:1035B8003C20FB6800221A63FB881A46B968F86841
:1035C80000F0F8FC034600E0022318461037BD4619
:1035D80080BD80B584B000AFF860B9601346FB8049
:1035E800FB6893F83E30DBB2202B1DD1BB68002B63
:1035F80002D0FB88002B01D1012316E0FB6893F869
:103608003C30012B01D102230FE0FB68012283F833
:103618003C20FB6800221A63FB881A46B968F868E0
:1036280000F006FD034600E0022318461037BD46A9
:1036380080BD80B59AB000AF78607B681B680C339A
:10364800BB64BB6C53E8003F7B647B6C23F49073D2
:103658007B667B681B680C337A6E7A653B65396DCF
:103668007A6D41E80023FB64FB6C002BE5D17B6895
:103678001B6814337B637B6B53E8003F3B633B6BF6
:1036880023F001033B667B681B6814333A6E3A6487
:10369800FB63F96B3A6C41E80023BB63BB6B002BFF
:1036A800E5D17B681B6B012B19D17B681B680C3338
:1036B8003B623B6A53E8003FFB61FB6923F0100360
:1036C800FB657B681B680C33FA6DFA62BB62B96AEA
:1036D800FA6A41E800237B627B6A002BE5D17B68AC
:1036E8001B685B6903F04003402B36D17B681B687D
:1036F8001433FB60FB6853E8003FBB60BB6823F0F2
:103708004003BB657B681B681433BA6DBA617B6183
:103718007969BA6941E800233B613B69002BE5D12F
:103728007B689B6B002B18D07B689B6B00221A650B
:103738007B689B6B1846FEF7DFF80346002B0CD01E
:103748007B689B6B1846FEF7F3FA0346202B04D1DF
:103758007B6810221A6403230AE07B680022DA855A
:103768007B68202283F83E207B6800221A630023AE
:1037780018466837BD4680BD80B5BAB000AF7860DE
:103788007B681B681B68C7F8E4307B681B68DB68CC
:10379800C7F8E0307B681B685B69C7F8DC3000233A
:1037A800C7F8D8300023C7F8D430D7F8E43003F08E
:1037B8000F03C7F8D830D7F8D830002B0FD1D7F877
:1037C800E43003F02003002B09D0D7F8E03003F0F1
:1037D8002003002B03D0786800F0CFFD56E2D7F81D
:1037E800D830002B00F0DE80D7F8DC3003F001037E
:1037F800002B06D1D7F8E03003F49073002B00F0CB
:10380800D180D7F8E43003F00103002B0BD0D7F8B0
:10381800E03003F48073002B05D07B681B6C43F009
:1038280001027B681A64D7F8E43003F00403002B24
:103838000BD0D7F8DC3003F00103002B05D07B68F0
:103848001B6C43F002027B681A64D7F8E43003F07B
:103858000203002B0BD0D7F8DC3003F00103002B58
:1038680005D07B681B6C43F004027B681A64D7F8A8
:10387800E43003F00803002B11D0D7F8E03003F050
:103888002003002B05D1D7F8DC3003F00103002B0F
:1038980005D07B681B6C43F008027B681A647B6860
:1038A8001B6C002B00F0ED81D7F8E43003F0200307
:1038B800002B08D0D7F8E03003F02003002B02D00B
:1038C800786800F05AFD7B681B685B6903F0400369
:1038D800402B0CBF01230023DBB2C7F8D4307B6830
:1038E8001B6C03F00803002B03D1D7F8D430002B4E
:1038F8004FD0786800F062FC7B681B685B6903F056
:103908004003402B41D17B681B681433C7F89C30B7
:10391800D7F89C3053E8003FC7F89830D7F898306C
:1039280023F04003C7F8D0307B681B681433D7F8FE
:10393800D020C7F8A820C7F8A430D7F8A410D7F823
:10394800A82041E80023C7F8A030D7F8A030002B02
:10395800D9D17B689B6B002B13D07B689B6B7D4A0E
:103968001A657B689B6B1846FEF736F80346002BF2
:1039780016D07B689B6B1B6D7A68926B10469847D4
:103988000EE0786800F09AF90AE0786800F096F995
:1039980006E0786800F092F97B6800221A6470E10A
:1039A80000BF6EE17B681B6B012B40F04A81D7F8A2
:1039B800E43003F01003002B00F04381D7F8E03027
:1039C80003F01003002B00F03C810023BB607B68F0
:1039D8001B681B68BB607B681B685B68BB60BB6857
:1039E8007B681B685B6903F04003402B40F0B480A0
:1039F8007B689B6B1B685B68A7F8BE30B7F8BE3066
:103A0800002B00F040817B689B8DB7F8BE209A425E
:103A180080F039817B68B7F8BE20DA857B689B6BBC
:103A2800DB69B3F5807F00F088807B681B680C3306
:103A3800C7F88830D7F8883053E8003FC7F8843093
:103A4800D7F8843023F48073C7F8B8307B681B68D4
:103A58000C33D7F8B820C7F89420C7F89030D7F8B7
:103A68009010D7F8942041E80023C7F88C30D7F895
:103A78008C30002BD9D17B681B6814337B677B6F34
:103A880053E8003F3B673B6F23F00103C7F8B430AE
:103A98007B681B681433D7F8B420C7F88020FB670D
:103AA800F96FD7F8802041E80023BB67BB6F002B74
:103AB800E1D17B681B6814333B663B6E53E8003FDB
:103AC800FB65FB6D23F04003C7F8B0307B681B68CB
:103AD8001433D7F8B020FA66BB66B96EFA6E41E8BF
:103AE80000237B667B6E002BE3D17B68202283F862
:103AF8003E207B6800221A637B681B680C33FB64DA
:103B0800FB6C53E8003FBB64BB6C23F01003C7F8A1
:103B1800AC307B681B680C33D7F8AC20BA657B6582
:103B2800796DBA6D41E800233B653B6D002BE3D10D
:103B38007B689B6B1846FDF7DFFE7B689A8D7B6878
:103B4800DB8D9BB2D31A9BB21946786800F0C0F897
:103B580099E000BF8B4200087B689A8D7B68DB8DFB
:103B68009BB2D31AA7F8CE307B68DB8D9BB2002BB3
:103B780000F08B80B7F8CE30002B00F086807B6891
:103B88001B680C33BB63BB6B53E8003F7B637B6BE9
:103B980023F49073C7F8C8307B681B680C33D7F8D8
:103BA800C8207A643B64396C7A6C41E80023FB6373
:103BB800FB6B002BE3D17B681B6814337B627B6A49
:103BC80053E8003F3B623B6A23F00103C7F8C43067
:103BD8007B681B681433D7F8C4203A63FB62F96A20
:103BE8003A6B41E80023BB62BB6A002BE3D17B68D8
:103BF800202283F83E207B6800221A637B681B68BA
:103C08000C333B613B6953E8003FFB60FB6823F0E2
:103C18001003C7F8C0307B681B680C33D7F8C02086
:103C2800FA61BB61B969FA6941E800237B617B6984
:103C3800002BE3D1B7F8CE301946786800F048F881
:103C480023E0D7F8E43003F08003002B09D0D7F83D
:103C5800E03003F08003002B03D0786800F025FBE8
:103C680014E0D7F8E43003F04003002B0ED0D7F867
:103C7800E03003F04003002B08D0786800F065FBC3
:103C880004E000BF02E000BF00E000BFE837BD4627
:103C980080BD00BF80B483B000AF786000BF0C3730
:103CA800BD465DF8047B704780B483B000AF786090
:103CB80000BF0C37BD465DF8047B704780B483B005
:103CC80000AF786000BF0C37BD465DF8047B7047D5
:103CD80080B483B000AF78600B467B8000BF0C37A0
:103CE800BD465DF8047B704780B59CB000AF786036
:103CF8007B689B6BFB667B681B681B6803F480739F
:103D0800002B72D1FB6E0022DA85FB6E1B680C3328
:103D1800FB64FB6C53E8003FBB64BB6C23F480730B
:103D2800BB66FB6E1B680C33BA6EBA657B65796D32
:103D3800BA6D41E800233B653B6D002BE5D1FB6E76
:103D48001B681433BB63BB6B53E8003F7B637B6B1F
:103D580023F001037B66FB6E1B6814337A6E7A646A
:103D68003B64396C7A6C41E80023FB63FB6B002BE6
:103D7800E5D1FB6E1B6814337B627B6A53E8003F16
:103D88003B623B6A23F040033B66FB6E1B681433BF
:103D98003A6E3A63FB62F96A3A6B41E80023BB6208
:103DA800BB6A002BE5D1FB6E202283F83E20FB6E18
:103DB8001B6B012B19D1FB6E1B680C333B613B69F4
:103DC80053E8003FFB60FB6823F01003FB65FB6EC4
:103DD8001B680C33FA6DFA61BB61B969FA6941E88D
:103DE80000237B617B69002BE5D1FB6E1B6B012BEC
:103DF80006D1FB6E9B8D1946F86EFFF769FF02E04E
:103E0800F86EFCF7BDFB00BF7037BD4680BD80B5BE
:103E180084B000AF78607B689B6BFB60FB681B6BB2
:103E2800012B08D1FB689B8D5B089BB21946F8688B
:103E3800FFF74EFF02E0F868FFF736FF00BF1037C4
:103E4800BD4680BD80B584B000AF78600023FB60BC
:103E58007B689B6BBB60BB681B685B6903F0800376
:103E6800802B0CBF01230023DBB2FB60BB6893F8F7
:103E78003D30DBB2212B08D1FB68002B05D0BB6895
:103E88000022DA84B86800F071F9BB681B685B69C6
:103E980003F04003402B0CBF01230023DBB2FB607F
:103EA800BB6893F83E30DBB2222B08D1FB68002BAD
:103EB80005D0BB680022DA85B86800F07FF9BB68D6
:103EC8001B6C43F01002BB681A64B868FFF7F6FE73
:103ED80000BF1037BD4680BD80B590B000AFF86018
:103EE800B9603B601346FB7150E0BB6CB3F1FF3F18
:103EF8004CD0BB6C002B07D0FDF7DAFA02463B68C2
:103F0800D31ABA6C9A4241D2FB681B680C33BB6265
:103F1800BB6A53E8003F7B627B6A23F4D073FB6380
:103F2800FB681B680C33FA6B7A633B63396B7A6BFB
:103F380041E80023FB62FB6A002BE5D1FB681B68A4
:103F480014337B617B6953E8003F3B613B6923F095
:103F58000103BB63FB681B681433BA6B3A62FB61ED
:103F6800F9693A6A41E80023BB61BB69002BE5D1D6
:103F7800FB68202283F83D20FB68202283F83E203E
:103F8800FB68002283F83C2003230FE0FB681B68D2
:103F98001A68BB681340BA689A420CBF0123002311
:103FA800DBB21A46FB799A429FD000231846403765
:103FB800BD4680BD80B485B000AFF860B9601346D7
:103FC800FB80FB68BA689A62FB68FA889A85FB6886
:103FD800FA88DA85FB6800221A64FB68222283F8D3
:103FE8003E20FB68002283F83C20FB681B69002BFD
:103FF80007D0FB681B68DA68FB681B6842F48072AC
:10400800DA60FB681B685A69FB681B6842F00102AA
:104018005A61FB681B68DA68FB681B6842F020027B
:10402800DA60002318461437BD465DF8047B7047F4
:1040380080B598B000AFF860B9601346FB80BA68E5
:10404800FB689A62FB68FA889A85FB6800221A6402
:10405800FB68222283F83E20FB689B6B404ADA63A8
:10406800FB689B6B3F4A1A64FB689B6B3E4ADA64A9
:10407800FB689B6B00221A6507F10803FB65FB6868
:10408800986BFB681B6804331946FB6D1A68FB883C
:10409800FDF7DAFB00233B61FB681B681B683B618B
:1040A800FB681B685B683B613B69FB68002283F81F
:1040B8003C20FB681B69002B19D0FB681B680C337C
:1040C8003B643B6C53E8003FFB63FB6B43F480733A
:1040D800BB65FB681B680C33BA6DFA64BB64B96CCA
:1040E800FA6C41E800237B647B6C002BE5D1FB680C
:1040F8001B681433FB62FB6A53E8003FBB62BB6A70
:1041080043F001037B65FB681B6814337A6DBA635F
:104118007B63796BBA6B41E800233B633B6B002BF5
:10412800E5D1FB681B681433BB61BB6953E8003FEA
:104138007B617B6943F040033B65FB681B68143374
:104148003A6D7A623B62396A7A6A41E80023FB6118
:10415800FB69002BE5D1002318466037BD4680BDBA
:10416800F13C0008173E00084D3E000880B489B0B5
:1041780000AF78607B681B680C33FB60FB6853E812
:10418800003FBB60BB6823F0C003FB617B681B6812
:104198000C33FA69BA617B617969BA6941E800232D
:1041A8003B613B69002BE5D17B68202283F83D20E9
:1041B80000BF2437BD465DF8047B704780B495B0D6
:1041C80000AF78607B681B680C337B637B6B53E8BC
:1041D800003F3B633B6B23F49073FB647B681B6875
:1041E8000C33FA6C3A64FB63F96B3A6C41E80023D0
:1041F800BB63BB6B002BE5D17B681B6814333B6248
:104208003B6A53E8003FFB61FB6923F00103BB6491
:104218007B681B681433BA6CFA62BB62B96AFA6AC3
:1042280041E800237B627B6A002BE5D17B681B6B2E
:10423800012B19D17B681B680C33FB60FB6853E8C2
:10424800003FBB60BB6823F010037B647B681B687E
:104258000C337A6CBA617B617969BA6941E80023E9
:104268003B613B69002BE5D17B68202283F83E2027
:104278007B6800221A6300BF5437BD465DF8047B93
:10428800704780B584B000AF78607B689B6BFB603B
:10429800FB680022DA85FB680022DA84F868FFF7F9
:1042A8000DFD00BF1037BD4680BD80B485B000AF9E
:1042B80078607B6893F83D30DBB2212B3ED17B6878
:1042C8009B68B3F5805F14D17B681B69002B10D104
:1042D8007B681B6AFB60FB681B881A467B681B6847
:1042E800C2F308025A607B681B6A9A1C7B681A62D0
:1042F80008E07B681B6A591C7A6811621A787B6827
:104308001B685A607B68DB8C9BB2013B9BB27A6866
:104318001946D184002B0FD17B681B68DA687B684B
:104328001B6822F08002DA607B681B68DA687B68A9
:104338001B6842F04002DA60002300E002231846BE
:104348001437BD465DF8047B704780B582B000AF76
:1043580078607B681B68DA687B681B6822F040021B
:10436800DA607B68202283F83D207868FFF792FCAA
:10437800002318460837BD4680BD80B58CB000AF15
:1043880078607B6893F83E30DBB2222B40F0AB803C
:104398007B689B68B3F5805F17D17B681B69002B2E
:1043A80013D10023FB627B689B6ABB627B681B6836
:1043B8005B689BB2C3F308039AB2BB6A1A807B6836
:1043C8009B6A9A1C7B689A6226E07B689B6AFB6200
:1043D8000023BB627B689B68B3F5805F07D07B686E
:1043E8009B68002B0AD17B681B69002B06D17B6870
:1043F8001B685B68DAB2FB6A1A7008E07B681B68A6
:104408005B68DBB203F07F03DAB2FB6A1A707B6881
:104418009B6A5A1C7B689A627B68DB8D9BB2013B66
:104428009BB27A681946D185002B5AD17B681B68E4
:10443800DA687B681B6822F02002DA607B681B68F8
:10444800DA687B681B6822F48072DA607B681B6814
:104458005A697B681B6822F001025A617B68202236
:1044680083F83E207B681B6B012B35D17B680022CB
:104478001A637B681B680C337B617B6953E8003FD8
:104488003B613B6923F010037B627B681B680C333C
:104498007A6A3A62FB61F9693A6A41E80023BB61CA
:1044A800BB69002BE5D17B681B681B6803F0100310
:1044B800102B0AD10023FB607B681B681B68FB601C
:1044C8007B681B685B68FB60FB687B689B8D194693
:1044D8007868FFF7FDFB02E07868FCF751F80023E5
:1044E80002E0002300E0022318463037BD4680BDB5
:1044F8002DE9B04FC0B000AFC7F8F400D7F8F430DA
:104508001B681B6923F44050D7F8F430D968D7F8F2
:10451800F4301A6840EA01031361D7F8F4309A6856
:10452800D7F8F4301B691A43D7F8F4305B691A439B
:10453800D7F8F430DB691343C7F8F830D7F8F4300C
:104548001B68DB6823F4164121F00C01D7F8F4301E
:104558001A68D7F8F8300B43D360D7F8F4301B68E3
:104568005B6923F44070D7F8F4309969D7F8F430D0
:104578001A6840EA01035361D7F8F4301A688F4B80
:104588009A4205D0D7F8F4301A688D4B9A4204D174
:10459800FEF7B6FAC7F8FC0003E0FEF79DFAC7F885
:1045A800FC00D7F8F430DB69B3F5004F40F00C811C
:1045B800D7F8FC300022C7F8E830C7F8EC20D7E974
:1045C8003A4522462B469118B9655B41FB65D7E908
:1045D8001623214612EB0108294643EB01094FF047
:1045E80000024FF000034FEAC90343EA58734FEA49
:1045F800C80290469946234618EB0303C7F8E030F3
:104608002B4649EB0303C7F8E430D7F8F4305B686E
:104618000022C7F8D830C7F8DC20D7E936120B4695
:10462800DB183B65134642EB03037B65D7E914238C
:10463800D7E93801FBF7CCFD02460B46614BA3FBDB
:1046480002235B091C01D7F8FC300022C7F8D030E0
:10465800C7F8D420D7E9348942464B469118B96443
:104668005B41FB64D7E91223414612EB010A494634
:1046780043EB010B4FF000024FF000034FEACB036E
:1046880043EA5A734FEACA0292469B4643461AEBDC
:104698000303C7F8C8304B464BEB0303C7F8CC30CD
:1046A800D7F8F4305B680022C7F8C030C7F8C420D8
:1046B800D7E930120B46DB183B64134642EB030381
:1046C8007B64D7E91023D7E93201FBF781FD024665
:1046D8000B4611463B4BA3FB01235B09642202FBFB
:1046E80003F3CB1ADB0003F13202364BA3FB0223A0
:1046F8005B095B0003F4F8731C44D7F8FC30002214
:10470800C7F8B830C7F8BC20D7E92E8942464B46CF
:104718009118B9635B41FB63D7E90E2341465118F1
:10472800396349464B417B634FF000024FF0000369
:10473800D7E90CAB5946CB00514643EA5173514671
:10474800CA0010461946034642469B18C7F8B030BF
:104758004B460A4642EB0303C7F8B430D7F8F430A7
:104768005B680022C7F8A830C7F8AC20D7E92A123E
:104778000B46DB18BB62134642EB0303FB62D7E927
:104788000A23D7E92C01FBF723FD02460B460D4B04
:10479800A3FB02135B09642101FB03F3D31ADB00BB
:1047A8003233084AA2FB03235B0903F00702D7F858
:1047B800F4301B6822449A6005E100BF00100140F4
:1047C800001401401F85EB51D7F8FC300022C7F8D0
:1047D800A030C7F8A420D7E9288942464B4691184B
:1047E80039625B417B62D7E9082341465418494640
:1047F80043EB01054FF000024FF00003EB0043EAE2
:104808005473E20014461D464346E318C7F898302F
:104818004B4645EB0303C7F89C30D7F8F4305B6888
:104828000022C7F89030C7F894204FF000024FF0EC
:104838000003D7E9244529468B00214643EA9173B2
:1048480021468A00D7E92601FBF7C2FC02460B463F
:10485800604BA3FB02235B091C01D7F8FC30002244
:10486800C7F88830C7F88C20D7E9228942464B46DA
:104878009118B9615B41FB61D7E90623414651189C
:10488800396149464B417B614FF000024FF000030C
:10489800D7E904AB5946CB00514643EA5173514618
:1048A800CA0010461946034642469B18C7F880308E
:1048B8004B460A4642EB0303C7F88430D7F8F43076
:1048C8005B680022BB67FA674FF000024FF00003F5
:1048D800D7E91E8949468B00414643EA9173414610
:1048E8008A00D7E92001FBF773FC02460B46394BD7
:1048F800A3FB02135B09642101FB03F3D31A1B0119
:104908003233344AA2FB03235B0903F0F0031C444F
:10491800D7F8FC3000223B677A67D7E91C89424602
:104928004B469118B9605B41FB60D7E902234146C9
:104938005118396049464B417B604FF000024FF0F7
:104948000003D7E900AB5946CB00514643EA5173FF
:104958005146CA0010461946034642469B18BB6694
:104968004B460A4642EB0303FB66D7F8F4305B6814
:1049780000223B667A664FF000024FF00003D7E949
:10498800188949468B00414643EA917341468A009B
:10499800D7E91A01FBF71CFC02460B460D4BA3FB9B
:1049A80002135B09642101FB03F3D31A1B013233A1
:1049B800084AA2FB03235B0903F00F02D7F8F4307F
:1049C8001B6822449A6000BF07F58077BD46BDE8A2
:1049D800B08F00BF1F85EB5170B50D4D0D4C641B9A
:1049E800A4100026A64209D10B4D0C4C00F020F86B
:1049F800641BA4100026A64205D170BD55F8043BDF
:104A080098470136EEE755F8043B98470136F2E738
:104A1800784C0008784C0008784C00087C4C00085A
:104A280002440346934200D1704703F8011BF9E79B
:104A3800F8B500BFF8BC08BC9E467047F8B500BF83
:084A4800F8BC08BC9E46704753
:104A500000C1814001C0804101C0804100C181404E
:104A600001C0804100C1814000C1814001C080413E
:104A700001C0804100C1814000C1814001C080412E
:104A800000C1814001C0804101C0804100C181401E
:104A900001C0804100C1814000C1814001C080410E
:104AA00000C1814001C0804101C0804100C18140FE
:104AB00000C1814001C0804101C0804100C18140EE
:104AC00001C0804100C1814000C1814001C08041DE
:104AD00001C0804100C1814000C1814001C08041CE
:104AE00000C1814001C0804101C0804100C18140BE
:104AF00000C1814001C0804101C0804100C18140AE
:104B000001C0804100C1814000C1814001C080419D
:104B100000C1814001C0804101C0804100C181408D
:104B200001C0804100C1814000C1814001C080417D
:104B300001C0804100C1814000C1814001C080416D
:104B400000C1814001C0804101C0804100C181405D
:104B500000C0C101C30302C2C60607C705C5C4041D
:104B6000CC0C0DCD0FCFCE0E0ACACB0BC90908C88D
:104B7000D81819D91BDBDA1A1EDEDF1FDD1D1CDC7D
:104B800014D4D515D71716D6D21213D311D1D010ED
:104B9000F03031F133F3F23236F6F737F53534F4DD
:104BA0003CFCFD3DFF3F3EFEFA3A3BFB39F9F8384D
:104BB00028E8E929EB2B2AEAEE2E2FEF2DEDEC2C3D
:104BC000E42425E527E7E62622E2E323E12120E0AD
:104BD000A06061A163A3A26266A6A767A56564A49D
:104BE0006CACAD6DAF6F6EAEAA6A6BAB69A9A8680D
:104BF00078B8B979BB7B7ABABE7E7FBF7DBDBC7CFD
:104C0000B47475B577B7B67672B2B373B17170B06C
:104C1000509091519353529296565797559594545C
:104C20009C5C5D9D5F9F9E5E5A9A9B5B99595898CC
:104C3000884849894B8B8A4A4E8E8F4F8D4D4C8CBC
:104C4000448485458747468682424383418180402C
:104C5000000000000000000001020304060708092C
:104C600000000000010203040006101600061016E2
:084C700098B5FF7F0100000070
:044C7800BD01000872
:044C7C009901000892
:104C8000E003E003E003E0030024F4001000000070
:044C9000010000001F
:040000050800139943
:00000001FF
