:020000040800F2
:1000000000000220991B0008891A00088B1A0008BA
:100010008D1A00088F1A0008911A000800000000CD
:10002000000000000000000000000000931A00081B
:10003000951A000800000000971A0008991A000895
:10004000E91B0008E91B0008E91B0008E91B000880
:10005000E91B0008E91B0008E91B0008E91B000870
:10006000E91B0008E91B0008E91B0008E91B000860
:10007000E91B0008E91B0008E91B0008E91B000850
:10008000E91B0008E91B0008E91B0008000000004C
:10009000000000000000000000000000E91B000854
:1000A000E91B0008E91B0008E91B0008E91B000820
:1000B000E91B00089D1A0008E91B0008E91B00085D
:1000C000E91B0008E91B0008E91B0008E91B000800
:1000D000E91B0008A91A0008B51A00080000000072
:1000E000E91B0008E91B0008E91B000800000000EC
:1000F000000000000000000000000000E91B0008F4
:1001000000000000E91B0008E91B0008E91B0008CB
:1001100000000000000000000000000000000000DF
:10012000E91B0008C11A0008CD1A0008E91B0008E5
:10013000E91B0008000000000000000000000000B3
:10014000000000000000000000000000E91B0008A3
:10015000E91B0008E91B0008D91A0008E51A000885
:10016000E91B0008E91B0008000000000000000077
:10017000000000000000000000000000000000007F
:1001800000000000E91B0008000000000000000063
:08019000E91B0008E91B00084F
:1001A00010B5054C237833B9044B13B10448AFF3B1
:1001B00000800123237010BDDC010020000000003E
:1001C000847C000808B5034B1BB103490348AFF317
:1001D000008008BD00000000E0010020847C0008D1
:1001E00001F0FF01102A2BDB10F0070F08D010F8E8
:1001F000013B013A8B422DD010F0070F42B3F6D1EC
:10020000F0B441EA012141EA014122F007047FF004
:1002100000070023F0E80256083C85EA010586EA5B
:10022000010685FA47F5A3FA87F586FA47F6A5FA97
:1002300087F68EB9EED1F0BC01F0FF0102F00702A3
:1002400032B110F8013B013A83EA010313B1F8D14E
:100250000020704701387047002D06BF354603382F
:10026000073815F0010F07D1013015F4807F02BF68
:10027000013015F4C03F0130F0BC0138704700BFB9
:10028000034613F8012B002AFBD1181A01387047D6
:1002900081F0004102E000BF83F0004330B54FEA37
:1002A00041044FEA430594EA050F08BF90EA020FA4
:1002B0001FBF54EA000C55EA020C7FEA645C7FEA37
:1002C000655C00F0E2804FEA5454D4EB5555B8BF5A
:1002D0006D420CDD2C4480EA020281EA030382EACB
:1002E000000083EA010180EA020281EA0303362D5D
:1002F00088BF30BD11F0004F4FEA01314FF4801C30
:100300004CEA113102D0404261EB410113F0004F41
:100310004FEA03334CEA133302D0524263EB4303F8
:1003200094EA050F00F0A780A4F10104D5F1200E96
:100330000DDB02FA0EFC22FA05F2801841F10001F1
:1003400003FA0EF2801843FA05F359410EE0A5F1C5
:1003500020050EF1200E012A03FA0EFC28BF4CF0F6
:10036000020C43FA05F3C01851EBE37101F00045AC
:1003700007D54FF0000EDCF1000C7EEB00006EEBB9
:100380000101B1F5801F1BD3B1F5001F0CD3490843
:100390005FEA30004FEA3C0C04F101044FEA44529A
:1003A00012F5800F80F09A80BCF1004F08BF5FEA21
:1003B000500C50F1000041EB045141EA050130BD01
:1003C0005FEA4C0C404141EB0101013C28BFB1F513
:1003D000801FE9D291F0000F04BF01460020B1FA5E
:1003E00081F308BF2033A3F10B03B3F120020CDA31
:1003F0000C3208DD02F1140CC2F10C0201FA0CF00F
:1004000021FA02F10CE002F11402D8BFC2F1200C73
:1004100001FA02F120FA0CFCDCBF41EA0C01904029
:10042000E41AA2BF01EB0451294330BD6FEA040472
:100430001F3C1CDA0C340EDC04F11404C4F120025D
:1004400020FA04F001FA02F340EA030021FA04F36F
:1004500045EA030130BDC4F10C04C4F1200220FAC6
:1004600002F001FA04F340EA0300294630BD21FA04
:1004700004F0294630BD94F0000F83F4801306BFCA
:1004800081F480110134013D4EE77FEA645C18BFBE
:100490007FEA655C29D094EA050F08BF90EA020F55
:1004A00005D054EA000C04BF1946104630BD91EA4D
:1004B000030F1EBF0021002030BD5FEA545C05D150
:1004C0004000494128BF41F0004130BD14F580048F
:1004D0003CBF01F5801130BD01F0004545F0FE4103
:1004E00041F470014FF0000030BD7FEA645C1ABF38
:1004F000194610467FEA655C1CBF0B46024650EA6F
:10050000013406BF52EA033591EA030F41F400219A
:1005100030BD00BF90F0000F04BF0021704730B520
:100520004FF4806404F132044FF000054FF00001F5
:1005300050E700BF90F0000F04BF0021704730B5B6
:100540004FF4806404F1320410F0004548BF40428B
:100550004FF000013EE700BF42004FEAE2014FEAE0
:1005600031014FEA02701FBF12F07F4393F07F4FBB
:1005700081F06051704732F07F4208BF704793F0BE
:100580007F4F04BF41F40021704730B54FF46074D1
:1005900001F0004521F000411CE700BF50EA0102D4
:1005A00008BF704730B54FF000050AE050EA01027D
:1005B00008BF704730B511F0004502D5404261EBED
:1005C00041014FF4806404F132045FEA915C3FF42E
:1005D000D8AE4FF003025FEADC0C18BF03325FEACB
:1005E000DC0C18BF033202EBDC02C2F1200300FA7C
:1005F00003FC20FA02F001FA03FE40EA0E0021FAA1
:1006000002F11444BDE600BF70B54FF0FF0C4CF48E
:10061000E06C1CEA11541DBF1CEA135594EA0C0F40
:1006200095EA0C0F00F0DEF82C4481EA030621EA7B
:100630004C5123EA4C5350EA013518BF52EA0335B6
:1006400041F4801143F4801338D0A0FB02CE4FF068
:100650000005E1FB02E506F00042E0FB03E54FF098
:100660000006E1FB03569CF0000F18BF4EF0010E90
:10067000A4F1FF04B6F5007F64F5407404D25FEA8C
:100680004E0E6D4146EB060642EAC62141EA55513F
:100690004FEAC52040EA5E504FEACE2EB4F1FD0C81
:1006A00088BFBCF5E06F1ED8BEF1004F08BF5FEAFF
:1006B000500E50F1000041EB045170BD06F00046B1
:1006C00046EA010140EA020081EA0301B4EB5C045E
:1006D000C2BFD4EB0C0541EA045170BD41F4801156
:1006E0004FF0000E013C00F3AB8014F1360FDEBF7B
:1006F000002001F0004170BDC4F10004203C35DA57
:100700000C341BDC04F11404C4F1200500FA05F3D9
:1007100020FA04F001FA05F240EA020001F000427A
:1007200021F0004110EBD37021FA04F642EB0601F0
:100730005EEA430E08BF20EAD37070BDC4F10C041A
:10074000C4F1200500FA04F320FA05F001FA04F2DE
:1007500040EA020001F0004110EBD37041F10001CA
:100760005EEA430E08BF20EAD37070BDC4F12005D5
:1007700000FA05F24EEA020E20FA04F301FA05F23D
:1007800043EA020321FA04F001F0004121FA04F2E5
:1007900020EA020000EBD3705EEA430E08BF20EAB5
:1007A000D37070BD94F0000F0FD101F000464000EF
:1007B00041EB010111F4801F08BF013CF7D041EA71
:1007C000060195F0000F18BF704703F00046520075
:1007D00043EB030313F4801F08BF013DF7D043EA46
:1007E0000603704794EA0C0F0CEA135518BF95EAFC
:1007F0000C0F0CD050EA410618BF52EA4306D1D183
:1008000081EA030101F000414FF0000070BD50EAA1
:10081000410606BF1046194652EA430619D094EA2B
:100820000C0F02D150EA013613D195EA0C0F05D115
:1008300052EA03361CBF104619460AD181EA030169
:1008400001F0004141F0FE4141F470014FF0000021
:1008500070BD41F0FE4141F4780170BD70B54FF0BC
:10086000FF0C4CF4E06C1CEA11541DBF1CEA13553C
:1008700094EA0C0F95EA0C0F00F0A7F8A4EB05041E
:1008800081EA030E52EA03354FEA013100F0888015
:100890004FEA03334FF0805545EA131343EA1263DE
:1008A0004FEA022245EA111545EA10654FEA002693
:1008B0000EF000419D4208BF964244F1FD0404F54C
:1008C000407402D25B084FEA3202B61A65EB0305A8
:1008D0005B084FEA32024FF480104FF4002CB6EB65
:1008E000020E75EB030E22BFB61A754640EA0C00E5
:1008F0005B084FEA3202B6EB020E75EB030E22BF25
:10090000B61A754640EA5C005B084FEA3202B6EB65
:10091000020E75EB030E22BFB61A754640EA9C0024
:100920005B084FEA3202B6EB020E75EB030E22BFF4
:10093000B61A754640EADC0055EA060E18D04FEAB2
:10094000051545EA16754FEA06164FEAC30343EA52
:1009500052734FEAC2025FEA1C1CC0D111F4801F1F
:100960000BD141EA00014FF000004FF0004CB6E718
:1009700011F4801F04BF01430020B4F1FD0C88BFB7
:10098000BCF5E06F3FF6AFAEB5EB030C04BFB6EBC2
:10099000020C5FEA500C50F1000041EB045170BDB5
:1009A0000EF0004E4EEA113114EB5C04C2BFD4EBE2
:1009B0000C0541EA045170BD41F480114FF0000E66
:1009C000013C90E645EA060E8DE60CEA135594EAE2
:1009D0000C0F08BF95EA0C0F3FF43BAF94EA0C0FE5
:1009E0000AD150EA01347FF434AF95EA0C0F7FF45A
:1009F00025AF104619462CE795EA0C0F06D152EAAE
:100A000003353FF4FDAE1046194622E750EA410691
:100A100018BF52EA43067FF4C5AE50EA41047FF4A2
:100A20000DAF52EA43057FF4EBAE12E74FF0FF3C07
:100A300006E000BF4FF0010C02E000BF4FF0010CD8
:100A40004DF804CD4FEA410C7FEA6C5C4FEA430C51
:100A500018BF7FEA6C5C1BD001B050EA410C0CBFA0
:100A600052EA430C91EA030F02BF90EA020F002002
:100A7000704710F1000F91EA030F58BF994208BF69
:100A800090422CBFD8176FEAE37040F00100704726
:100A90004FEA410C7FEA6C5C02D150EA013C07D17D
:100AA0004FEA430C7FEA6C5CD6D152EA033CD3D0C8
:100AB0005DF8040B704700BF8446104662468C46C2
:100AC0001946634600E000BF01B5FFF7B7FF0028F5
:100AD00048BF10F1000F01BD4DF808EDFFF7F4FF1E
:100AE0000CBF012000205DF808FB00BF4DF808EDA9
:100AF000FFF7EAFF34BF012000205DF808FB00BFCC
:100B00004DF808EDFFF7E0FF94BF012000205DF8ED
:100B100008FB00BF4DF808EDFFF7CEFF94BF0120A2
:100B200000205DF808FB00BF4DF808EDFFF7C4FF9B
:100B300034BF012000205DF808FB00BF4FEA410CE4
:100B40007FEA6C5C02D150EA013C0AD14FEA430CC7
:100B50007FEA6C5C02D152EA033C02D14FF0000004
:100B600070474FF0010070474FEA410212F5001242
:100B700015D211D56FF47873B3EB625212D94FEAE4
:100B8000C12343F0004343EA505311F0004F23FACE
:100B900002F018BF404270474FF00000704750EA23
:100BA000013005D111F0004008BF6FF000407047E0
:100BB0004FF00000704700BF4A0011D212F500123A
:100BC00011D20DD56FF47873B3EB62520ED44FEAA5
:100BD000C12343F0004343EA505323FA02F0704725
:100BE0004FF00000704750EA013002D14FF0FF3063
:100BF00070474FF0000070474FEA4102B2F1E04306
:100C000024BFB3F5001CDCF1FE5C0DD901F0004CF3
:100C10004FEAC0024CEA5070B2F1004F40EB830043
:100C200008BF20F00100704711F0804F21D113F16F
:100C30003872BCBF01F00040704741F480114FEAA8
:100C40005252C2F11802C2F1200C10FA0CF320FA31
:100C500002F018BF40F001004FEAC1234FEAD3234E
:100C600003FA0CFC40EA0C0023FA02F34FEA4303B8
:100C7000CCE77FEA625307D150EA01331EBF4FF041
:100C8000FE4040F44000704701F0004040F0FE405C
:100C900040F40000704700BF53B94AB9002908BFAB
:100CA00000281CBF4FF0FF314FF0FF3000F0BEB9FD
:100CB000ADF1080C6DE904CE00F03CF8DDF804E07D
:100CC000DDE9022304B0704738B500220023044652
:100CD0000D46FFF70BFF28B920462946BDE83840EE
:100CE00000F00AB8204605F1004100F005F8404246
:100CF00061EB410138BD00BFD0B50C4B0022064668
:100D00000F46FFF781FCFFF757FF0446FFF702FC91
:100D1000074B0022FFF778FC02460B463046394667
:100D2000FFF7BAFAFFF748FF2146D0BD0000F03DBB
:100D30000000F0412DE9F047089D8E4604468846A4
:100D4000002B4AD18A42174662D9B2FA82F64EB1D6
:100D5000C6F1200301FA06F820FA03F3B74043EA8C
:100D60000808B4404FEA174E1FFA87FCB8FBFEF1A3
:100D7000230C0EFB118843EA084301FB0CF29A4254
:100D800009D9FB1801F1FF3080F0EA809A4240F265
:100D9000E78002393B449A1AA3B2B2FBFEF00EFB85
:100DA000102243EA024300FB0CFC9C4509D9FB18C6
:100DB00000F1FF3280F0D6809C4540F2D3803B4466
:100DC000023840EA0140A3EB0C0300211DB1F340BF
:100DD0000022C5E90032BDE8F0878B4205D90DB18C
:100DE000C5E9000100210846F5E7B3FA83F10029BF
:100DF00046D1734502D3824200F20581841A6EEB1C
:100E0000030201209046002DE5D0C5E90048E2E745
:100E1000002A00F09080B2FA82F6002E40F0A48002
:100E20008A1A030C4FEA174E80B2BCB20121B2FB02
:100E3000FEFC0EFB1C2243EA024304FB0CF29A4226
:100E400007D9FB180CF1FF3802D29A4200F2E08079
:100E5000C4469B1AB3FBFEF20EFB123340EA034377
:100E600002FB04F49C4207D9FB1802F1FF3002D2C6
:100E70009C4200F2CA8002461B1B42EA0C40A5E7D6
:100E8000C1F120068B4022FA06F71F430EFA01F447
:100E900020FA06F32EFA06FE4FEA1749234300FA1A
:100EA00001F81FFA87FCBEFBF9F01C0C09FB10EEE1
:100EB00044EA0E4400FB0CFEA64502FA01F209D9F1
:100EC0003C1900F1FF3A80F09C80A64540F29980E1
:100ED00002383C44A4EB0E041FFA83FEB4FBF9F382
:100EE00009FB13444EEA044403FB0CFCA44508D957
:100EF0003C1903F1FF3E80F08280A4457FD9023B7C
:100F00003C4443EA0040A4EB0C04A0FB02EC644523
:100F10007346E14662D35FD05DB1B8EB030264EB88
:100F2000090404FA06F622FA01F31E43CC40C5E98F
:100F3000006400214FE7B1FBF2FC010C41EA0E41D5
:100F400080B240EA01423B4638463C46B846BE467F
:100F50002026B1FBF7F1A2EB080241EA0C4166E75B
:100F6000014618E710462CE7C6F120022EFA02F3DC
:100F7000B740B14020FA02F24FEA174E0A43B3FBE2
:100F8000FEF8BCB20EFB1833110C41EA034108FB1A
:100F900004F9B04089454FEA104380B23ED9791830
:100FA00008F1FF3C01D289451FD8A1EB0901B1FB33
:100FB000FEF909FB04F80EFB191192B242EA014254
:100FC000424529D2BA1809F1FF31C4D24245C2D2F2
:100FD000A9F102013A44BEE7F0459DD2BEEB0203FF
:100FE0006CEB070C0138E14696E7A7EB0909494489
:100FF000A8F1020CB1FBFEF909FB04F8DBE773462C
:101000007FE7504666E70846FDE63B44023A33E791
:10101000ACF1020C3B441CE749469CE7A1EB0901FB
:10102000C446B1FBFEF909FB04F8C4E7704700BFF2
:1010300070B5FF23074D084E01441C46884202D17B
:1010400043EA042070BD10F8012B5A40AB5C6340AA
:10105000B45CF3E7A07D0008A07C000810B5642311
:101060001446054892B201F0CBFE00280CBF204682
:101070004FF0FF3010BD00BF24040020C37D1A07CD
:1010800054BFC3F3800303230B8070474389013BA4
:101090009BB240F2562293420BD8C0896FF49663FC
:1010A000184480B240F21E3398428CBF00200120C9
:1010B000704700207047000008B50178027E0F29B4
:1010C00000D122B1064803F02BF9002008BDC17DF4
:1010D0000F2903D9034803F023F9F6E70120F5E7C8
:1010E000A07E0008CE7E000838B50D4601780F2995
:1010F000044601D1037E13B1464803F011F9B4F858
:101100000130C3F30A032B80E378A2785B0143EA42
:10111000D203C3F30A036B802379E2789B0043EA8E
:101120009213627943EA8223C3F30A03AB80A37963
:101130006279DB0143EA5203C3F30A03EB80E379EC
:10114000A2791B0143EA1213C3F30A032B81237A0A
:10115000E2795B0043EAD213627A43EA4223C3F3A3
:101160000A036B81A37A627A9B0143EA9203C3F379
:101170000A03AB81E37AA27ADB0043EA5213EB81E4
:10118000A389C3F30A032B82A37B627B5B0143EA3F
:10119000D203C3F30A036B82E37BA27B9B0043EA87
:1011A0009213227C43EA8223C3F30A03AB82637C5B
:1011B000227CDB0143EA5203C3F30A03EB82A37CE4
:1011C000627C1B0143EA1213C3F30A032B83E37C03
:1011D000A27C5B0043EAD213227D43EA4223C3F39D
:1011E0000A036B83637D227D9B0143EA9203C3F371
:1011F0000A03AB83A37D627DDB0043EA5213EB83DA
:10120000E37D03F001032B84E37DC3F340036B8490
:1012100038BD00BFFE7E0008064B02681B689A427C
:1012200006D1054B01221A70044A1388013313803A
:10123000704700BF6804002018020020160200203A
:1012400070B5604B02681B689A4294B0044633D173
:101250005D4B5E4D1B780F2B02BF5D4B01221A7058
:101260002B68172B06DC5A4A12781AB101332B600F
:1012700014B070BD574E337863B9012351483370B1
:1012800001F013FE54494F48192214B0BDE87040D4
:1012900002F008B95048FFF70FFF002845D04F492A
:1012A0004D48FFF721FF4D484D49FFF7EFFE4D4BED
:1012B00018704948FFF7E2FE4B48226803689A42DB
:1012C000D6D14A4C2378AA2B27D16378552B3BD112
:1012D0000A231A46214601F093FD08212046FFF714
:1012E000A7FE434B434A1880238913809842424B00
:1012F00028D1424AA1781170414AE1781170414ADF
:1013000021791170404A61791170404AA1791170B8
:101310003F4AE179117001221A70344932480A2299
:1013200014B0BDE8704002F05AB8294B3070187004
:101330002860244801F0B9FD23492248012202F027
:10134000B1F8B9E70022E7E7AF2BE6D10821204644
:10135000FFF76EFE264B274A188023891380984298
:10136000DBD101AB1D4800211C4630F8022B1A705E
:101370000131120A12295A7003F10203F5D1242116
:101380002046FFF755FE4AF6AA73ADF82830054609
:1013900023460DF12A0209AE1C4603CCB44210606C
:1013A0005160234602F10802F6D12068106028221D
:1013B00014230DEB02010C48ADF84E5001F020FD56
:1013C000ABE700BF9C030020200200201C0200208D
:1013D0001A020020190200205E0200203A020020BA
:1013E00078020020F9010020E00300202F020020F5
:1013F000280200202A0200202E02002026020020BF
:1014000024020020250200202302002022020020C6
:101410002102002010B50B4C026823689A4210D1BB
:10142000204601F042FD084802F0E2FF0749012290
:10143000204602F037F820B1BDE81040044802F021
:10144000D7BF10BD9C030020197F00082002002098
:10145000577F000810B594B01422002109A803F0AA
:10146000C9F81422002103A803F0C4F800231E4A7F
:101470000193116C41F080511164126C02F08052A2
:101480000192019A194A0293116841F44041116096
:101490001268022402F440420820CDE90E43029271
:1014A0006423CDE91003029A089401211022042339
:1014B00008A8CDE90B121294139300F0FFFE08B1B7
:1014C00072B6FEE70F23CDE903344FF48053CDE924
:1014D00006300590032103A801F0CCF808B172B6DC
:1014E000FEE714B010BD00BF00380240007000409D
:1014F0002DE980488BB000F09DFBFFF7ABFF142275
:101500000024A74D00210DEB020003F073F80194B5
:101510002B6BA44843F001032B632B6B03F00103F7
:101520000193019B02942B6B43F002032B632B6B03
:1015300003F00203029322460221029B00F0B0FE58
:10154000224699484FF4004100F0AAFE01270223E9
:10155000944805A9CDE90537CDE9074400F0DAFD47
:101560004FF40043904805A9CDE90537CDE907447C
:1015700000F0D0FD00942B6B43F480032B632B6BA6
:101580008A4D03F480032246214600933920009BB4
:1015900000F08EFB392000F0BDFB224621463A20A8
:1015A00000F086FB3A2000F0B5FB2246214646209B
:1015B00000F07EFB462000F0ADFB7D4B2C614FF42C
:1015C000E1394FF00C082846C5E90039C5E9024465
:1015D000C5E90584EC6101F0E5FB08B172B6FEE7F0
:1015E000744C7549754B4FF4805BC4E900134FF49C
:1015F0000053C4E902B3C4E906004FF480632046F7
:10160000C4E9043801F0CEFB824608B172B6FEE7A9
:101610006B4E1022014605A802F0ECFF694AC6F89D
:1016200010A040F2E7333046CDE903AAC6E9002313
:10163000C6E902A3C6F818A001F0EAF908B172B62B
:10164000FEE705A93046CDF814B001F017FA08B14D
:1016500072B6FEE7CDE9030003A9304601F0A8FA0F
:10166000034608B172B6FEE75748584AC0E902334C
:10167000C0E90029C0E90438C0E9063301F092FB53
:1016800008B172B6FEE752490A22284601F0A7FEC9
:1016900050493A46204601F005FF10B14E4802F08D
:1016A000A7FE47484D4C404D01F09EF84C4802F0D3
:1016B0009FFE237803B9FEE746493E48012201F028
:1016C000F1FE484B484A03F11800114653F8046BE9
:1016D00042F8046B8342F9D11B781370434B1B789B
:1016E000002B47D04248434B027842B3424A12781B
:1016F0004FF4B467FF267A43B2FBF6F202F5887224
:101700001A803E4A12787A43B2FBF6F202F58872EA
:101710005A803B4A12787A43B2FBF6F202F588729D
:101720009A80384A12787A43B2FBF6F2364E02F5C6
:101730008872DA80328801323280002202701A8880
:1017400058884A70C2F3022242EAC0028A709A881C
:10175000DB88C0F34510C8709008C2F3802242EACB
:1017600043024A71294A08711289C3F3C31343EA39
:1017700002138B71264B1B782BB91B490D480A238A
:10178000192201F03DFB234A1388013313804FF4E3
:10179000004100232846237000F087FD89E700BF41
:1017A000003802400000024000040240E003002034
:1017B000004400409C03002000140140A08601006A
:1017C00068040020000400402404002000100140B0
:1017D0002F02002020020020957F00081802002020
:1017E000CB7F00085E020020FA010020F9010020F2
:1017F0002E020020000000202602002024020020EB
:1018000025020020230200202C0200203A020020A2
:10181000F80100201402002072B6FEE782B00C4BE3
:10182000002100915A6C42F480425A645A6C02F4CE
:1018300080420092009A01911A6C42F080521A6420
:101840001B6C03F080530193019B02B0704700BFF3
:101850000038024007B50F4B02689A4216D10022A9
:1018600003F50D330192196C41F0020119641B6CF0
:1018700003F00203019311461D20019B00F018FAAA
:101880001D2003B05DF804EB00F044BA03B05DF82E
:1018900004FB00BF0004004070B505468CB0142264
:1018A000002107A802F0A6FE2B686B4A93425FD185
:1018B0006A4B6B486B4C002601965A6C42F0100242
:1018C0005A645A6C02F010020192019A02961A6B45
:1018D00042F002021A631B6B03F002030293029BA5
:1018E0004FF0C00E0223CDE907E30322072307A927
:1018F000CDE90A2300F00EFC5B494FF00063C4E918
:1019000000134023C4E9023620464FF48063C4E943
:101910000436C4E90666C4E9086600F033FA08B183
:10192000FFF77AFF6C63DFF85CC1A5634F4C4FF0A3
:101930000063C4E900C34FF4806200232046C4E979
:101940000233C4E90423C4E90633C4E9083300F0D0
:1019500019FA08B1FFF760FF0022AC632520114699
:10196000A56300F0A5F9252000F0D4F90CB070BDF6
:101970003F4A934228D1394B3E48002403941A6CC5
:1019800042F400321A641A6C02F400320392039A91
:1019900004941A6B42F001021A631B6B03F00103FB
:1019A0000493049B0C250223CDE9075307A90723C1
:1019B0000326CDE90A6300F0ADFB2620224621462E
:1019C00000F076F92620CFE72B4A9342CED10026AD
:1019D000224B05965A6C2748284C42F020025A6444
:1019E0005A6C02F020020592059A06961A6B42F094
:1019F00001021A631B6B03F001030693069B4FF46D
:101A0000C0520223CDE9072303210823CDE90A139D
:101A100007A900F07FFB1A48A6614FF02063C4E9D4
:101A200000034FF48063C4E9043620464FF480730A
:101A3000C4E90266C4E90736666200F0A3F908B19A
:101A4000FFF7EAFE0022AC6347201146A56300F0D1
:101A50002FF9472088E700BF0010014000380240FE
:101A6000000402403C030020B8640240DC02002075
:101A70000044004000000240001401407C020020AD
:101A80002864024040640240FEE7FEE7FEE7FEE70E
:101A9000FEE770477047704700F0E6B8014800F075
:101AA000D9BE00BF68040020014801F037BB00BF69
:101AB00024040020014801F031BB00BFE0030020F6
:101AC000014800F067BA00BF7C020020014800F026
:101AD00061BA00BFDC020020014800F05BBA00BF21
:101AE0003C030020014801F019BB00BF9C0300200B
:101AF0000120704708B502F0CFFD162303604FF0B8
:101B0000FF3008BD08B502F0C7FD16230360FEE7ED
:101B100070B50D4614460E46731B9C4201DC2046F0
:101B200070BDAFF3008006F8010BF5E74FF0FF3012
:101B300070474FF400534B600020704701207047FE
:101B4000002070470B4A116810B5034609B90A49CD
:101B50001160106809490A4C0344091B8B4206D9DD
:101B600002F09AFD0C2303604FF0FF3010BD1360AC
:101B7000FCE700BFB004002008060020000002209F
:101B800000040000034AD2F8883043F47003C2F81E
:101B90008830704700ED00E0DFF834D00D480E4982
:101BA0000E4A002302E0D458C4500433C4188C42B7
:101BB000F9D30B4A0B4C002301E013600432A2421C
:101BC000FBD3FFF7DFFF02F06DFDFFF791FC7047DD
:101BD0000000022000000020DC0100203484000806
:101BE000DC01002004060020FEE7000038B50E4BA3
:101BF0001A784FF47A73B3FBF2F30C4A0546106877
:101C0000B0FBF3F000F094F8044658B90F2D09D852
:101C1000024629464FF0FF3000F04AF8044B2046B8
:101C20001D6038BD0120FCE70C00002008000020EA
:101C30001000002008B50B4B1A6842F400721A60BD
:101C40001A6842F480621A601A6842F480721A605C
:101C5000032000F01BF80F20FFF7C8FFFFF7DEFDA1
:101C6000002008BD003C0240034A044B11681B7869
:101C70000B441360704700BFB40400200C00002028
:101C8000014B1868704700BFB40400200749CA68B8
:101C900022F4E0620302120403F4E063120C134323
:101CA00043F0BF6343F40033CB60704700ED00E0C6
:101CB000164B30B5DC68C4F30224C4F10703251DBC
:101CC000042B28BF0423062D4FF0FF358CBF033CA7
:101CD000002405FA03F321EA0303A54022EA0502E2
:101CE000A340002843EA0203ACBF00F16040084A69
:101CF0004FEA0313B8BF00F00F00DBB2AABF00F534
:101D00006140135480F8003330BD00BF00ED00E0A7
:101D100014ED00E0002807DB4109044A00F01F0031
:101D20000123834042F82130704700BF00E100E00A
:101D30000138B0F1807F0BD24FF0E023054A5861A3
:101D4000F02182F823100020072298611A61704761
:101D50000120704700ED00E0036810B5084C024612
:101D6000D9B210391820B1FBF0F0205CD06523F413
:101D70007F7020F003005F2988BF0430906510BD9C
:101D8000CC81000870B50446FFF77AFF0546002CA9
:101D900060D0022384F835302268002384F8343080
:101DA000136823F00103136022681368D8072ED448
:101DB00013683248A1691840D4E901352B43E5681E
:101DC0002B4325692B4365692B43E5690B432B4363
:101DD000256A2B430343606A042802BFD4E90B56EB
:101DE00035432B4313605369042823F0070343EA68
:101DF000000335D1A06AE56A03438DB391B9012888
:101E000020D030F002012BD1E90129D51DE0FFF7E8
:101E100037FF401B0528C7D920230320636584F8BA
:101E2000350070BDB1F5005F16D1032818D801A1A7
:101E300051F820F04B1E0008091E00084B1E000838
:101E4000451E0008B5F1C07F0AD140236365012318
:101E500084F835300120E4E70228F6D90328D3D0EE
:101E600053612046FFF778FFE26D3F239340836084
:101E700000200123606584F83530D2E73F8010F000
:101E800070B590F83440866D012C30D0012480F874
:101E9000344090F83540012C4FF0000425D1022544
:101EA00080F8355044650468256825F48025256050
:101EB00063608368402B0EBFA260A160E260C26DC8
:101EC00008BFE1603F239340B360236843F01603EB
:101ED0002360036C1BB1236843F00803236023686D
:101EE00043F001032360002070BD80F834400220DD
:101EF000FAE770B50446866DFFF7C2FE94F83530F8
:101F0000022B054606D0802363650120002384F858
:101F1000343070BD23681A6822F016021A605A69BC
:101F200022F080025A61226C0AB9A26C1AB11A68B6
:101F300022F008021A601A6822F001021A6023686F
:101F4000186810F0010007D1E26D3F239340B360A1
:101F5000012384F83530D9E7FFF792FE401B0528AE
:101F6000EDD920230320636584F83500CEE790F88F
:101F70003530022B03D0802343650120704702686F
:101F8000052380F83530136823F001031360002027
:101F900070470000F7B5002301935C4B856D1F6807
:101FA000C36D2E6808229A40324204460CD0016864
:101FB0000868400708D5086820F004000860AA6097
:101FC000626D42F00102626501229A40324208D0FD
:101FD00021684969090641BFAA60626D42F00202A8
:101FE000626504229A40324208D021680968880755
:101FF00041BFAA60626D42F00402626510229A40FD
:10200000324210D02368196809070CD5AA601A68F3
:10201000500337D51B68190301D4236C00E0A36C6F
:102020000BB120469847E16D20228A4032423AD0D7
:1020300023681868C60636D5AA6094F83520052AA4
:102040001A6827D122F016021A605A6922F080021B
:102050005A61226C0AB9A26C1AB11A6822F00802FD
:102060001A603F238B40AB60012384F83530002396
:1020700084F83430236D002B45D0204603B0BDE8F2
:10208000F04018471A68D2055EBF1A6822F00802AD
:102090001A60C2E7500327D51B68190331D4636C5B
:1020A0000BB120469847636D6BB3636DDA0719D5A2
:1020B00022684FF41653B7FBF3F7052384F8353045
:1020C000136823F001031360019B0133BB420193AA
:1020D00002D81368DB07F7D4012384F835300023D6
:1020E00084F83430E36CC6E71A6812F4807208D1C1
:1020F000196821F010011960012384F8353084F843
:102100003420E36BCCE703B0F0BD00BF0800002033
:10211000406D70472DE9F74FDFF880915D4A00234D
:102120000D6801249C4004EA0506AC4340F0A380FE
:102130004D68032705F003044FEA430807FA08FC3B
:10214000671E012F6FEA0C0C34D8876807EA0C0E63
:10215000CF6807FA08F747EA0E078760476827EA5B
:10216000060EC5F300179F4047EA0E074760C76891
:1021700007EA0C0E8F6807FA08F747EA0E07022CE9
:10218000C76019D14FEAD30A00EB8A0A03F0070BA4
:10219000DAF820704FEA8B0B4FF00F0E0EFA0BFEA1
:1021A00027EA0E0E0F6907FA0BF747EA0E07CAF87F
:1021B000207001E0032CDAD1076804FA08F407EA7A
:1021C0000C073C4315F4403F046054D000240194B4
:1021D000D9F8444044F48044C9F84440D9F8444014
:1021E00023F0030707F1804704F4804407F59C3788
:1021F000019403F0030C019CD7F808E04FEA8C0C23
:102200000F2404FA0CF42EEA040E234CA04239D019
:1022100004F58064A04237D004F58064A04235D034
:1022200004F58064A04233D004F58064A04214BF5A
:102230000724042404FA0CF444EA0E04BC609468F5
:10224000F74315F4801F0CBF3C4034439460D468BE
:1022500015F4001F0CBF3C403443D460546815F49F
:10226000003F0CBF3C40344354601468ED0354BF3E
:102270003C40344314600133102B7FF451AF03B062
:10228000BDE8F08F0024D5E70124D3E70224D1E78D
:102290000324CFE7003C0140000002400038024028
:1022A0000AB1816170470904FBE7436901EA03024F
:1022B00021EA030141EA0241816170472DE9F341BE
:1022C000044640B30368DE0710D423689D075BD43F
:1022D0002368190700F19D8023685A0700F1BD802B
:1022E000A369002B40F0248100202CE08D4B9A68DC
:1022F00002F00C02042A07D09A6802F00C02082AA5
:102300000BD15B68590208D5864B1B689A03DCD554
:102310006368002BD9D1012015E06368814DB3F5C6
:10232000803F13D12B6843F480332B60FFF7A8FC68
:102330007C4E054633689B03C7D4FFF7A1FC401BC6
:102340006428F7D9032002B0BDE8F081B3F5A02FCF
:1023500004D12B6843F480232B60E3E72A6822F43E
:1023600080322A602A6822F480222A60002BDDD184
:10237000FFF786FC06462B689F03A6D5FFF780FC77
:10238000801B6428F7D9DDE7664B9A6812F00C0FC2
:1023900007D09A6802F00C02082A11D15B685D022E
:1023A0000ED4604A1368990702D5E368012BB2D1B5
:1023B0001368216923F0F80343EAC103136087E738
:1023C000E268594BB2B101221A60FFF759FC554D32
:1023D00006462B689B0707D52B68226923F0F80374
:1023E00043EAC2032B6073E7FFF74AFC801B022815
:1023F000EFD9A7E71A60FFF743FC4A4E054633685A
:102400009F077FF565AFFFF73BFC401B0228F6D91D
:1024100098E76269444B82B10122C3F8802EFFF72E
:102420002FFC404E0546736F9B073FF555AFFFF7F6
:1024300027FC401B0228F6D984E7C3F8802EFFF75B
:102440001FFC384E0546736F9F077FF545AFFFF7BA
:1024500017FC401B0228F6D974E7324B1A6C12F0B5
:10246000805228D101921A6C42F080521A641B6C7F
:1024700003F080530193019B01272C4D2B68D80555
:102480001BD5A368274D012B27D12B6F43F00103E8
:102490002B67FFF7F5FB234E054641F28838336F73
:1024A0009A0739D5002F3FF41BAF1E4A136C23F057
:1024B0008053136414E70027DFE72B6843F480732D
:1024C0002B60FFF7DDFB06462B68D905D9D4FFF753
:1024D000D7FB801B0228F7D934E7052B04D12B6FDB
:1024E00043F004032B67D0E72A6F22F001022A672A
:1024F0002A6F22F004022A67002BCAD1FFF7C0FB23
:1025000041F2883806462B6F9B07CBD5FFF7B8FB07
:10251000801B4045F7D915E7FFF7B2FB401B40454C
:10252000BDD90FE70038024000004742007000406C
:10253000374DAA6802F00C02082A3ED0022B354B18
:102540004FF000021A662BD1FFF79AFB06462B6864
:1025500099011FD4D4E907321343626A43EA821314
:10256000E26A43EA0263A26A5208013A43EA02437A
:102570006B60284B264D01221A66FFF781FB04464B
:102580002B689A013FF5B0AEFFF77AFB001B0228DB
:10259000F6D9D7E6FFF774FB801B0228D7D9D1E61E
:1025A000FFF76EFB04462B689B017FF59DAEFFF79E
:1025B00067FB001B0228F6D9C4E6012B3FF4ABAE43
:1025C0006B68E26903F4800191427FF4A4AE216A52
:1025D00003F03F028A427FF49EAE616A47F6C07202
:1025E0001A40B2EB811F7FF496AEA26A520803F440
:1025F0004031013AB1EB024F7FF48DAEE26A03F055
:102600007063B3EB026F14BF012000209BE600BF94
:102610000038024000004742134908B58B6803F0B8
:102620000C03042B1CD0082B1CD14A684B6849684A
:1026300013F4800314BF0D480D48C1F3881118BF6F
:10264000002302F03F02A1FB0001FEF725FB064B31
:102650005B68C3F3014301335B00B0FBF3F008BDDB
:102660000248FCE70248FAE70038024040787D0162
:102670000024F4002DE9F0410D46044610B9012074
:10268000BDE8F081434B1A6802F007028A4228D362
:1026900021688F072DD4C80740D43E4B1A6802F03A
:1026A0000702AA4265D8226851076BD4130707D5E1
:1026B000394A2169936823F4604343EAC103936074
:1026C000FFF7AAFF344B354A9B68C3F30313D35C6F
:1026D000D840334B1860334B1868FFF787FA002057
:1026E000CEE7CAB21A701B6803F007038B42C6D14B
:1026F000CEE7294B11F0040F1EBF9A6842F4E05256
:102700009A600E0742BF9A6842F460429A609A68E3
:10271000A06822F0F00202439A60BCE762681E4B98
:10272000012A1CD11B6813F4003FA8D01A4EB368CD
:1027300023F003031343B360FFF7A2FA41F2883892
:102740000746B368626803F00C03B3EB820FA4D0B2
:10275000FFF796FAC01B4045F3D9032090E7911E7E
:1027600001291B6802D813F0007FDEE713F0020F87
:10277000DBE7EAB21A701B6803F00703AB427FF491
:102780007EAF90E70449E0688B6823F4E05303438D
:102790008B608BE7003C024000380240BC8100089F
:1027A0000800002010000020044B054A9B68C3F37A
:1027B0008223D35C034A1068D84070470038024037
:1027C000B481000808000020044B054A9B68C3F34D
:1027D0004233D35C034A1068D84070470038024047
:1027E000B48100080800002090F83D30012B28D16A
:1027F000022380F83D300368DA6842F00102DA60B3
:10280000114A934212D0B3F1804F0FD0A2F57C420F
:1028100093420BD002F58062934207D002F58062AA
:10282000934203D002F59A32934204D19A6802F09F
:102830000702062A03D01A6842F001021A6000203B
:1028400070470120704700BF00000140704770478B
:102850007047704703681A69910710B504460ED592
:10286000DA6892070BD56FF002021A610122027733
:102870009B699B0777D0FFF7EAFF00232377236844
:102880001A69500710D5DA6851070DD56FF00402A8
:102890001A61022222779B6913F4407F204668D098
:1028A000FFF7D5FF0023237723681A6912070FD596
:1028B000DA6810070CD56FF008021A61042222773B
:1028C000DB69990720465AD0FFF7C1FF0023237721
:1028D00023681A69D20610D5DA68D0060DD56FF0D4
:1028E00010021A6108222277DB6913F4407F204628
:1028F0004BD0FFF7ACFF0023237723681A69D10779
:1029000008D5DA68D20705D56FF001021A612046B2
:10291000FEF782FC23681A69100608D5DA681106EA
:1029200005D56FF080021A61204600F078F923681F
:102930001A69520608D5DA68500605D56FF04002CC
:102940001A612046FFF785FF23681A69910622D590
:10295000DA6892061FD56FF0200220461A61BDE8A2
:10296000104000F05BB9FFF771FF2046FFF770FFE2
:1029700083E7FFF76BFF2046FFF76AFF92E7FFF759
:1029800065FF2046FFF764FFA0E7FFF75FFF2046E3
:10299000FFF75EFFAFE710BD1B4A036890420ED001
:1029A000B0F1804F0BD0A2F57C42904207D002F5E7
:1029B0008062904203D002F58062904208D14A685A
:1029C00023F070031343CA6823F4407313430AE0EF
:1029D0000E4A9042F7D002F580629042F3D002F5A1
:1029E00080629042EFD04A6923F080031343036072
:1029F0008B68C3620B688362034B984204BF0B6908
:102A0000036301234361704700000140004001401F
:102A100010B5044630B390F83D3003F0FF021BB907
:102A200080F83C20FEF716FF0223206884F83D3032
:102A3000211DFFF7B1FF012384F84630002084F800
:102A40003E3084F83F3084F8403084F8413084F8D8
:102A5000423084F8433084F8443084F8453084F8B8
:102A60003D3010BD0120FCE710B584680A4324F412
:102A70007F4442EA03222243826010BD38B590F8B9
:102A80003C30012B04464FF0020000F08E8084F8A9
:102A90003D000122206884F83C20836823F47F43B2
:102AA00023F0770383600B68602B4FD032D8402B24
:102AB00064D016D8202B0DD00AD833F0100109D0DD
:102AC000012384F83D30002384F83C30104638BDA3
:102AD000302BF5D1826822F07002134343F00703D4
:102AE00028E0502BECD14A68CD68016A036A23F0D4
:102AF00001030362836921F00A0123F0F00343EA32
:102B000005130A4383610262836823F0700343F074
:102B100057030FE0B3F5805F0DD0B3F5005F0CD025
:102B2000702BCDD1CB68D1E90121FFF79DFF8368E0
:102B300043F0770383600022C2E7CB68D1E901212B
:102B4000FFF792FF836843F48043F3E7036A4D681D
:102B5000C96823F0100303628269036A22F4704299
:102B600023F0A00343EA051342EA013282610362C3
:102B7000836823F0700343F06703DBE74A68CD689E
:102B8000016A036A23F001030362836921F00A01E9
:102B900023F0F00343EA05130A438361026283686A
:102BA00023F0700343F04703C4E702468EE70000BA
:102BB00030B590F83C30012B02464FF002002AD08D
:102BC000136882F83D005C680D68986824F0700412
:102BD0002C435C60104CA34212D0B3F1804F0FD055
:102BE000A4F57C44A3420BD004F58064A34207D033
:102BF00004F58064A34203D004F59A34A34204D1BF
:102C0000496820F08000014399600123002082F888
:102C10003D3082F83C0030BD0000014070477047F5
:102C2000026802F10C0353E8003F23F490730C3266
:102C300042E8003102680029F2D102F1140353E89E
:102C4000003F23F0010302F1140C4CE8003100298D
:102C5000F3D1036B012B0BD102F10C0353E8003FBE
:102C600023F0100302F10C0C4CE800310029F3D1E1
:102C7000202380F83E300023036370470268C16858
:102C800038B5136923F440530B4313610546836839
:102C90000069D168034368690343E86921F4164178
:102CA00021F00C0103430B43D3605369A96923F45A
:102CB00040730B4353611F4B9A4203D003F580636B
:102CC0009A4224D1FFF780FDEA691921B2F5004F3D
:102CD000D5E90043A0FB01011CD1DA184FF0000533
:102CE00045EB0503FDF7D8FF6422B0FBF2F102FBD0
:102CF0001103DB003233B3FBF2F303F007025B0096
:102D000002EB011203F4F8731344A36038BDFFF71C
:102D10004BFDD9E79A009B0FFDF7BEFF6422B0FB85
:102D2000F2F102FB11031B013233B3FBF2F303EBAD
:102D30000113EAE700100140F8B504460E461746B5
:102D40001D462268136836EA030301D1002028E0FB
:102D50006B1CF7D025B1FEF793FFC01B8542F0D264
:102D6000226802F10C0353E8003F23F4D0730C32C5
:102D700042E8003021680028F2D101F1140353E841
:102D8000003F23F0010301F1140040E80032002A63
:102D9000F3D1202384F83D3084F83C2084F83E3081
:102DA0000320F8BD10B5044640B390F83D3003F061
:102DB000FF021BB980F83C20FEF76EFD2268242339
:102DC00084F83D30D36823F40053D3602046FFF7E6
:102DD00055FF23681A6922F490421A615A6922F059
:102DE0002A025A61DA6842F40052DA600020202395
:102DF000206484F83D3084F83E3010BD0120FCE7AB
:102E00002DE9F843984690F83D30202B04460E46B5
:102E1000174648D1002944D0002A42D090F83C30CF
:102E2000012B40D0012380F83C300025212305648C
:102E300080F83D30FEF724FFA368A784B3F5805FD8
:102E40008146E78403D123690BB935461E4600232A
:102E500084F83C30E38C9BB253B943464A46402148
:102E60002046FFF769FF50B9202384F83D3007E082
:102E700043464A4680212046FFF75EFF10B10320FB
:102E8000BDE8F88322684EB935F8023BC3F3080366
:102E90005360E18C013989B2E184DBE716F8013B2C
:102EA000F6E70120ECE70220EAE710B504462268C5
:102EB00002F10C0353E8003F23F490730C3242E814
:102EC000003123680029F2D103F1140252E8002FE7
:102ED00022F0010203F1140040E800210029F3D19F
:102EE000226B012A0BD103F10C0252E8002F22F0D1
:102EF000100203F10C0040E800210029F3D15A69C7
:102F000052061AD503F1140252E8002F22F04002B3
:102F100003F1140040E800210029F3D1A06B60B157
:102F20000165FEF7E6FF40B1A06BFFF7F1F820283E
:102F300003D110232364032010BD00202023E0854B
:102F400084F83E302063F7E77047704708B5806B20
:102F500003685A6990F83D10212912D1120610D544
:102F60000022C28403F10C0252E8002F22F0C002BA
:102F700003F10C0C4CE800210029F3D1202280F849
:102F80003D205B6990F83E20222A05D15B0603D5DF
:102F90000023C385FFF744FE036C43F01003036472
:102FA000FEF738FA08BD08B5806B0023C385C384DB
:102FB000FEF730FA08BD7047806B08B5036B012B34
:102FC00004D1818D4908FFF7F6FF08BDFFF7BDFF6B
:102FD000FBE708B50346806B1B681B6813F480731E
:102FE00037D1C385026802F10C0353E8003F23F494
:102FF00080730C3242E8003103680029F2D103F1FA
:10300000140252E8002F22F0010203F1140C4CE8E4
:1030100000210029F3D103F1140252E8002F22F01D
:10302000400203F1140C4CE800210029F3D12022C6
:1030300080F83E20026B012A0BD103F10C0252E80A
:10304000002F22F0100203F10C0C4CE800210029A3
:10305000F3D1036B012B03D1818DFFF7ACFF08BDCA
:10306000FEF7EEF8FBE790F83E30222B07B541D192
:1030700081680268836AB1F5805F3ED101690029E9
:103080003ED15268C2F3080223F8022B8362C38D3B
:10309000013B9BB2C385002B2CD10268D16821F083
:1030A0002001D160D16821F48071D160516921F093
:1030B00001015161202280F83E20026B012A026842
:1030C00028D1036302F10C0353E8003F23F01003FF
:1030D00002F10C0C4CE800310029F3D11368DB0637
:1030E00005D501911368019353680193019B818D6C
:1030F000FFF761FF03B05DF804FB39B9016929B935
:103100005268D2B21A70836A0133BFE7526802F084
:103110007F02F7E7FEF794F8ECE7000003681A680F
:1031200073B51607D9685D69044608D1960668D557
:103130008D0666D502B0BDE87040FFF794BF05F07C
:10314000010001F4907505435BD0D60705D5CD0588
:1031500042BF236C43F001032364530704D518B125
:10316000236C43F002032364960704D518B1236C43
:1031700043F004032364150707D501F0200303433C
:103180001EBF236C43F008032364236C002B32D052
:10319000920604D58B0602D52046FFF764FF266809
:1031A0007369226C03F0400302F0080253EA02053F
:1031B000204622D0FFF734FD73695E0618D52268D9
:1031C00002F1140353E8003F23F04003143242E8B5
:1031D00000310029F3D1A06B50B1724B0365FEF7AB
:1031E000C6FE40B1A06B036D02B0BDE87040184749
:1031F0002046FEF70FF902B070BDFEF70BF925640B
:10320000F9E7206B012840F09180D50640F18E80CF
:10321000C80640F18B80002201921A6801925A6818
:103220000192019A5A6952064CD5A16B0A685268FC
:1032300092B2002ADFD0A08D9042DCD9E285CA6923
:10324000B2F5807F36D003F10C0252E8002F22F451
:10325000807203F10C0040E800210029F3D103F152
:10326000140252E8002F22F0010203F1140040E89A
:1032700000210029F3D103F1140252E8002F22F0BB
:10328000400203F1140040E800210029F3D120227C
:1032900084F83E20216303F10C0252E8002F22F053
:1032A000100203F10C0040E800210029F3D1A06BCB
:1032B000FEF71FFEE38DA18DC91A89B22046FFF7E4
:1032C0007AFE98E7E28DE08DA18D80B292B200285F
:1032D00091D0891A89B200298DD003F10C0252E8ED
:1032E000002F22F4907203F10C0545E8002000281D
:1032F000F3D103F1140252E8002F22F0010203F18E
:10330000140545E800200028F3D1202284F83E204F
:10331000206303F10C0252E8002F22F0100203F1A7
:103320000C0545E800200028F3D1C7E7160628D58C
:103330000D0626D594F83D20212A7FF45CAFA168C4
:10334000226AB1F5805F17D12169A9B932F8021B51
:10335000C1F3080159602262E28C013A92B2E28420
:10336000002A7FF448AFDA6822F08002DA60DA6877
:1033700042F04002DA603EE7511C216212785A6046
:10338000EAE750067FF537AF4A067FF534AFDA68D3
:1033900022F04002DA60202384F83D302046FFF717
:1033A000D3FD28E7A72F0008C285002382852222AB
:1033B000036480F83E20026980F83C308162036833
:1033C0001AB1DA6842F48072DA605A6942F0010296
:1033D0005A61DA6842F02002DA600020704770B467
:1033E00090F83E60202E0DD149B142B190F83C409A
:1033F000012C07D00024046370BCFFF7D5BF012067
:1034000070BC70470220FBE773B513460025828528
:10341000222204460564816280F83E20806B1E4AA9
:10342000C2631E4A266802641D4AC0E913250A4683
:10343000311DFEF725FD236801951A6801925A682F
:103440000192019A226984F83C505AB103F10C02AE
:1034500052E8002F42F4807203F10C0040E8002192
:103460000029F3D103F1140252E8002F42F00102C7
:1034700003F1140040E800210029F3D103F1140204
:1034800052E8002F42F0400203F1140141E800200D
:103490000028F3D102B070BDD32F0008B92F000867
:1034A0004D2F000870B490F83E60202E10D161B10D
:1034B0005AB190F83C40012C0AD0012480F83C40DD
:1034C0000024046370BCFFF79FBF012070BC7047ED
:1034D0000220FBE72DE9FF4757EC106B002F0C464D
:1034E00019463B46BBBF07F100431F4600232D236F
:1034F0000B700D9BDDF830A0914623F02008BCBF77
:1035000032461646B8F1460F05D0B8F1450F00D146
:103510000134022100E0032103AB019302AB0093CD
:1035200047EC106B5346224601F072F9B8F1470F91
:10353000054619D119F0010F0ED000EB0409002245
:10354000002330463946FDF7C7FA08B1CDF80C9094
:103550003022039B4B451ED3039B0E9A5B1B2846D0
:10356000136004B0BDE8F087B8F1460F00EB040922
:10357000E5D10378302B0AD10022002330463946AA
:10358000FDF7AAFA18B9C4F10104CAF80040DAF844
:1035900000309944D3E7591C03911A70D9E7F7B565
:1035A0000029BABF49422D232B23092902704370F9
:1035B00029DD0DF107031D460A271A46B1FBF7F670
:1035C00007FB1614303402F8014C0C46632C03F14F
:1035D000FF333146F1DC3031941E03F8011C411CED
:1035E0002346AB420AD30DF109039B1AAC4288BFB4
:1035F000002302330344181A03B0F0BD13F8016B23
:1036000001F8016FEDE7302330318370C170031D85
:10361000F1E700002DE9F04F8DB00C46DDF8588041
:1036200016461F46054600F0EDFF03680493184652
:10363000FCF726FE00230A93D8F8003005900733E4
:1036400023F0070303F1080294F818A0D4F800B09F
:10365000C8F80020D3E9008929F000430793CDF88A
:103660001880C4E91289DDE906019C4B4FF0FF3256
:10367000FDF764FA70BBDDE90601984B4FF0FF32AD
:10368000FDF73EFA30BB0022002340464946FDF7D5
:103690002DFA10B12D2384F84330914A914BBAF1A1
:1036A000470F8CBF90469846032323612BF00403F9
:1036B00023604FF00009009733460BAA21462846A5
:1036C00000F0D2F9013040F08D804FF0FF300DB0A6
:1036D000BDE8F08F42464B4640464946FDF72EFA7C
:1036E00040B14B46002BBCBF2D2384F843307E4AAB
:1036F0007E4BD4E763680AF0DF0206925A1C3BD186
:10370000062363604BF480620023226003930AABBC
:10371000CDE901A309AB0093616849EC108B0DF171
:1037200023032846FFF7D6FE069B0999472B8046C0
:1037300029D1C81C02DB6368994241DDAAF1020A63
:103740005FFA8AFA0139524604F150000991FFF7F5
:1037500026FF0A9A1318012A8146236102DC226897
:10376000D20701D5013323619DF82330002BA2D06D
:103770002D2384F843309EE7069A472AC2D1002BB6
:10378000C0D10123BDE7BAF1650FDBD9BAF1660FED
:1037900018D1002963680BDD216113B92268D007B5
:1037A00002D501330B442361A1654FF00009DBE72B
:1037B00013B92268D20701D50233F4E70123F2E7F7
:1037C0004FF0670A0A9B994205DB23682161D807FD
:1037D000EAD54B1CE7E70029D4BFC1F10202012260
:1037E0001344E0E723685A0507D42369424631466B
:1037F0002846B84701302BD167E7BAF1650F40F290
:10380000DD80D4E9120100220023FDF765F90028CC
:1038100033D0374A012331462846B84701303FF4B8
:1038200054AFDDE90938434502DB2368D8070FD5DB
:10383000DDE9042331462846B84701303FF445AF5F
:103840004FF0000908F1FF3804F11A0AC84509DCF5
:1038500023689B0700F10381E0680B9B9842B8BF87
:10386000184634E70123524631462846B84701300E
:103870003FF42BAF09F10109E8E7099B002B39DC84
:103880001B4A012331462846B84701303FF41DAF9B
:10389000DDE9093959EA030302D12368D907D7D5ED
:1038A000DDE9042331462846B84701303FF40DAF27
:1038B0004FF0000A04F11A0B099B5B42534501DCEF
:1038C0004B4693E701235A4631462846B847013014
:1038D0003FF4FBAE0AF1010AEEE700BFFFFFEF7F06
:1038E000E27F0008DE7F0008EA7F0008E67F00082C
:1038F000EE7F0008A36DDDF828A05345A8BF53460E
:10390000002B994636DC4FF0000B29EAE97904F1E7
:103910001A02A36D0693A3EB09035B4531DC099BF7
:103920009A453ADC2368DA0737D4099BAAEB0309E6
:10393000069BAAEB03039945A8BF9946B9F1000F6E
:1039400033DC4FF0000829EAE97904F11A0B099BEE
:10395000AAEB0303A3EB090343457FF779AF0123E8
:103960005A4631462846B84701303FF4AEAE08F11A
:103970000108ECE7424631462846B8470130C2D13B
:10398000A3E60123314628460692B84701303FF4AA
:103990009CAE069A0BF1010BBBE7DDE9042331462F
:1039A0002846B8470130C0D18FE6069A4B464244BC
:1039B00031462846B8470130C3D186E6DDF828A055
:1039C000BAF1010F01DCDB0736D50123424631464F
:1039D0002846B84701303FF478AEDDE9042331468C
:1039E0002846B84701303FF470AED4E912010022F6
:1039F00000230AF1FF3AFDF76FF8C0B9534608F10A
:103A0000010231462846B84701300CD15DE601235A
:103A10005A4631462846B84701303FF456AE08F1C1
:103A20000108D045F3DB4B4604F15002DFE64FF0CE
:103A3000000804F11A0BF4E701234246E1E70123F1
:103A40004A4631462846B84701303FF43EAE08F1B9
:103A50000108E3680B995B1A4345F0DCFCE64FF084
:103A6000000804F11909F4E72DE9F04716469846D5
:103A70008A680B69DDF820909342B8BF1346336023
:103A800091F8432007460C460AB10133336023689E
:103A9000990642BF336802333360256815F0060586
:103AA00006D104F1190AE36832689B1AAB4226DC9E
:103AB00094F843302268003B18BF012392062BD4B0
:103AC00004F1430241463846C84701301ED02368FE
:103AD000226903F00603042B02BFE5683368ED1A80
:103AE000A3680CBF25EAE57500259342C4BF9B1A65
:103AF000ED1800261A34B5421AD1002008E001233F
:103B0000524641463846C847013003D14FF0FF3096
:103B1000BDE8F0870135C6E7E1185A1C302081F86E
:103B20004300224494F8451082F843100233C7E75B
:103B30000123224641463846C8470130E6D00136C7
:103B4000D9E700002DE9FF470F7E0C9E782F9146A4
:103B500080460C469A4601F1430207D8622F0AD8E4
:103B6000002F00F0D180582F00F0B88004F14206F9
:103B700084F842703AE0A7F16303152BF6D801A14F
:103B800051F823F0DD3B0008F13B00086D3B0008D5
:103B90006D3B00086D3B00086D3B0008F13B0008E1
:103BA0006D3B00086D3B00086D3B00086D3B000855
:103BB000EF3C00081B3C0008A93C00086D3B0008D6
:103BC0006D3B0008113D00086D3B00081B3C0008E0
:103BD0006D3B00086D3B0008B13C000833681A1DBE
:103BE0001B68326004F1420684F8423001239CE0F5
:103BF00033682068191D3160060601D51D6803E091
:103C00004506FBD5B3F90050002D03DA2D236D4294
:103C100084F8433058480A2311E0216833680806C5
:103C200053F8045B02D4490648BFADB26F2F524827
:103C3000336014BF0A230823002184F84310666808
:103C4000A660002E05DB21682E4321F004012160CF
:103C50004BD01646B5FBF3F103FB1157C75D06F8D1
:103C6000017D2F46BB420D46F4D9082B0BD12368AA
:103C7000DF0708D5236961689942DEBF302306F863
:103C8000013C06F1FF36921B2261CDF800A04B46A5
:103C900003AA21464046FFF7E7FE01304AD14FF024
:103CA000FF3004B0BDE8F087236843F020032360B1
:103CB0003248782784F84570236831681F0651F828
:103CC000045B02D45F0648BFADB23160D90744BF80
:103CD00043F0200323601DB11023ADE72648E9E738
:103CE000236823F020032360F6E71646BDE7336818
:103CF00025686169181D30602E061B6801D51960A2
:103D000002E06806FBD51980002323611646BCE754
:103D100033681A1D32601E68626800213046FCF765
:103D20005FFA08B1801B606063682361002384F838
:103D30004330AAE72369324649464046D04701301E
:103D4000ADD023689B0713D4E068039B9842B8BFAB
:103D50001846A6E70123324649464046D04701307F
:103D60009DD00135E36803995B1AAB42F2DCEBE7C7
:103D7000002504F11906F5E7F07F0008018000082E
:103D80002DE9F04F87B0914603938B685A1EB2F528
:103D9000AE7F81BF6FF4AE7503EB050B40F25D1390
:103DA0008B600B680A464FF0000543F4F06342F85D
:103DB0001C3BCDE9045580460C4698BF4FF0000BE4
:103DC00001921646AA462F460295A2685AB1D9F822
:103DD00000301B784E2B63D8402B3BD8A3F12B012E
:103DE000C8B20E2839D91FB1236823F48073236029
:103DF0000AF1FF3ABAF1010F00F21481019B9E42D1
:103E000000F20581012007B0BDE8F08FA3F1610247
:103E10000D2AE8D801A151F822F000BF653F000843
:103E2000E73D0008E73D0008E73D0008C13F000806
:103E30009B3F0008E73D0008E73D0008733F00088E
:103E4000E73D0008E73D0008E73D0008E73D0008C2
:103E50002F3F0008A3F14102DAE70E29C3D801A0E1
:103E600050F821F01F3F0008E73D00081F3F000801
:103E7000AF3F0008E73D0008C13E0008053F0008CD
:103E8000053F0008053F0008053F0008053F000802
:103E9000053F0008053F0008053F0008053F0008F2
:103EA0006E2B09D8602BB1D8542B7BD0592B9AD1CB
:103EB000072D98D108252FE0742B73D0792BF6E7C6
:103EC0002168C8051ED521F0800121600137BBF1B2
:103ED000000F03D001320BF1FF3BA260A368013B4E
:103EE000A360236901332361D9F80430013B002B1F
:103EF000C9F8043040F38280D9F800300133C9F8A2
:103F0000003062E71AEB05017FF46DAF226822F4FE
:103F1000C07222600D468A4606F8013BDEE7226841
:103F200010067FF560AF22F080022260F4E7BAF15C
:103F3000000F0CD177B9226802F4E061B1F5E06FAF
:103F400008D122F4F06222604FF0010AE4E7BAF1EE
:103F5000020F50D0012D02D0042D7FF444AF013563
:103F6000EDB2D9E7BAF1010F7FF43DAF4FF0020A8D
:103F7000D2E775B9002F7FF437AF226802F4E06111
:103F8000B1F5E06F40F0038122F4F0622260012578
:103F9000C2E7032DE3D0052DDFE7022D7FF423AF29
:103FA0000325B9E7062D7FF41EAF0725B4E7226885
:103FB00091057FF518AF22F4207222600297ABE7DB
:103FC000226802F4A061B1F5806F05D050057FF53D
:103FD0000AAF002F00F0DB80910558BF029922F450
:103FE000F06258BF791A42F4C07258BFCDE9041686
:103FF0002260002790E74FF0030A8DE7D4F8803164
:1040000049464046984700283FF4DFAEEBE6D4F837
:104010007C3116F8011D4A46404698472369013B0A
:104020002361EBE66B1E062B24D8022D36D8019BAC
:104030009E427FF6E7AED4F87C3116F8011D4A4661
:10404000404698472369013B2361F0E7D4F87C316F
:104050001BF8011D4A46404698472369013B2361EE
:104060000AF1FF3A5FFA8AFABAF1020FEED1033D84
:10407000EDB2761B2368DA0530D55B0511D5019BBF
:104080009E427FF6BFAED4F87C3116F8011D4A4639
:10409000404698472369013B2361F0E7AA46B346AF
:1040A000DEE716F8011C2369652903F1FF3306F1E9
:1040B000FF3523610CD045290AD0D4F87C314A461B
:1040C00040469847236916F8021C013BB51E236140
:1040D000D4F87C314A46404698472E46226812F072
:1040E000100201D000208EE63270236803F4C06312
:1040F000B3F5806F25D1029B9F420AD0DA1B04F2F0
:104100006F139E4228BF04F5B7762249304600F06F
:1041100077F901990022404602F0F6FC039B2168E2
:104120001B6811F0020F57EC106B03F1040215D05D
:1041300003990A601B68C3E90067E3680133E36021
:10414000D0E7049B002BE4D005990A2301314046B7
:1041500002F05AFD049B059EC21AD0E711F0040F2D
:1041600003990A60E6D11D6832463B46304639461F
:10417000FCF7E4FC28B1084800F0BCFA85ED000A21
:10418000DBE730463946FCF737FD2860D5E70027E6
:104190002EE600BF12800008187F0008002310B52B
:1041A0000446C0E90033C0E904338360818143667B
:1041B000C2818361194608225C3000F01BFA0D4B66
:1041C00063620D4BA3620D4BE3620D4B23630D4BFA
:1041D00024629C4206D003F16802944202D0D0339C
:1041E0009C4205D104F15800BDE8104000F07EBAB1
:1041F00010BD00BF45440008674400089F44000804
:10420000C3440008B8040020024A0349034800F0F0
:1042100069B800BF14000020497200082400002083
:1042200041680C4B994210B5044601D003F00CF8DC
:10423000A168094B994202D0204603F005F8E168D5
:10424000064B994204D02046BDE8104002F0FCBF66
:1042500010BD00BFB8040020200500208805002004
:1042600010B50B4B0B4C0C4A1A602046002204215F
:10427000FFF794FF04F1680001220921FFF78EFF88
:1042800004F1D0000222BDE810401221FFF786BFE2
:10429000F0050020B804002009420008014800F0A1
:1042A00026BA00BFF9050020014800F021BA00BF7E
:1042B000F905002010B50446FFF7F0FF236A1BB193
:1042C000BDE81040FFF7F0BF044B2362044B1B68AE
:1042D000002BF5D1FFF7C4FFF2E700BF2142000831
:1042E000F00500202DE9F8430746884614460026CD
:1042F000D4E90195B9F1010905D52468002CF7D15D
:104300003046BDE8F883AB89012B07D9B5F90E30EB
:10431000013303D029463846C04706436835E9E7EC
:104320000FB407B5064904AB086853F8042B81683D
:10433000019302F0EDFD03B05DF804EB04B07047AB
:1043400020000020036A70B5846805460E460BB94C
:10435000FFF7B0FF636EDB0705D4A389980502D48D
:10436000A06D00F0C4F9A389190702D52369002BB9
:1043700035D12146284600F0E7F880B34FF0FF35ED
:10438000636EDA0705D4A3899B0502D4A06D00F003
:10439000AFF9284670BD002B04DAA2699A4217DCF7
:1043A0000A2915D023685A1C22601970A36816F8D0
:1043B000011F013BA3600029EDD1002B11DA224639
:1043C0000A21284600F081F80130D7D00A25D7E726
:1043D0002246284600F079F80130E7D1CEE7013EC9
:1043E000E4E723685A1C22600A221A70EEE70000F4
:1043F000024B01461868FFF7A5BF00BF2000002050
:104400000EB410B59DB01FAB029006906FF0004146
:104410000A48079104910A4953F8042B0591002496
:1044200002A9006801931B9402F04CFC029B1C70D3
:104430001DB0BDE8104003B0704700BF2000002051
:104440000802FFFF10B50C46B1F90E1000F000F99C
:104450000028ABBF636DA3891B1823F48053ACBF46
:104460006365A38110BD2DE9F0411F468B89DB05F3
:1044700005460C46164605D5B1F90E10022300225A
:1044800000F0D4F8A389B4F90E1023F48053A3816B
:1044900032463B462846BDE8F04100F0EBB810B587
:1044A0000C46B1F90E1000F0C1F8431CA38915BFEA
:1044B000606523F4805343F48053A38118BFA38124
:1044C00010BDB1F90E1000F0A1B8F8B50E461446B3
:1044D000054618B1036A0BB9FFF7ECFEA369A360A8
:1044E000A3891A0701D5236943B92146284600F05C
:1044F0002BF818B14FF0FF373846F8BD2368226912
:10450000981A6369F6B28342374605DC214628468D
:1045100002F09AFE0028EDD1A368013BA360236856
:104520005A1C22601E706269431C9A4204D0A389FF
:10453000DB07E1D50A2EDFD12146284602F084FEB2
:104540000028D9D0D6E7000038B5294B05461868B1
:104550000C4618B1036A0BB9FFF7ACFEB4F90C3086
:10456000190722D4DA0607D409222A6043F040034F
:10457000A3814FF0FF3033E0580712D5616B41B192
:1045800004F14403994202D0284600F011FF0023B1
:104590006363A38923F02403A38100236360236959
:1045A0002360A38943F00803A38123694BB9A3893E
:1045B00003F42073B3F5007F03D02146284602F0B0
:1045C00091FEB4F90C3013F001020AD00022A2606F
:1045D00062695242A261226942B913F08000C5D1DA
:1045E00038BD990758BF6269A260F4E70020F7E779
:1045F0002000002002440346934200D1704703F894
:10460000011BF9E7004870476001002038B5064DEE
:104610000023044608462B60FDF788FA431C02D1AC
:104620002B6803B1236038BDF405002038B5074D71
:1046300004460846114600222A601A46FDF780FA11
:10464000431C02D12B6803B1236038BDF405002060
:1046500038B5074D04460846114600222A601A461E
:10466000FDF756FA431C02D12B6803B1236038BD15
:10467000F405002038B5074D0446084611460022CF
:104680002A601A46FCF7EAFC431C02D12B6803B1EE
:10469000236038BDF4050020014B1868704700BF47
:1046A0002000002070B50D4D0D4C641BA410002699
:1046B000A64209D10B4D0C4C03F0E4FA641BA41084
:1046C0000026A64205D170BD55F8043B9847013637
:1046D000EEE755F8043B98470136F2E72C840008D2
:1046E0002C8400082C840008308400087047704730
:1046F000704700009FED010A704700BF0000C07FB7
:104700002DE9F74F03690C69A34207467EDB013CA4
:1047100001F11408A30000F11405009305EB8403D4
:10472000019358F8243055F8242001339A4208EBBD
:104730008409B2FBF3F62ED34FF0000AC446AE460E
:10474000D3465CF8043B98B206FB00A0020C1B0C9D
:1047500006FB0323DEF8002080B292B2121A5A44FC
:10476000DEF800004FEA134A9BB2C3EB224303EB8F
:10477000104392B242EA0342E1454EF8042B4FEA5D
:10478000234BDED2009BEB582BB9019B043B9D428F
:104790001A462FD33C61384601F0C6F9002825DBC4
:1047A0002946002058F8042BD1F800C01FFA82FED9
:1047B0001FFA8CF3A3EB0E030344120CC2EB23424B
:1047C00002EB1C429BB243EA0243C14541F8043B61
:1047D0004FEA2240E6D255F8242005EB840322B9A3
:1047E000043B9D421A460BD33C610136304603B070
:1047F000BDE8F08F1268043B002ACBD1013CC6E72C
:104800001268043B002AEFD1013CEAE70020EEE702
:104810002DE9F04FC76997B08DED040B55EC104BA7
:10482000209E079181460C9211937FB9102000F0D1
:1048300009FE0246C9F81C0020B9A94BEF21A9487E
:1048400002F002FEC0E901770760C760D9F81C30AA
:10485000196859B15A684A60012393408B604846F1
:1048600000F0E6FED9F81C3000221A602B1EB9BFFA
:1048700023F00043059300233360059F9A4BBCBF90
:1048800001223260BB4312D1119A42F20F731360BE
:10489000C7F31303234300F05A85219BDFF85CA282
:1048A000002B00F05C850AF1030300F056BD9DED7E
:1048B000047B002251EC170B00238DED0A7BFCF7E3
:1048C0000BF9804658B1119A01231360219B13B153
:1048D000219A864B1360DFF828A200F040BD9DEDC1
:1048E0000A0B14AA15A9484601F03EFAC7F30A5666
:1048F0000290002E78D00B9BCDF84880C3F31303B1
:10490000DDE90A0143F07F5343F44013A6F2FF367A
:1049100019460022764BFBF7BFFC6BA3D3E90023BB
:10492000FBF772FE6AA3D3E90023FBF7B7FC04464A
:1049300030460D46FBF7FEFD67A3D3E90023FBF7E6
:1049400063FE02460B4620462946FBF7A7FC0446B9
:104950000D46FCF709F900220746002320462946A8
:10496000FCF7C4F840B13846FBF7E4FD22462B467D
:10497000FCF7B2F800B9013F162F52D85D4B03EB9C
:10498000C703D3E90023DDE90A01FCF7AFF80028EB
:1049900049D0013F00231093149B9B1B5A1E45BF17
:1049A000C3F10103009300230023069254BF009338
:1049B0000693002F39DB069B0D973B44069300239B
:1049C0000893079B092B63D8052BC4BF043B0793AF
:1049D000079BA3F10203CCBF00240124032B63D85F
:1049E000DFE803F05254372BDDE914631E4406F26E
:1049F0003243202BC1BFC3F140039F4006F2124354
:104A000024FA03F3D6BFC3F1200347EA030004FAF4
:104A100003F0FBF77FFD0122A1F1F873013E129232
:104A200076E70123B7E71090B6E7009BDB1B009306
:104A30007B42089300230D93C3E7012309930C9B4A
:104A400007EB030B0BF10103012B0393B8BF012309
:104A500006E0012309930C9B002B28DD9B46039362
:104A6000D9F81C000021042202F114059D4226D928
:104A70004160484600F09CFD8246002842D11E4B12
:104A8000024640F2AF11DAE60023E3E70023D5E760
:104A900001240023079309944FF0FF3B0022CDF837
:104AA0000CB012230C92DBE701230993F4E74FF0DB
:104AB000010BCDF80CB05B46CDF830B0D0E701313A
:104AC0005200D1E7AFF3008061436F63A787D23F05
:104AD000B3C8608B288AC63FFB799F501344D33FED
:104AE000248000083B8000080000F07FEF7F000872
:104AF0000000F83F0882000893800008208000082A
:104B0000EE7F0008D9F81C301860039B0E2B00F2D2
:104B1000A180002C00F09E80002F33DD9C4B07F01D
:104B20000F0203EBC20393ED007BF8058DED0E7BC6
:104B30004FEA271416D5974BDDE90A01D3E908237C
:104B4000FBF78CFECDE9040104F00F040326914D20
:104B500054B9DDE90E23DDE90401FBF77FFECDE961
:104B6000040128E00226F2E7E10708D5DDE90E019D
:104B7000D5E90023FBF748FDCDE90E0101366410AD
:104B80000835E5E700F0AF807C42814B814D04F0B1
:104B90000F0203EBC203D3E90023DDE90A01FBF7AF
:104BA00033FDCDE90401241100230226002C40F03E
:104BB0008F80002BD3D1109BDDE90445002B00F042
:104BC0009480754B002220462946FBF78FFF002872
:104BD00000F08B80039B002B00F08780BBF1000F5F
:104BE00034DD20466D4B00222946FBF70DFDCDE953
:104BF000040107F1FF3801365C463046FBF79AFCAA
:104C0000DDE90423FBF700FD654B0022FBF746FBC3
:104C10000546A1F15076002C6AD1DDE90401614B13
:104C20000022FBF739FB02460B46CDE904232A4656
:104C30003346FBF779FF002840F09882DDE9040154
:104C40002A4606F10043FBF751FF38BBDDE90A3481
:104C5000CDE90434159B002BC0F257810E2F00F3D1
:104C600054814B4B03EBC70393ED007B0C9B002B54
:104C70008DED007B80F2E580039B002B00F3E1804B
:104C80000CD1484B002251EC170BFBF7BDFCDDE9C2
:104C90000423FBF73FFF002800F06682002425462E
:104CA0000C9B56466FEA030800272146484600F051
:104CB000BFFC002D00F0BD802FB1AF4203D03946BC
:104CC000484600F0B5FC2946484600F0B1FCB0E08B
:104CD000E20705D5D5E90023FBF796FC0136012351
:104CE0006410083562E7022665E7039CB84684E74E
:104CF000274B099903EBC40353E9022354440029C9
:104D000054D029490020FBF7A9FD33462A46FBF77A
:104D1000C3FACDE90E015646DDE90401FBF724FF95
:104D20000546FBF707FC02460B46DDE90401FBF7ED
:104D3000B3FA303502460B46CDE9042306F8015B91
:104D4000DDE90E23FBF7D2FE002872D1DDE9042352
:104D500011490020FBF7A0FADDE90E23FBF7C6FEA0
:104D6000002840F0B480A6423FF470AFDDE90E01A8
:104D70000A4B0022FBF748FC084BCDE90E0100224C
:104D8000DDE90401FBF740FCCDE90401C4E700BF05
:104D900008820008E08100080000F03F0000244085
:104DA00000001C40000014400000E03F314628464F
:104DB000FBF72AFCCDE90E0113945646DDE9040108
:104DC000FBF7D2FE0546FBF7B5FB02460B46DDE9D5
:104DD0000401FBF761FA303506F8015B02460B4629
:104DE000A642CDE904234FF0000224D1AF4BDDE908
:104DF0000E01FBF753FA02460B46DDE90401FBF70F
:104E000093FE002863D1DDE90E23A8490020FBF7BB
:104E100043FA02460B46DDE90401FBF767FE002872
:104E20003FF414AF139E731E139316F8013C302BFE
:104E3000F8D047463BE09E4BFBF7E6FBCDE904018B
:104E4000BCE7DDE904455646DDE900232046294656
:104E5000FBF704FDFBF788FE8046FBF76BFBDDE903
:104E60000023FBF7D1FB02460B462046294608F1FA
:104E70003004FBF711FA06F8014B039DA6EB0A0478
:104E8000A54202460B4633D1FBF708FADDE90023C1
:104E900004460D46FBF748FEC0B9DDE90023204675
:104EA0002946FBF719FE10B118F0010F0ED1029937
:104EB000484600F0BDFB00233370119B01371F6093
:104EC000219B002B00F04B821E6048E2B84633461F
:104ED0001E4613F8012D392A06D19A45F8D1302201
:104EE00008F101088AF800201A7801321A70A0E748
:104EF0006F4B0022FBF788FB0022002304460D467F
:104F0000FBF7EAFD00289FD0D1E7099A002A00F0BC
:104F1000EA80079A012A00F3CD80129A002A00F055
:104F2000C18003F23343089C009E009A1A44009209
:104F3000069A01211A444846069200F077FC05467D
:104F400066B1069B002B09DDB342009AA8BF334629
:104F5000D21A0092069AF61AD31A0693089B0BB33C
:104F6000099B002B00F0C680002C00F0C080294671
:104F70002246484600F012FD029A01460546484680
:104F800000F06AFC02998046484600F051FB089BFD
:104F90001B1B089300F0B180089A4146484600F078
:104FA000FDFC02900121484600F040FC0D9B0446A8
:104FB000002B00F0D8811A460146484600F0EEFC6E
:104FC000079B012B044600F39F80049B002B40F0BD
:104FD0009780059BC3F31303002B40F09380059B40
:104FE00023F000431B0D1B0533B1009B01330093DD
:104FF000069B01330693012308930D9B002B00F0C1
:10500000B881236904EB8303186900F0C3FBC0F186
:105010002000069B184410F01F0000F08280C0F1B1
:105020002003042B73DD009BC0F11C00034400939C
:10503000069B034406440693009B002B05DD029962
:105040001A46484600F004FD0290069B002B05DD41
:1050500021461A46484600F0FBFC0446109B002BF4
:1050600061D00298214600F05FFD00285BDA002342
:1050700002990A22484600F0FDFA099B029007F1C6
:10508000FF38002B00F07781294600230A2248468A
:1050900000F0F0FABBF1000F05466FDC079B022B16
:1050A00049DC6BE0149BC3F136033CE70000E03FB2
:1050B00000002440039B5C1E089BA34209DB1C1BD1
:1050C000039B002BBFF630AF009B039A9E1A002370
:1050D0002BE7089B0D9A0894E31A1A44009E039B41
:1050E0000D92002421E7089C009E099D28E7DDF829
:1050F000088051E7089A029950E7CDF8088051E7F7
:10510000002379E7049B77E70023089379E793D09E
:10511000009A1C331A440092069A1A441E440692BE
:105120008AE70346F4E7039B002BB84620DC9B4646
:10513000079B022B1EDDBBF1000F7FF4B1AD2146B2
:105140005B460522484600F095FA0146044602985F
:1051500000F0EAFC00287FF7A3AD5646312306F89D
:10516000013B08F101089FE5039CB8462546F4E79A
:10517000DDF80CB0099B002B00F00181002E05DD4D
:1051800029463246484600F063FC0546089B002B42
:105190005CD06968484600F00BFA064628B9824B95
:1051A000024640F2EF21FFF74ABB2A690232920021
:1051B00005F10C010C3002F02FF90122314648466E
:1051C00000F046FC0AF1010300930AEB0B0308937D
:1051D000049B03F001032F4606930546009B0298AB
:1051E000214603F1FF3BFFF78BFA03463033039070
:1051F00039460298099300F097FC2A46049021460C
:10520000484600F0ADFCC268099B064602BB014659
:10521000029800F089FC099B0246314648460C92F0
:10522000099300F005FA079B0C9A009E42EA0301DD
:10523000069B1943099B0DD1392B27D0049A002ACC
:1052400001DD039B31338BF800302EE52846B9E7AA
:105250000122E2E70499002904DB0798014306983C
:10526000014320D1002AEEDD029900930122484635
:1052700000F0EEFB2146029000F056FC0028009B57
:1052800002DCE0D1DA07DED5392BDAD139238BF80D
:10529000003033461E46013B16F8012C392A4ED009
:1052A00001321A7001E5002A03DD392BEED00133FB
:1052B000C9E7009A089902F8013C8A4228D002996D
:1052C00000230A22484600F0D5F9AF4202904FF081
:1052D00000034FF00A023946484607D100F0CAF9E8
:1052E00007460546009B0133009377E700F0C2F9BB
:1052F0002946074600230A22484600F0BBF9054626
:10530000F0E7BBF1000FCCBF5E46012656440027F4
:10531000029900930122484600F09AFB2146029030
:1053200000F002FC0028B4DC02D1009BDB07B0D403
:1053300033461E4613F8012D302AFAD0B5E49A45BB
:10534000A8D1312308F101088AF80030ADE4219B8F
:10535000DFF858A01BB10AF10803219A13605046E8
:1053600017B0BDE8F08F079B012B7FF72EAE0D9B8A
:10537000089301204DE6BBF1000F7FF7D9AE5646EA
:1053800002982146FFF7BCF900F1300306F8013B13
:10539000A6EB0A029345B4DD029900230A2248468F
:1053A00000F068F90290EBE793800008178000088E
:1053B00038B50546002941D051F8043C0C1F002B9C
:1053C000B8BFE41800F0E8F81D4A136833B9636009
:1053D00014602846BDE8384000F0E4B8A34208D97C
:1053E000206821188B4201BF19685B680918216089
:1053F000EDE71A465B680BB1A342FAD91168501861
:10540000A0420BD120680144501883421160E0D1C2
:1054100018685B68536008441060DAE702D90C230F
:105420002B60D6E7206821188B4204BF19685B689F
:10543000636004BF091821605460CAE738BD00BF2B
:1054400000060020024B0146186800F025B800BF96
:105450002000002070B50F4E0C463168054611B98A
:1054600001F0CAFF30602146284601F0C5FF431C09
:1054700003D14FF0FF34204670BDC41C24F0030458
:10548000A042F8D0211A284601F0B6FF0130F2D12F
:10549000EFE700BFFC0500202DE9F843CD1C25F007
:1054A000030508350C2D38BF0C25002D064601DB01
:1054B000A94204D90C2333600020BDE8F883DFF84B
:1054C000D48000F069F8D8F800301C4644BB294667
:1054D0003046FFF7BFFF431C044658D1D8F80040C0
:1054E0002746002F43D1002C4BD023683946304645
:1054F00004EB030901F080FF814542D121686D1A58
:1055000029463046FFF7A6FF01303AD023682B44E6
:105510002360D8F800305A6862BBC8F800700FE00A
:105520002268521B20D40B2A17D96119A342256087
:1055300018BF5960636808BFC8F8001062514B601B
:10554000304600F02FF804F10B00231D20F0070077
:10555000C21A1CBF1B1AA350AFE76268A3420CBF5C
:10556000C8F800205A60EBE723466468AEE73C4683
:105570007F68B6E71A465B68A342FBD100235360FD
:10558000DEE70C233360304600F00CF894E705604A
:10559000D6E700BF000600200148FFF7A8B800BF0B
:1055A000F80500200148FFF7A3B800BFF805002068
:1055B00070B5C66904460D4676B91020FFF742FF64
:1055C0000246E06120B9184B18486B2101F03CFFFE
:1055D000C0E901660660C660E669F36883B1E36905
:1055E000DB6853F82500B8B9012101FA05F6721DF0
:1055F0009200204601F046FF60B1C0E901560EE07E
:1056000021220421204601F03DFFE369F060DB68C0
:10561000002BE4D1002070BD026843F82520002350
:10562000C0E90333F7E700BF24800008A480000826
:1056300070B5C66905460C4676B91020FFF702FF23
:105640000246E86120B9094B09488F2101F0FCFEB0
:10565000C0E901660660C6603CB1EB696268DB6860
:1056600053F82210216043F8224070BD24800008C6
:10567000A48000082DE9F0410D6907460C461E463E
:1056800001F1140C0020DCF8003099B202FB01613A
:105690001E0C0B0C02FB063389B2013001EB0341F7
:1056A00085424CF8041B4FEA1346ECDC0EB3A368AA
:1056B000AB4219DC616838460131FFF779FF80465B
:1056C00028B902460C4B0D48BA2101F0BDFE2269F3
:1056D000023204F10C0192000C3001F09DFE2146D3
:1056E0003846FFF7A5FF444604EB850301355E61AC
:1056F00025612046BDE8F08193800008A480000861
:105700002DE9F8430C4615461F4609220833064684
:1057100093FBF2F3002101229A4209DB3046FFF7A6
:1057200047FF40B90246194B1948D32101F08CFEBE
:1057300052000131F0E7089B4361092D4FF001034E
:10574000036116DD04F10909C8462C4418F8013B31
:105750000146303B0A223046FFF78CFFA045F5D1C9
:10576000A5F108044C442D1B6319BB4204DBBDE8C2
:10577000F8830A340925F6E714F8013B0146303B6B
:105780000A223046FFF776FFEEE700BF938000085D
:10579000A4800008B0F5803F034636BF0304002014
:1057A0001020B3F1807F3CBF1B020830B3F1805F53
:1057B0003CBF1B010430B3F1804F3CBF9B00023063
:1057C000002B05DB13F0804F00F1010008BF202003
:1057D00070470368024613F007000BD0D90721D4A5
:1057E000980749BF5B089B08012013605CBF1360EA
:1057F0000220704799B209B91B0C1020D9B209B91F
:1058000008301B0A190704BF1B090430990704BF9D
:105810009B080230D90703D45B0800F1010003D0D4
:1058200013607047002070472020704710B50C4669
:105830000121FFF7BDFE024628B9054B054840F29D
:10584000451101F001FE01234461036110BD00BF59
:1058500093800008A48000082DE9F04F17460A69DC
:105860003B699A42A8BF3B468946A4BF0F4699466A
:105870003D69D9F810A0BB68796805EB0A06B34208
:1058800085B0B8BF0131FFF793FE30B90246414BF6
:1058900041484FF4B17101F0D7FD00F1140404EB5D
:1058A000860E23460022734520D307F1140809F120
:1058B000140108EB850501EB8A030293EB1B153BF2
:1058C00023F0030304331537BD4238BF042301938B
:1058D000029B03918B420CD8002E03DD5EF8043D41
:1058E000002B55D0066105B0BDE8F08F43F8042BBE
:1058F000D9E7B1F800A0BAF1000F1FD0C446A14605
:1059000000275CF8042BD9F800301FFA82FB9BB209
:105910000AFB0B333B44D9F80070120C3F0C0AFB16
:10592000027202EB13429BB243EA0243654549F817
:10593000043B4FEA1247E4D8019BE750039BB3F8BE
:1059400002900431B9F1000F20D023684746A446E5
:105950004FF0000AB7F800B0BCF8022009FB0B2298
:1059600052449BB243EA02434CF8043B57F8043BD1
:105970004FEA134ABCF8003009FB0A3303EB124329
:10598000BD424FEA134AE5D8019AA35004349FE779
:10599000013EA1E793800008A48000082DE9F843A8
:1059A000154612F0030207460E4607D0254C013A71
:1059B000002354F82220FFF75DFE0646AD103DD0CF
:1059C000FC697CB91020FFF73DFD0246F86128B95B
:1059D0001D4B1E4840F2B31101F036FDC0E90144F1
:1059E0000460C460D7F81C80D8F808404CB940F275
:1059F00071213846FFF71AFF0023C8F80800044653
:105A000003604FF00009EB070AD5314622463846BD
:105A1000FFF722FF314680463846FFF709FE46462B
:105A20006D100BD0206838B9224621463846FFF762
:105A300013FF2060C0F800900446E4E73046BDE85C
:105A4000F88300BFD481000824800008A4800008E7
:105A50002DE9F0470C464968236903EB6218A368F7
:105A6000074691464FEA621A08F10106B3420BDB82
:105A70003846FFF79DFD054648B90246284B2948A0
:105A80004FF4EF7101F0E0FC01315B00EEE7002321
:105A900000F1140100F110021846534533DB206970
:105AA0002AEAEA7A04F1140319F01F0901EB8A01CA
:105AB00003EB800C2BD0C9F1200E8A460022186817
:105AC00000FA09F010434AF8040B53F8042B9C45E4
:105AD00022FA0EF2F3D8ACEB0403153B23F00303D8
