:020000040800F2
:1000000000000220A12200083D2000084520000831
:100010004D200008552000085D2000080000000069
:100020000000000000000000000000006520000843
:100030007320000800000000812000088F200008C5
:10004000F1220008F1220008F1220008F122000844
:10005000F1220008F1220008F1220008F122000834
:10006000F1220008F1220008F1220008F122000824
:10007000F1220008F1220008F1220008F122000814
:10008000F1220008F1220008F1220008000000001F
:10009000000000000000000000000000F122000845
:1000A000F1220008F1220008F1220008F1220008E4
:1000B000F12200089D200008F1220008F12200082A
:1000C000F1220008F1220008F1220008F1220008C4
:1000D000F1220008B1200008C5200008000000003F
:1000E000F1220008F1220008F122000800000000BF
:1000F000000000000000000000000000F1220008E5
:1001000000000000F1220008F1220008F12200089E
:1001100000000000000000000000000000000000DF
:10012000F1220008D9200008ED200008F122000883
:10013000F1220008000000000000000000000000A4
:10014000000000000000000000000000F122000894
:10015000F1220008F1220008012100081521000801
:10016000F1220008F1220008000000000000000059
:10017000000000000000000000000000000000007F
:1001800000000000F1220008000000000000000054
:08019000F1220008F122000831
:1001A00010B5054C237833B9044B13B10448AFF3B1
:1001B00000800123237010BDDC010020000000003E
:1001C000BC82000808B5034B1BB103490348AFF3D9
:1001D000008008BD00000000E0010020BC82000893
:1001E00001F0FF01102A2BDB10F0070F08D010F8E8
:1001F000013B013A8B422DD010F0070F42B3F6D1EC
:10020000F0B441EA012141EA014122F007047FF004
:1002100000070023F0E80256083C85EA010586EA5B
:10022000010685FA47F5A3FA87F586FA47F6A5FA97
:1002300087F68EB9EED1F0BC01F0FF0102F00702A3
:1002400032B110F8013B013A83EA010313B1F8D14E
:100250000020704701387047002D06BF354603382F
:10026000073815F0010F07D1013015F4807F02BF68
:10027000013015F4C03F0130F0BC0138704700BFB9
:10028000034613F8012B002AFBD1181A01387047D6
:1002900081F0004102E000BF83F0004330B54FEA37
:1002A00041044FEA430594EA050F08BF90EA020FA4
:1002B0001FBF54EA000C55EA020C7FEA645C7FEA37
:1002C000655C00F0E2804FEA5454D4EB5555B8BF5A
:1002D0006D420CDD2C4480EA020281EA030382EACB
:1002E000000083EA010180EA020281EA0303362D5D
:1002F00088BF30BD11F0004F4FEA01314FF4801C30
:100300004CEA113102D0404261EB410113F0004F41
:100310004FEA03334CEA133302D0524263EB4303F8
:1003200094EA050F00F0A780A4F10104D5F1200E96
:100330000DDB02FA0EFC22FA05F2801841F10001F1
:1003400003FA0EF2801843FA05F359410EE0A5F1C5
:1003500020050EF1200E012A03FA0EFC28BF4CF0F6
:10036000020C43FA05F3C01851EBE37101F00045AC
:1003700007D54FF0000EDCF1000C7EEB00006EEBB9
:100380000101B1F5801F1BD3B1F5001F0CD3490843
:100390005FEA30004FEA3C0C04F101044FEA44529A
:1003A00012F5800F80F09A80BCF1004F08BF5FEA21
:1003B000500C50F1000041EB045141EA050130BD01
:1003C0005FEA4C0C404141EB0101013C28BFB1F513
:1003D000801FE9D291F0000F04BF01460020B1FA5E
:1003E00081F308BF2033A3F10B03B3F120020CDA31
:1003F0000C3208DD02F1140CC2F10C0201FA0CF00F
:1004000021FA02F10CE002F11402D8BFC2F1200C73
:1004100001FA02F120FA0CFCDCBF41EA0C01904029
:10042000E41AA2BF01EB0451294330BD6FEA040472
:100430001F3C1CDA0C340EDC04F11404C4F120025D
:1004400020FA04F001FA02F340EA030021FA04F36F
:1004500045EA030130BDC4F10C04C4F1200220FAC6
:1004600002F001FA04F340EA0300294630BD21FA04
:1004700004F0294630BD94F0000F83F4801306BFCA
:1004800081F480110134013D4EE77FEA645C18BFBE
:100490007FEA655C29D094EA050F08BF90EA020F55
:1004A00005D054EA000C04BF1946104630BD91EA4D
:1004B000030F1EBF0021002030BD5FEA545C05D150
:1004C0004000494128BF41F0004130BD14F580048F
:1004D0003CBF01F5801130BD01F0004545F0FE4103
:1004E00041F470014FF0000030BD7FEA645C1ABF38
:1004F000194610467FEA655C1CBF0B46024650EA6F
:10050000013406BF52EA033591EA030F41F400219A
:1005100030BD00BF90F0000F04BF0021704730B520
:100520004FF4806404F132044FF000054FF00001F5
:1005300050E700BF90F0000F04BF0021704730B5B6
:100540004FF4806404F1320410F0004548BF40428B
:100550004FF000013EE700BF42004FEAE2014FEAE0
:1005600031014FEA02701FBF12F07F4393F07F4FBB
:1005700081F06051704732F07F4208BF704793F0BE
:100580007F4F04BF41F40021704730B54FF46074D1
:1005900001F0004521F000411CE700BF50EA0102D4
:1005A00008BF704730B54FF000050AE050EA01027D
:1005B00008BF704730B511F0004502D5404261EBED
:1005C00041014FF4806404F132045FEA915C3FF42E
:1005D000D8AE4FF003025FEADC0C18BF03325FEACB
:1005E000DC0C18BF033202EBDC02C2F1200300FA7C
:1005F00003FC20FA02F001FA03FE40EA0E0021FAA1
:1006000002F11444BDE600BF70B54FF0FF0C4CF48E
:10061000E06C1CEA11541DBF1CEA135594EA0C0F40
:1006200095EA0C0F00F0DEF82C4481EA030621EA7B
:100630004C5123EA4C5350EA013518BF52EA0335B6
:1006400041F4801143F4801338D0A0FB02CE4FF068
:100650000005E1FB02E506F00042E0FB03E54FF098
:100660000006E1FB03569CF0000F18BF4EF0010E90
:10067000A4F1FF04B6F5007F64F5407404D25FEA8C
:100680004E0E6D4146EB060642EAC62141EA55513F
:100690004FEAC52040EA5E504FEACE2EB4F1FD0C81
:1006A00088BFBCF5E06F1ED8BEF1004F08BF5FEAFF
:1006B000500E50F1000041EB045170BD06F00046B1
:1006C00046EA010140EA020081EA0301B4EB5C045E
:1006D000C2BFD4EB0C0541EA045170BD41F4801156
:1006E0004FF0000E013C00F3AB8014F1360FDEBF7B
:1006F000002001F0004170BDC4F10004203C35DA57
:100700000C341BDC04F11404C4F1200500FA05F3D9
:1007100020FA04F001FA05F240EA020001F000427A
:1007200021F0004110EBD37021FA04F642EB0601F0
:100730005EEA430E08BF20EAD37070BDC4F10C041A
:10074000C4F1200500FA04F320FA05F001FA04F2DE
:1007500040EA020001F0004110EBD37041F10001CA
:100760005EEA430E08BF20EAD37070BDC4F12005D5
:1007700000FA05F24EEA020E20FA04F301FA05F23D
:1007800043EA020321FA04F001F0004121FA04F2E5
:1007900020EA020000EBD3705EEA430E08BF20EAB5
:1007A000D37070BD94F0000F0FD101F000464000EF
:1007B00041EB010111F4801F08BF013CF7D041EA71
:1007C000060195F0000F18BF704703F00046520075
:1007D00043EB030313F4801F08BF013DF7D043EA46
:1007E0000603704794EA0C0F0CEA135518BF95EAFC
:1007F0000C0F0CD050EA410618BF52EA4306D1D183
:1008000081EA030101F000414FF0000070BD50EAA1
:10081000410606BF1046194652EA430619D094EA2B
:100820000C0F02D150EA013613D195EA0C0F05D115
:1008300052EA03361CBF104619460AD181EA030169
:1008400001F0004141F0FE4141F470014FF0000021
:1008500070BD41F0FE4141F4780170BD70B54FF0BC
:10086000FF0C4CF4E06C1CEA11541DBF1CEA13553C
:1008700094EA0C0F95EA0C0F00F0A7F8A4EB05041E
:1008800081EA030E52EA03354FEA013100F0888015
:100890004FEA03334FF0805545EA131343EA1263DE
:1008A0004FEA022245EA111545EA10654FEA002693
:1008B0000EF000419D4208BF964244F1FD0404F54C
:1008C000407402D25B084FEA3202B61A65EB0305A8
:1008D0005B084FEA32024FF480104FF4002CB6EB65
:1008E000020E75EB030E22BFB61A754640EA0C00E5
:1008F0005B084FEA3202B6EB020E75EB030E22BF25
:10090000B61A754640EA5C005B084FEA3202B6EB65
:10091000020E75EB030E22BFB61A754640EA9C0024
:100920005B084FEA3202B6EB020E75EB030E22BFF4
:10093000B61A754640EADC0055EA060E18D04FEAB2
:10094000051545EA16754FEA06164FEAC30343EA52
:1009500052734FEAC2025FEA1C1CC0D111F4801F1F
:100960000BD141EA00014FF000004FF0004CB6E718
:1009700011F4801F04BF01430020B4F1FD0C88BFB7
:10098000BCF5E06F3FF6AFAEB5EB030C04BFB6EBC2
:10099000020C5FEA500C50F1000041EB045170BDB5
:1009A0000EF0004E4EEA113114EB5C04C2BFD4EBE2
:1009B0000C0541EA045170BD41F480114FF0000E66
:1009C000013C90E645EA060E8DE60CEA135594EAE2
:1009D0000C0F08BF95EA0C0F3FF43BAF94EA0C0FE5
:1009E0000AD150EA01347FF434AF95EA0C0F7FF45A
:1009F00025AF104619462CE795EA0C0F06D152EAAE
:100A000003353FF4FDAE1046194622E750EA410691
:100A100018BF52EA43067FF4C5AE50EA41047FF4A2
:100A20000DAF52EA43057FF4EBAE12E74FF0FF3C07
:100A300006E000BF4FF0010C02E000BF4FF0010CD8
:100A40004DF804CD4FEA410C7FEA6C5C4FEA430C51
:100A500018BF7FEA6C5C1BD001B050EA410C0CBFA0
:100A600052EA430C91EA030F02BF90EA020F002002
:100A7000704710F1000F91EA030F58BF994208BF69
:100A800090422CBFD8176FEAE37040F00100704726
:100A90004FEA410C7FEA6C5C02D150EA013C07D17D
:100AA0004FEA430C7FEA6C5CD6D152EA033CD3D0C8
:100AB0005DF8040B704700BF8446104662468C46C2
:100AC0001946634600E000BF01B5FFF7B7FF0028F5
:100AD00048BF10F1000F01BD4DF808EDFFF7F4FF1E
:100AE0000CBF012000205DF808FB00BF4DF808EDA9
:100AF000FFF7EAFF34BF012000205DF808FB00BFCC
:100B00004DF808EDFFF7E0FF94BF012000205DF8ED
:100B100008FB00BF4DF808EDFFF7CEFF94BF0120A2
:100B200000205DF808FB00BF4DF808EDFFF7C4FF9B
:100B300034BF012000205DF808FB00BF4FEA410CE4
:100B40007FEA6C5C02D150EA013C0AD14FEA430CC7
:100B50007FEA6C5C02D152EA033C02D14FF0000004
:100B600070474FF0010070474FEA410212F5001242
:100B700015D211D56FF47873B3EB625212D94FEAE4
:100B8000C12343F0004343EA505311F0004F23FACE
:100B900002F018BF404270474FF00000704750EA23
:100BA000013005D111F0004008BF6FF000407047E0
:100BB0004FF00000704700BF53B94AB9002908BF81
:100BC00000281CBF4FF0FF314FF0FF3000F088B914
:100BD000ADF1080C6DE904CE00F006F8DDF804E094
:100BE000DDE9022304B070472DE9F047089D8E46E9
:100BF00004468846002B4AD18A42174662D9B2FA87
:100C000082F64EB1C6F1200301FA06F820FA03F38A
:100C1000B74043EA0808B4404FEA174E1FFA87FC72
:100C2000B8FBFEF1230C0EFB118843EA084301FBDD
:100C30000CF29A4209D9FB1801F1FF3080F0EA80EA
:100C40009A4240F2E78002393B449A1AA3B2B2FBBF
:100C5000FEF00EFB102243EA024300FB0CFC9C4515
:100C600009D9FB1800F1FF3280F0D6809C4540F294
:100C7000D3803B44023840EA0140A3EB0C0300213F
:100C80001DB1F3400022C5E90032BDE8F0878B4278
:100C900005D90DB1C5E9000100210846F5E7B3FA11
:100CA00083F1002946D1734502D3824200F20581C7
:100CB000841A6EEB030201209046002DE5D0C5E9B1
:100CC0000048E2E7002A00F09080B2FA82F6002E97
:100CD00040F0A4808A1A030C4FEA174E80B2BCB2CF
:100CE0000121B2FBFEFC0EFB1C2243EA024304FB83
:100CF0000CF29A4207D9FB180CF1FF3802D29A4243
:100D000000F2E080C4469B1AB3FBFEF20EFB1233E6
:100D100040EA034302FB04F49C4207D9FB1802F1AA
:100D2000FF3002D29C4200F2CA8002461B1B42EAFC
:100D30000C40A5E7C1F120068B4022FA06F71F43BD
:100D40000EFA01F420FA06F32EFA06FE4FEA1749CE
:100D5000234300FA01F81FFA87FCBEFBF9F01C0CD4
:100D600009FB10EE44EA0E4400FB0CFEA64502FA15
:100D700001F209D93C1900F1FF3A80F09C80A645A8
:100D800040F2998002383C44A4EB0E041FFA83FE23
:100D9000B4FBF9F309FB13444EEA044403FB0CFCD7
:100DA000A44508D93C1903F1FF3E80F08280A44598
:100DB0007FD9023B3C4443EA0040A4EB0C04A0FB77
:100DC00002EC64457346E14662D35FD05DB1B8EB97
:100DD000030264EB090404FA06F622FA01F31E4347
:100DE000CC40C5E9006400214FE7B1FBF2FC010CE7
:100DF00041EA0E4180B240EA01423B4638463C4659
:100E0000B846BE462026B1FBF7F1A2EB080241EA44
:100E10000C4166E7014618E710462CE7C6F12002B0
:100E20002EFA02F3B740B14020FA02F24FEA174E11
:100E30000A43B3FBFEF8BCB20EFB1833110C41EAB7
:100E4000034108FB04F9B04089454FEA104380B2E2
:100E50003ED9791808F1FF3C01D289451FD8A1EB92
:100E60000901B1FBFEF909FB04F80EFB191192B25E
:100E700042EA0142424529D2BA1809F1FF31C4D2EF
:100E80004245C2D2A9F102013A44BEE7F0459DD2E3
:100E9000BEEB02036CEB070C0138E14696E7A7EBCB
:100EA00009094944A8F1020CB1FBFEF909FB04F859
:100EB000DBE773467FE7504666E70846FDE63B44BE
:100EC000023A33E7ACF1020C3B441CE749469CE78D
:100ED000A1EB0901C446B1FBFEF909FB04F8C4E724
:100EE000704700BF80B487B000AF78603960FF23DF
:100EF000FB75FF23BB7500233B6113E07A683B69F8
:100F000013441A78BB7D5340FB73FB7B0F4AD25CC2
:100F1000FB7D5340BB75FB7B0D4AD35CFB753B6986
:100F200001333B613A693B689A42E7D3FB7D1BB2D0
:100F30001B021AB2BB7D1BB213431BB29BB21846F5
:100F40001C37BD465DF8047B704700BFF085000884
:100F5000F086000880B586B000AFF860B9607A60AE
:100F60007B689AB26423B968074803F0F8F903462E
:100F7000FB75FB7D002B01D17B6801E04FF0FF3357
:100F800018461837BD4680BD4002002080B483B0AB
:100F900000AF786039603B6800221A807B681733A5
:100FA0001B7803F00803002B03D03B6803221A8050
:100FB0000DE07B6817331B7803F00403002B03D08C
:100FC0003B6801221A8002E03B6800221A8000BFC1
:100FD0000C37BD465DF8047B704780B483B000AF2A
:100FE00078607B680A331B88002B13D07B680A3338
:100FF0001B88B3F5167F0DD27B680E331B88B3F5C3
:10100000966F07D97B680E331B88B3F5FA6F01D250
:10101000012300E0002318460C37BD465DF8047B31
:101020007047000080B582B000AF78607B681B78A5
:101030000F2B04D17B6818331B78002B0BD07B68F7
:101040001B7819467B6818331B781A460C4805F044
:1010500059F9002310E07B6817331B7803F0F00385
:10106000002B08D07B6817331B781946054805F01C
:1010700049F9002300E0012318460837BD4680BD2A
:10108000D88200080883000880B485B000AF03460A
:10109000FB71FB79DB02084A82FB03121A44D2116E
:1010A000DB17D31AFB60FB687B817B8918461437FA
:1010B000BD465DF8047B70478180808080B582B03A
:1010C00000AF786039607B681B780F2B04D17B6898
:1010D00018331B78002B09D07B681B78194602480F
:1010E00005F010F902E000BF388300087B68013387
:1010F0001B781AB27B6802331B781BB21B021BB22F
:1011000013431BB29BB2C3F30A039AB23B681A8023
:101110007B6802331B78DB08DBB21AB27B680333CF
:101120001B781BB25B011BB213431BB29AB23B6824
:101130000233C2F30A0292B21A807B6803331B782F
:101140009B09DBB21AB27B6804331B781BB29B008D
:101150001BB213431AB27B6805331B781BB29B0288
:101160001BB213431BB29AB23B680433C2F30A02A8
:1011700092B21A807B6805331B785B08DBB21AB227
:101180007B6806331B781BB2DB011BB213431BB217
:101190009AB23B680633C2F30A0292B21A807B68A5
:1011A00006331B781B09DBB21AB27B6807331B7846
:1011B0001BB21B011BB213431BB29AB23B6808332C
:1011C000C2F30A0292B21A807B6807331B78DB09EC
:1011D000DBB21AB27B6808331B781BB25B001BB210
:1011E00013431AB27B6809331B781BB25B021BB234
:1011F00003F4C0631BB213431BB29AB23B680A33B9
:10120000C2F30A0292B21A807B6809331B789B08EA
:10121000DBB21AB27B680A331B781BB29B011BB28C
:1012200013431BB29AB23B680C33C2F30A0292B268
:101230001A807B680A331B785B09DBB21AB27B68C1
:101240000B331B781BB2DB001BB213431BB29AB2E9
:101250003B680E33C2F30A0292B21A807B680C33E9
:101260001B781AB27B680D331B781BB21B021BB2B2
:1012700013431BB29AB23B681033C2F30A0292B214
:101280001A807B680D331B78DB08DBB21AB27B68EF
:101290000E331B781BB25B011BB213431BB29AB215
:1012A0003B681233C2F30A0292B21A807B680E3393
:1012B0001B789B09DBB21AB27B680F331B781BB219
:1012C0009B001BB213431AB27B6810331B781BB20E
:1012D0009B021BB213431BB29AB23B681433C2F396
:1012E0000A0292B21A807B6810331B785B08DBB26B
:1012F0001AB27B6811331B781BB2DB011BB213439C
:101300001BB29AB23B681633C2F30A0292B21A8039
:101310007B6811331B781B09DBB21AB27B6812336E
:101320001B781BB21B011BB213431BB29AB23B6862
:101330001833C2F30A0292B21A807B6812331B7808
:10134000DB09DBB21AB27B6813331B781BB25B007C
:101350001BB213431AB27B6814331B781BB25B02B7
:101360001BB213431BB29AB23B681A33C2F30A0290
:1013700092B21A807B6814331B789B08DBB21AB2D6
:101380007B6815331B781BB29B011BB213431BB246
:101390009AB23B681C33C2F30A0292B21A807B688D
:1013A00015331B785B09DBB21AB27B6816331B78E6
:1013B0001BB2DB001BB213431BB29AB23B681E3355
:1013C000C2F30A0292B21A807B6817331B781A465E
:1013D0003B68203302F0010292B21A807B68173317
:1013E0001B785B109AB23B68223302F0010292B282
:1013F0001A8000BF0837BD4680BD00BF80B483B0EF
:1014000000AF78607B681A68094B1B689A4208D164
:10141000084B01221A70084B1B8801339AB2064B05
:101420001A8000BF0C37BD465DF8047B704700BFD3
:10143000F80100209204002094040020F0B599B037
:1014400000AF78607B681A68984B1B689A4258D145
:10145000974B1B780F2B02D1964B01221A70964B9B
:101460001B68172B09DC934B1B78002B05D0924B84
:101470001B680133904A136015E1904B1B7883F091
:101480000103DBB2002B10D08C4B01221A70192201
:1014900000218B4805F07EF8844803F052F81922A9
:1014A0008749824803F01DF8FDE08548FFF7BAFD43
:1014B0000346002B0FD083498148FFF7FFFD814889
:1014C000FFF78BFD03461A467F4B1A707F497C4815
:1014D000FFF75CFD15E0794B00221A70754B002276
:1014E0001A70754B00221A6019220021744805F009
:1014F00051F86E4803F025F801226D496B4802F05F
:10150000F0FF7B681A68724B1B689A4240F0CB80F0
:10151000704B1B78AA2B44D16E4B5B78552B40D176
:101520000A230A226B496A4802F019FF0821694818
:10153000FFF7D8FC03461A46674B1A80654B1B7AA7
:101540001AB2644B5B7A1BB21B021BB213431BB271
:101550009AB2624B1A80604B1A88604B1B889A4281
:101560001BD15C4B9A785E4B1A705A4BDA785D4B04
:101570001A70584B1A795C4B1A70564B5A795B4B60
:101580001A70544B9A795A4B1A70524BDA79594B5C
:101590001A70594B01221A7080E0574B00221A70C2
:1015A0007CE04C4B1B78AA2B78D14A4B5B78AF2B55
:1015B00074D108214748FFF795FC03461A46464B6D
:1015C0001A80444B1B7A1AB2424B5B7A1BB21B0245
:1015D0001BB213431BB29AB2404B1A803E4B1A887F
:1015E0003E4B1B889A4259D10023FB651BE0354ACC
:1015F000FB6D32F81320FB6D5B00D2B260333B44CD
:1016000003F8542C2F4AFB6D32F813301B0A9AB2A0
:10161000FB6D5B000133D2B260333B4403F8542CC2
:10162000FB6D0133FB65FB6D112BE0DD07F10C0356
:1016300024211846FFF756FC0346A7F85A30AA2380
:1016400087F83030AF2387F8313007F10C0407F109
:10165000320C04F1200E654626460FCE28606960E4
:10166000AA60EB6010340CF1100C7445F3D16346A2
:10167000224610681860B7F85A30DBB287F8563047
:10168000B7F85A301B0A9BB2DBB287F8573007F124
:101690003001142328220E4802F061FE0A220D496F
:1016A0000B4802F0EEFE6437BD46F0BDC8020020D4
:1016B00088040020900400208C0400209104002065
:1016C000300400204C040020B10400202C04002031
:1016D00084020020700400207E0400207C0400208E
:1016E0008004002082040020810400208304002064
:1016F00084040020850400207A04002080B582B094
:1017000000AF78607B681A68164B1B689A4210D14C
:10171000144802F016FF144804F05CFE012213493D
:10172000104802F0DEFE0346002B02D0104804F001
:1017300051FE7B681A680F4B1B689A420DD10D4809
:1017400002F0FFFE0A220C490A4802F09AFE034604
:10175000002B02D0094804F03DFE00BF0837BD460B
:1017600080BD00BFC8020020F88400088804002063
:101770003885000884020020700400207885000865
:10178000B0B500AF00F0B6FD00F0F4F800F05AFA82
:1017900000F028FA00F0CEF900F0F6F900F052F966
:1017A00000F09EF90A225F495F4802F06AFE0122BA
:1017B0005E495F4802F095FE0346002B02D05D486B
:1017C00004F008FE5C4802F087F95C4804F002FE71
:1017D0005B4B1B78002BFBD001225449544802F08C
:1017E00080FE584A584B14461D460FCD0FC495E84D
:1017F000070003C42270554B1B78002B6FD0544B4D
:101800001B781846FFF740FC03461A46514B1A80D6
:10181000514B1B781846FFF737FC03461A464D4BD1
:101820005A804E4B1B781846FFF72EFC03461A468B
:10183000484B9A804A4B1B781846FFF725FC034615
:101840001A46444BDA80434B1B88DAB23D4B5A7040
:10185000404B1B881B0A9BB25BB203F007035AB2D2
:101860003C4B5B885BB2DB005BB213435BB2DAB22A
:10187000344B9A70374B5B885B099BB2DBB203F049
:101880003F03DAB22F4BDA70324B9B889B089BB236
:10189000DAB22C4B1A712F4B9B889B0A9BB25BB21E
:1018A00003F001035AB22B4BDB885BB25B005BB2E7
:1018B00013435BB2DAB2234B5A71264BDB88DB0948
:1018C0009BB25BB203F00F035AB2264B1B895BB28B
:1018D0001B015BB213435BB2DAB21A4B9A71194B1C
:1018E000DB7D23F00C03DAB2164BDA751E4B1B7846
:1018F00083F00103DBB2002B05D00A231922114922
:101900000B4802F02CFD194B1B8801339AB2174B80
:101910001A800B4B00221A704FF40041144801F05A
:1019200018FC55E770040020840200208804002081
:10193000C8020020A4850008F8010020DC8500080A
:10194000920400209804002030040020B1040020FC
:101950008004002000000020820400208104002078
:10196000830400204C040020B204002096040020D0
:101970000004024080B594B000AF07F1200330228C
:101980000021184604F006FE07F10C0300221A603D
:101990005A609A60DA601A610023BB60274B1B6CA7
:1019A000264A43F080531364244B1B6C03F080538E
:1019B000BB60BB6800237B60214B1B68204A43F45B
:1019C000404313601E4B1B6803F440437B607B68FD
:1019D00002233B620123FB6210233B630223BB63B0
:1019E0000023FB6308233B6464237B640223BB6402
:1019F0000423FB6407F12003184601F0C5FB0346EE
:101A0000002B01D000F062F90F23FB6002233B6141
:101A100000237B614FF48053BB610023FB6107F11E
:101A20000C030321184601F027FE0346002B01D0CA
:101A300000F04CF900BF5037BD4680BD0038024071
:101A40000070004080B586B000AF07F108030022A7
:101A50001A605A609A60DA603B4600221A605A6047
:101A60001D4B1E4A1A601C4B40F2E7325A601A4B5B
:101A700000229A60184B40F2E732DA60164B0022DF
:101A80001A61154B00229A61134801F0D5FF0346F5
:101A9000002B01D000F01AF94FF48053BB6007F11E
:101AA000080319460C4802F081F90346002B01D0C7
:101AB00000F00CF900233B6000237B603B46194695
:101AC000054802F07DFB0346002B01D000F0FEF834
:101AD00000BF1837BD4680BDF8010020000400405B
:101AE00080B500AF114B124A1A60104B4FF4E1322F
:101AF0005A600E4B00229A600C4B0022DA600B4BAE
:101B000000221A61094B0C225A61084B00229A618B
:101B1000064B0022DA61054802F0D4FB0346002B95
:101B200001D000F0D3F800BF80BD00BF400200200C
:101B30000010014080B500AF114B124A1A60104BE3
:101B40004FF4E1325A600E4B00229A600C4B002297
:101B5000DA600B4B00221A61094B0C225A61084BC8
:101B600000229A61064B0022DA61054802F0AAFBC6
:101B70000346002B01D000F0A9F800BF80BD00BFD4
:101B8000840200200044004080B500AF124B134A8D
:101B90001A60114B124A5A600F4B4FF480529A60F0
:101BA0000D4B4FF40052DA600B4B4FF480621A6118
:101BB000094B0C225A61084B00229A61064B002205
:101BC000DA61054802F07EFB0346002B01D000F0ED
:101BD0007DF800BF80BD00BFC80200200014014096
:101BE000A086010080B582B000AF00237B60144B5B
:101BF0001B6B134A43F480031363114B1B6B03F4F9
:101C000080037B607B6800220021392000F0BFFC4C
:101C1000392000F0D8FC002200213A2000F0B7FC67
:101C20003A2000F0D0FC00220021462000F0AFFC5A
:101C3000462000F0C8FC00BF0837BD4680BD00BF8D
:101C40000038024080B588B000AF07F10C030022D5
:101C50001A605A609A60DA601A610023BB60194BFF
:101C60001B6B184A43F001031363164B1B6B03F005
:101C70000103BB60BB6800237B60124B1B6B114AE6
:101C800043F0020313630F4B1B6B03F002037B60F3
:101C90007B6800224FF400410B4801F041FA4FF4F9
:101CA0000043FB6001233B6100237B610023BB6198
:101CB00007F10C031946044801F0AEF800BF2037C5
:101CC000BD4680BD003802400004024080B400AF31
:101CD00072B600BF00BFFDE780B483B000AF002341
:101CE0007B60104B5B6C0F4A43F4804353640D4B95
:101CF0005B6C03F480437B607B6800233B60094B93
:101D00001B6C084A43F080531364064B1B6C03F0B2
:101D100080533B603B6800BF0C37BD465DF8047BD9
:101D2000704700BF0038024080B584B000AF7860D3
:101D30007B681B680E4A934215D10023FB600D4B54
:101D40001B6C0C4A43F0020313640A4B1B6C03F038
:101D50000203FB60FB68002200211D2000F017FC3D
:101D60001D2000F030FC00BF1037BD4680BD00BF15
:101D7000000400400038024080B58EB000AF7860AB
:101D800007F1240300221A605A609A60DA601A612F
:101D90007B681B689D4A934240F0918000233B6220
:101DA0009B4B5B6C9A4A43F010035364984B5B6CFB
:101DB00003F010033B623B6A0023FB61944B1B6BF7
:101DC000934A43F002031363914B1B6B03F002032E
:101DD000FB61FB69C0237B620223BB620023FB62C1
:101DE00003233B6307237B6307F1240319468948D8
:101DF00001F012F8884B894A1A60874B4FF0006255
:101E00005A60854B40229A60834B0022DA60824BF5
:101E10004FF480621A61804B00225A617E4B00228F
:101E20009A617D4B0022DA617B4B00221A627A4B69
:101E300000225A62784800F0E1FB0346002B01D0F3
:101E4000FFF744FF7B68744A5A63734A7B68936365
:101E5000734B744A1A60724B4FF000625A60704BB9
:101E600000229A606E4B0022DA606D4B4FF4806264
:101E70001A616B4B00225A61694B00229A61684BD0
:101E80000022DA61664B00221A62654B00225A6218
:101E9000634800F0B3FB0346002B01D0FFF716FFA9
:101EA0007B685F4A9A635E4A7B68936300220021E5
:101EB000252000F06CFB252000F085FBA2E07B686C
:101EC0001B68594A934234D10023BB61504B1B6CB1
:101ED0004F4A43F4003313644D4B1B6C03F400333F
:101EE000BB61BB6900237B61494B1B6B484A43F0D4
:101EF00001031363464B1B6B03F001037B617B699A
:101F00000C237B620223BB620023FB6203233B633F
:101F100007237B6307F124031946444800F07CFF44
:101F200000220021262000F032FB262000F04BFB8F
:101F300068E07B681B683E4A934263D100233B61A3
:101F4000334B5B6C324A43F020035364304B5B6C81
:101F500003F020033B613B690023FB602C4B1B6BB0
:101F60002B4A43F001031363294B1B6B03F001035E
:101F7000FB60FB684FF4C0537B620223BB6200230B
:101F8000FB6203233B6308237B6307F124031946A9
:101F9000264800F041FF274B274A1A60254B4FF097
:101FA00020625A60234B00229A60224B0022DA60A2
:101FB000204B4FF480621A611E4B00225A611D4B68
:101FC00000229A611B4B4FF48072DA61194B002298
:101FD0001A62184B00225A62164800F00FFB0346A3
:101FE000002B01D0FFF772FE7B68124A9A63114AF8
:101FF0007B68936300220021472000F0C8FA472045
:1020000000F0E1FA00BF3837BD4680BD0010014046
:1020100000380240000402400C030020B864024073
:102020006C03002040640240004400400000024075
:1020300000140140CC0300202864024080B400AFAB
:1020400000BFFDE780B400AF00BFFDE780B400AF84
:1020500000BFFDE780B400AF00BFFDE780B400AF74
:1020600000BFFDE780B400AF00BFBD465DF8047B54
:10207000704780B400AF00BFBD465DF8047B704779
:1020800080B400AF00BFBD465DF8047B704780B5EB
:1020900000AF00F081F900BF80BD000080B500AF47
:1020A000024801F07BFD00BF80BD00BFF8010020A9
:1020B00080B500AF024802F0E7FA00BF80BD00BF64
:1020C0004002002080B500AF024802F0DDFA00BFF8
:1020D00080BD00BF8402002080B500AF024800F040
:1020E00025FC00BF80BD00BFCC03002080B500AF41
:1020F000024800F01BFC00BF80BD00BF6C03002045
:1021000080B500AF024800F011FC00BF80BD00BFE9
:102110000C03002080B500AF024802F0B5FA00BF02
:1021200080BD00BFC802002080B400AF0123184664
:10213000BD465DF8047B704780B582B000AF786023
:10214000396004F079FA034616221A604FF0FF3323
:1021500018460837BD4680BD80B582B000AF7860B4
:102160004FF0FF317868FFF7E7FF00BFFDE780B56C
:1021700086B000AFF860B9607A6000237B610AE046
:10218000AFF300800146BB685A1CBA60CAB21A702D
:102190007B6901337B617A697B689A42F0DB7B68FB
:1021A00018461837BD4680BD80B483B000AF786054
:1021B0004FF0FF3318460C37BD465DF8047B70477F
:1021C00080B483B000AF786039603B684FF4005250
:1021D0005A60002318460C37BD465DF8047B7047F3
:1021E00080B483B000AF7860012318460C37BD4639
:1021F0005DF8047B704780B485B000AFF860B960CB
:102200007A60002318461437BD465DF8047B70479A
:1022100080B586B000AF7860144A154BD31A7B6145
:102220007B693B61134B1B68002B02D1114B124A97
:102230001A60104B1A687B6813443A699A4207D2B5
:1022400004F0FAF903460C221A604FF0FF3309E05C
:10225000084B1B68FB60074B1A687B681344054AF0
:102260001360FB6818461837BD4680BD0000022089
:1022700000040000B40400200806002080B400AF71
:10228000064BD3F88830054A43F47003C2F888300F
:1022900000BFBD465DF8047B704700BF00ED00E065
:1022A000DFF834D00D480E490E4A002302E0D4581E
:1022B000C4500433C4188C42F9D30B4A0B4C00238E
:1022C00001E013600432A242FBD3FFF7D7FF04F012
:1022D000B9F9FFF755FA704700000220000000200E
:1022E000DC010020948B0008DC010020080600209F
:1022F000FEE7000080B500AF0E4B1B680D4A43F4AB
:10230000007313600B4B1B680A4A43F4806313602D
:10231000084B1B68074A43F480731360032000F0E6
:102320002BF90F2000F008F8FFF7D6FC0023184621
:1023300080BD00BF003C024080B582B000AF786035
:10234000124B1A68124B1B7819464FF47A73B3FB81
:10235000F1F3B2FBF3F3184600F043F90346002B08
:1023600001D001230EE07B680F2B0AD80022796888
:102370004FF0FF3000F00BF9064A7B681360002332
:1023800000E0012318460837BD4680BD0800002044
:10239000100000200C00002080B400AF064B1B781A
:1023A0001A46064B1B681344044A136000BFBD461F
:1023B0005DF8047B704700BF10000020B8040020C7
:1023C00080B400AF034B1B681846BD465DF8047B24
:1023D000704700BFB804002080B485B000AF7860BB
:1023E0007B6803F00703FB600C4BDB68BB60BA68DB
:1023F0004FF6FF031340BB60FB681A02BB68134330
:1024000043F0BF6343F40033BB60044ABB68D3604E
:1024100000BF1437BD465DF8047B704700ED00E057
:1024200080B400AF044BDB681B0A03F007031846B7
:10243000BD465DF8047B704700ED00E080B483B0DA
:1024400000AF0346FB7197F90730002B0BDBFB79DC
:1024500003F01F02074997F907305B09012000FAD2
:1024600002F241F8232000BF0C37BD465DF8047B23
:10247000704700BF00E100E080B483B000AF0346C6
:102480003960FB7197F90730002B0ADB3B68DAB241
:102490000C4997F907301201D2B20B4483F800239C
:1024A0000AE03B68DAB20849FB7903F00F03043B0A
:1024B0001201D2B20B441A7600BF0C37BD465DF84C
:1024C000047B704700E100E000ED00E080B489B0DB
:1024D00000AFF860B9607A60FB6803F00703FB6146
:1024E000FB69C3F10703042B28BF0423BB61FB690D
:1024F0000433062B02D9FB69033B00E000237B6118
:102500004FF0FF32BB6902FA03F3DA43BB681A40AB
:102510007B699A404FF0FF317B6901FA03F3D9439D
:102520007B680B40134318462437BD465DF8047B97
:102530007047000080B582B000AF78607B68013BD7
:10254000B3F1807F01D301230FE00A4A7B68013B8E
:1025500053600F214FF0FF30FFF78EFF054B002235
:102560009A60044B07221A60002318460837BD46BC
:1025700080BD00BF10E000E080B582B000AF7860A1
:102580007868FFF729FF00BF0837BD4680BD80B5DA
:1025900086B000AF0346B9607A60FB7300237B61AD
:1025A000FFF73EFF78617A68B9687869FFF78EFFB8
:1025B000024697F90F3011461846FFF75DFF00BF3E
:1025C0001837BD4680BD80B582B000AF0346FB71B1
:1025D00097F907301846FFF731FF00BF0837BD46AF
:1025E00080BD80B582B000AF78607868FFF7A2FF49
:1025F000034618460837BD4680BD000080B586B04A
:1026000000AF786000237B61FFF7DAFE38617B68FA
:10261000002B01D1012399E07B68022283F8352049
:102620007B68002283F834207B681B681A687B680B
:102630001B6822F001021A600FE0FFF7C1FE02469C
:102640003B69D31A052B08D97B6820225A657B6821
:10265000032283F83520032378E07B681B681B681E
:1026600003F00103002BE8D17B681B681B687B61CA
:102670007A69384B13407B617B685A687B689B683A
:102680001A437B68DB681A437B681B691A437B68C3
:102690005B691A437B689B691A437B68DB691A4351
:1026A0007B681B6A13437A6913437B617B685B6AAF
:1026B000042B07D17B68DA6A7B681B6B13437A694A
:1026C00013437B617B681B687A691A607B681B68AF
:1026D0005B697B617B6923F007037B617B685B6AD5
:1026E0007A6913437B617B685B6A042B17D17B6833
:1026F0009B6A7A6913437B617B68DB6A002B0ED08F
:10270000786800F00DFB0346002B08D07B68402260
:102710005A657B68012283F83520012316E07B6827
:102720001B687A695A61786800F0C4FA0346FB6056
:102730007B68DB6D3F229A40FB689A607B680022D1
:102740005A657B68012283F8352000231846183724
:10275000BD4680BD3F8010F080B586B000AFF86008
:10276000B9607A603B600023FB75FB689B6D3B6141
:10277000FB6893F83430012B01D1022340E0FB6861
:10278000012283F83420FB6893F83530DBB2012B4B
:102790002FD1FB68022283F83520FB6800225A659E
:1027A0003B687A68B968F86800F056FAFB68DB6D38
:1027B0003F229A403B699A60FB681B681A68FB6875
:1027C0001B6842F016021A60FB681B6C002B07D0D6
:1027D000FB681B681A68FB681B6842F008021A60F5
:1027E000FB681B681A68FB681B6842F001021A60EC
:1027F00005E0FB68002283F834200223FB75FB7D93
:1028000018461837BD4680BD80B584B000AF7860EB
:102810007B689B6DFB60FFF7D3FDB8607B6893F826
:102820003530DBB2022B08D07B6880225A657B688A
:10283000002283F83420012352E07B681B681A6869
:102840007B681B6822F016021A607B681B685A6955
:102850007B681B6822F080025A617B681B6C002B2E
:1028600003D17B689B6C002B07D07B681B681A68C0
:102870007B681B6822F008021A607B681B681A6874
:102880007B681B6822F001021A6013E0FFF798FDD5
:102890000246BB68D31A052B0CD97B6820225A65E7
:1028A0007B68032283F835207B68002283F834207C
:1028B000032315E07B681B681B6803F00103002BF2
:1028C000E4D17B68DB6D3F229A40FB689A607B68AD
:1028D000012283F835207B68002283F8342000230E
:1028E00018461037BD4680BD80B483B000AF786015
:1028F0007B6893F83530DBB2022B04D07B688022F2
:102900005A6501230CE07B68052283F835207B683B
:102910001B681A687B681B6822F001021A6000239A
:1029200018460C37BD465DF8047B704780B586B00D
:1029300000AF78600023BB608E4B1B688E4AA2FB01
:1029400003239B0A7B617B689B6D3B613B691B6832
:10295000FB607B68DB6D08229A40FB681340002B0C
:102960001AD07B681B681B6803F00403002B13D08C
:102970007B681B681A687B681B6822F004021A6077
:102980007B68DB6D08229A403B699A607B685B6DCF
:1029900043F001027B685A657B68DB6D01229A4037
:1029A000FB681340002B12D07B681B685B6903F047
:1029B0008003002B0BD07B68DB6D01229A403B69C2
:1029C0009A607B685B6D43F002027B685A657B68A6
:1029D000DB6D04229A40FB681340002B12D07B6809
:1029E0001B681B6803F00203002B0BD07B68DB6DB8
:1029F00004229A403B699A607B685B6D43F0040255
:102A00007B685A657B68DB6D10229A40FB68134037
:102A1000002B43D07B681B681B6803F00803002B66
:102A20003CD07B68DB6D10229A403B699A607B68E2
:102A30001B681B6803F48023002B18D07B681B687D
:102A40001B6803F40023002B08D17B681B6C002B50
:102A500024D07B681B6C786898471FE07B689B6C70
:102A6000002B1BD07B689B6C7868984716E07B68CE
:102A70001B681B6803F48073002B07D17B681B68FD
:102A80001A687B681B6822F008021A607B681B6C5E
:102A9000002B03D07B681B6C786898477B68DB6DE4
:102AA00020229A40FB681340002B00F08F807B6847
:102AB0001B681B6803F01003002B00F087807B6805
:102AC000DB6D20229A403B699A607B6893F8353031
:102AD000DBB2052B36D17B681B681A687B681B68E4
:102AE00022F016021A607B681B685A697B681B68B3
:102AF00022F080025A617B681B6C002B03D17B683B
:102B00009B6C002B07D07B681B681A687B681B686E
:102B100022F008021A607B68DB6D3F229A403B6915
:102B20009A607B68012283F835207B68002283F855
:102B300034207B681B6D002B7ED07B681B6D786812
:102B4000984779E07B681B681B6803F48023002B9F
:102B50001DD07B681B681B6803F40023002B0DD17C
:102B60007B685B6C002B31D07B685B6C7868984726
:102B70002CE000BF08000020B5814E1B7B68DB6B9A
:102B8000002B23D07B68DB6B786898471EE07B685E
:102B90001B681B6803F48073002B0FD17B681B68D4
:102BA0001A687B681B6822F010021A607B68012299
:102BB00083F835207B68002283F834207B68DB6B48
:102BC000002B03D07B68DB6B786898477B685B6D74
:102BD000002B32D07B685B6D03F00103002B22D009
:102BE0007B68052283F835207B681B681A687B6840
:102BF0001B6822F001021A60BB680133BB607A696E
:102C00009A4207D37B681B681B6803F00103002B03
:102C1000F2D100E000BF7B68012283F835207B6899
:102C2000002283F834207B68DB6C002B05D07B68A6
:102C3000DB6C7868984700E000BF1837BD4680BD60
:102C400080B483B000AF78607B685B6D18460C374A
:102C5000BD465DF8047B704780B485B000AFF86076
:102C6000B9607A603B60FB681B681A68FB681B6888
:102C700022F480221A60FB681B683A685A60FB687D
:102C80009B68402B08D1FB681B687A689A60FB68D8
:102C90001B68BA68DA6007E0FB681B68BA689A606C
:102CA000FB681B687A68DA6000BF1437BD465DF8C0
:102CB000047B704780B485B000AF78607B681B6888
:102CC000DBB2103B144AA2FB03231B09FB60134A2F
:102CD000FB6813441B781A467B68DA65FB68032B94
:102CE00009D97B681B6823F47F7323F003031A1D43
:102CF0007B689A6507E07B681B6823F47F7323F089
:102D000003037A6893657B689B6D18461437BD464C
:102D10005DF8047B704700BFABAAAAAA0888000828
:102D200080B485B000AF78600023FB737B689B6A3A
:102D3000BB607B689B69002B1FD1BB68032B56D8F7
:102D400001A252F823F000BF592D00086B2D000896
:102D5000592D0008EF2D00087B68DB6A03F08073B3
:102D6000002B46D00123FB7343E07B68DB6AB3F1A1
:102D7000C07F40D10123FB733DE07B689B69B3F5C5
:102D8000005F21D1BB68032B37D801A252F823F092
:102D9000A12D0008A72D0008A12D0008B92D0008BD
:102DA0000123FB7330E07B68DB6A03F08073002B48
:102DB00025D00123FB7322E07B68DB6AB3F1C07F7F
:102DC0001FD10123FB731CE0BB68022B03D9BB6836
:102DD000032B03D018E00123FB7315E07B68DB6A4B
:102DE00003F08073002B0ED00123FB730BE000BFB8
:102DF0000AE000BF08E000BF06E000BF04E000BF3B
:102E000002E000BF00E000BFFB7B18461437BD4660
:102E10005DF8047B704700BF80B489B000AF786074
:102E2000396000237B6100233B610023BB610023E9
:102E3000FB6159E10122FB6902FA03F37B613B6804
:102E40001B687A6913403B613A697B699A4240F09A
:102E500048813B685B6803F00303012B05D03B68A6
:102E60005B6803F00303022B30D17B689B68BB6176
:102E7000FB695B00032202FA03F3DB43BA691340E8
:102E8000BB613B68DA68FB695B0002FA03F3BA696D
:102E90001343BB617B68BA699A607B685B68BB61FE
:102EA0000122FB6902FA03F3DB43BA691340BB61F9
:102EB0003B685B681B0903F00102FB6902FA03F33C
:102EC000BA691343BB617B68BA695A603B685B6847
:102ED00003F00303032B17D07B68DB68BB61FB693E
:102EE0005B00032202FA03F3DB43BA691340BB61C0
:102EF0003B689A68FB695B0002FA03F3BA69134303
:102F0000BB617B68BA69DA603B685B6803F0030306
:102F1000022B23D1FB69DA087B68083253F8223090
:102F2000BB61FB6903F007039B000F2202FA03F366
:102F3000DB43BA691340BB613B681A69FB6903F064
:102F400007039B0002FA03F3BA691343BB61FB69F1
:102F5000DA087B680832B96943F822107B681B687D
:102F6000BB61FB695B00032202FA03F3DB43BA692E
:102F70001340BB613B685B6803F00302FB695B00C5
:102F800002FA03F3BA691343BB617B68BA691A603A
:102F90003B685B6803F44033002B00F0A280002301
:102FA000FB60574B5B6C564A43F480435364544B6D
:102FB0005B6C03F48043FB60FB68524AFB699B082F
:102FC000023352F82330BB61FB6903F003039B001B
:102FD0000F2202FA03F3DB43BA691340BB617B683B
:102FE000494A934219D07B68484A934213D07B6880
:102FF000474A93420DD07B68464A934207D07B688C
:10300000454A934201D1042308E0072306E0032345
:1030100004E0022302E0012300E00023FA6902F049
:10302000030292009340BA691343BB613549FB69BF
:103030009B080233BA6941F82320384B9B68BB6177
:103040003B69DB43BA691340BB613B685B6803F4CF
:103050008013002B03D0BA693B691343BB612F4A2D
:10306000BB6993602D4BDB68BB613B69DB43BA698D
:103070001340BB613B685B6803F40013002B03D073
:10308000BA693B691343BB61244ABB69D360234BD4
:103090005B68BB613B69DB43BA691340BB613B685A
:1030A0005B6803F40033002B03D0BA693B69134318
:1030B000BB611A4ABB695360184B1B68BB613B6913
:1030C000DB43BA691340BB613B685B6803F4803340
:1030D000002B03D0BA693B691343BB610F4ABB693C
:1030E0001360FB690133FB61FB690F2B7FF6A2AE16
:1030F00000BF00BF2437BD465DF8047B704700BFAA
:103100000038024000380140000002400004024044
:1031100000080240000C024000100240003C014048
:1031200080B483B000AF78600B467B8013467B7021
:103130007B78002B03D07A887B689A6103E07B88D8
:103140001A047B689A6100BF0C37BD465DF8047BAA
:10315000704780B485B000AF78600B467B807B6899
:103160005B69FB607A88FB6813401A04FB68D943EB
:103170007B880B401A437B689A6100BF1437BD46B9
:103180005DF8047B7047000080B586B000AF7860C2
:103190007B68002B01D1012367E27B681B6803F089
:1031A0000103002B75D0884B9B6803F00C03042BA4
:1031B0000CD0854B9B6803F00C03082B12D1824B7B
:1031C0005B6803F48003B3F5800F0BD17E4B1B6863
:1031D00003F40033002B5BD07B685B68002B57D176
:1031E000012342E27B685B68B3F5803F06D1764BF2
:1031F0001B68754A43F4803313601DE07B685B688D
:10320000B3F5A02F0CD1704B1B686F4A43F4802399
:1032100013606D4B1B686C4A43F4803313600BE002
:10322000694B1B68684A23F480331360664B1B6844
:10323000654A23F4802313607B685B68002B13D0FE
:10324000FFF7BEF8386108E0FFF7BAF802463B69BD
:10325000D31A642B01D9032307E25B4B1B6803F4E9
:103260000033002BF0D014E0FFF7AAF8386108E033
:10327000FFF7A6F802463B69D31A642B01D9032352
:10328000F3E1514B1B6803F40033002BF0D100E055
:1032900000BF7B681B6803F00203002B63D04A4B1E
:1032A0009B6803F00C03002B0BD0474B9B6803F08B
:1032B0000C03082B1CD1444B5B6803F48003002BE8
:1032C00016D1414B1B6803F00203002B05D07B682D
:1032D000DB68012B01D00123C7E13B4B1B6823F0C6
:1032E000F8027B681B69DB00374913430B603AE047
:1032F0007B68DB68002B20D0344B01221A60FFF77B
:103300005FF8386108E0FFF75BF802463B69D31AC3
:10331000022B01D90323A8E12B4B1B6803F0020306
:10332000002BF0D0284B1B6823F0F8027B681B6948
:10333000DB00254913430B6015E0244B00221A6083
:10334000FFF73EF8386108E0FFF73AF802463B69BC
:10335000D31A022B01D9032387E11B4B1B6803F00F
:103360000203002BF0D17B681B6803F00803002BDD
:1033700036D07B685B69002B16D0154B01221A6092
:10338000FFF71EF8386108E0FFF71AF802463B69BC
:10339000D31A022B01D9032367E10B4B5B6F03F0B8
:1033A0000203002BF0D01BE0094B00221A60FFF74C
:1033B00007F838610EE0FFF703F802463B69D31ABD
:1033C000022B07D9032350E1003802400000474296
:1033D000800E4742884B5B6F03F00203002BEAD15B
:1033E0007B681B6803F00403002B00F09780002328
:1033F000FB75814B1B6C03F08053002B0FD1002316
:10340000BB607D4B1B6C7C4A43F0805313647A4B4A
:103410001B6C03F08053BB60BB680123FB75774BCB
:103420001B6803F48073002B18D1744B1B68734A1C
:1034300043F480731360FEF7C3FF386108E0FEF7C2
:10344000BFFF02463B69D31A022B01D903230CE1CB
:103450006A4B1B6803F48073002BF0D07B689B6879
:10346000012B06D1644B1B6F634A43F001031367C2
:103470001CE07B689B68052B0CD15F4B1B6F5E4A81
:1034800043F0040313675C4B1B6F5B4A43F001037B
:1034900013670BE0584B1B6F574A23F00103136768
:1034A000554B1B6F544A23F0040313677B689B68DA
:1034B000002B15D0FEF784FF38610AE0FEF780FF8D
:1034C00002463B69D31A41F28832934201D9032361
:1034D000CBE0494B1B6F03F00203002BEED014E04E
:1034E000FEF76EFF38610AE0FEF76AFF02463B69AD
:1034F000D31A41F28832934201D90323B5E03E4BFF
:103500001B6F03F00203002BEED1FB7D012B05D1D5
:10351000394B1B6C384A23F0805313647B689B69DA
:10352000002B00F0A180344B9B6803F00C03082BA8
:103530005CD07B689B69022B41D1314B00221A6021
:10354000FEF73EFF386108E0FEF73AFF02463B69AE
:10355000D31A022B01D9032387E0274B1B6803F002
:103560000073002BF0D17B68DA697B681B6A1A4311
:103570007B685B6A9B011A437B689B6A5B08013B23
:103580001B041A437B68DB6A1B061B4913434B6011
:103590001B4B01221A60FEF713FF386108E0FEF7AB
:1035A0000FFF02463B69D31A022B01D903235CE0CB
:1035B000114B1B6803F00073002BF0D054E0104B4C
:1035C00000221A60FEF7FCFE386108E0FEF7F8FE04
:1035D00002463B69D31A022B01D9032345E0064B6F
:1035E0001B6803F00073002BF0D13DE07B689B6902
:1035F000012B07D1012338E0003802400070004061
:10360000600047421B4B5B68FB607B689B69012B3A
:1036100028D0FB6803F480027B68DB699A4221D1E1
:10362000FB6803F03F027B681B6A9A421AD1FA6872
:1036300047F6C07313407A68526A9201934211D1DF
:10364000FB6803F440327B689B6A5B08013B1B0408
:103650009A4207D1FB6803F070627B68DB6A1B0645
:103660009A4201D0012300E0002318461837BD46D6
:1036700080BD00BF0038024080B584B000AF7860E4
:1036800039607B68002B01D10123CCE0684B1B68BB
:1036900003F007033A689A420CD9654B3A68D2B2F4
:1036A0001A70634B1B6803F007033A689A4201D013
:1036B0000123B8E07B681B6803F00203002B20D0D5
:1036C0007B681B6803F00403002B05D0594B9B68F3
:1036D000584A43F4E05393607B681B6803F0080387
:1036E000002B05D0534B9B68524A43F460439360D0
:1036F000504B9B6823F0F0027B689B684D49134355
:103700008B607B681B6803F00103002B44D07B684F
:103710005B68012B07D1474B1B6803F40033002B78
:1037200019D101237FE07B685B68022B03D07B68A3
:103730005B68032B07D13F4B1B6803F00073002B22
:1037400009D101236FE03B4B1B6803F00203002B00
:1037500001D1012367E0374B9B6823F003027B68AC
:103760005B68344913438B60FEF72AFEF8600AE079
:10377000FEF726FE0246FB68D31A41F288329342D6
:1037800001D903234FE02B4B9B6803F00C027B68AD
:103790005B689B009A42EBD1254B1B6803F0070343
:1037A0003A689A420CD2224B3A68D2B21A70204B35
:1037B0001B6803F007033A689A4201D0012332E004
:1037C0007B681B6803F00403002B08D0194B9B682F
:1037D00023F4E0527B68DB68164913438B607B68F7
:1037E0001B6803F00803002B09D0124B9B6823F4DD
:1037F00060427B681B69DB000E4913438B6000F05D
:1038000021F802460B4B9B681B0903F00F030A4982
:10381000CB5C22FA03F3094A1360094B1B68184674
:10382000FEF78AFD002318461037BD4680BD00BF55
:10383000003C024000380240F087000808000020E9
:103840000C0000202DE9B04F90B000AF00237B6347
:103850000023FB6300233B630023BB63594B9B683E
:1038600003F00C03082B0DD0082B00F2A180002BD5
:1038700002D0042B03D09BE0534BBB639BE0534B24
:10388000BB6398E04F4B5B6803F03F037B634D4B9A
:103890005B6803F48003002B28D04A4B5B689B09CC
:1038A00000223B627A623B6AC3F308000021474B67
:1038B00003FB01F2002300FB03F31344434AA0FB84
:1038C0000212FA620A46BA62FA6A1344FB627B6B1E
:1038D0000022BB61FA61D7E90623D7E90A01FDF7A7
:1038E0006BF902460B461346FB6353E0354B5B68AE
:1038F0009B0900223B617A613B69C3F3080A4FF0E0
:10390000000B52465B464FF000004FF0000159019A
:1039100041EAD261500102460B46B2EB0A0863EB62
:103920000B094FF000024FF000034FEA891343EAFE
:1039300098634FEA8812B2EB080463EB09054FF075
:1039400000024FF00003EB0043EA5473E200144618
:103950001D4614EB0A033B6045EB0B037B604FF005
:1039600000024FF00003D7E9004529468B022146AB
:1039700043EA915321468A02104619467B6B002286
:10398000BB60FA60D7E90223FDF716F902460B4641
:103990001346FB630B4B5B681B0C03F00303013303
:1039A0005B003B63FA6B3B6BB2FBF3F3BB6302E080
:1039B000054BBB6300BFBB6B18464037BD46BDE837
:1039C000B08F00BF003802400024F40040787D0131
:1039D00080B400AF034B1B681846BD465DF8047BFE
:1039E000704700BF0800002080B500AFFFF7F0FF70
:1039F0000246054B9B689B0A03F007030349CB5C17
:103A000022FA03F3184680BD0038024000880008FF
:103A100080B500AFFFF7DCFF0246054B9B685B0BF0
:103A200003F007030349CB5C22FA03F3184680BD79
:103A3000003802400088000880B582B000AF78608E
:103A40007B68002B01D1012341E07B6893F83D3076
:103A5000DBB2002B06D17B68002283F83C2078681B
:103A6000FEF762F97B68022283F83D207B681A68C2
:103A70007B6804331946104600F088FA7B680122FF
:103A800083F846207B68012283F83E207B68012270
:103A900083F83F207B68012283F840207B68012265
:103AA00083F841207B68012283F842207B68012251
:103AB00083F843207B68012283F844207B6801223D
:103AC00083F845207B68012283F83D2000231846B7
:103AD0000837BD4680BD000080B485B000AF786077
:103AE0007B6893F83D30DBB2012B01D0012344E029
:103AF0007B68022283F83D207B681B68DA687B685C
:103B00001B6842F00102DA607B681B681E4A934220
:103B100018D07B681B68B3F1804F13D07B681B689B
:103B20001A4A93420ED07B681B68194A934209D007
:103B30007B681B68174A934204D07B681B68164A4F
:103B4000934211D17B681B689B6803F00703FB60FD
:103B5000FB68062B10D07B681B681A687B681B68A3
:103B600042F001021A6007E07B681B681A687B68F4
:103B70001B6842F001021A60002318461437BD4644
:103B80005DF8047B704700BF000001400004004066
:103B900000080040000C00400040014080B582B0A9
:103BA00000AF78607B681B681B6903F00203022B7F
:103BB00022D17B681B68DB6803F00203022B1BD158
:103BC0007B681B686FF002021A617B6801221A771A
:103BD0007B681B689B6903F00303002B03D07868A4
:103BE00000F0B5F905E0786800F0A7F9786800F012
:103BF000B8F97B6800221A777B681B681B6903F0A1
:103C00000403042B22D17B681B68DB6803F00403E8
:103C1000042B1BD17B681B686FF004021A617B6860
:103C200002221A777B681B689B6903F44073002BA0
:103C300003D0786800F08BF905E0786800F07DF932
:103C4000786800F08EF97B6800221A777B681B6821
:103C50001B6903F00803082B22D17B681B68DB6813
:103C600003F00803082B1BD17B681B686FF0080268
:103C70001A617B6804221A777B681B68DB6903F092
:103C80000303002B03D0786800F061F905E0786841
:103C900000F053F9786800F064F97B6800221A7725
:103CA0007B681B681B6903F01003102B22D17B6813
:103CB0001B68DB6803F01003102B1BD17B681B68AB
:103CC0006FF010021A617B6808221A777B681B6804
:103CD000DB6903F44073002B03D0786800F037F9F8
:103CE00005E0786800F029F9786800F03AF97B6817
:103CF00000221A777B681B681B6903F00103012B04
:103D00000ED17B681B68DB6803F00103012B07D130
:103D10007B681B686FF001021A617868FDF76EFB23
:103D20007B681B681B6903F08003802B0ED17B68C6
:103D30001B68DB6803F08003802B07D17B681B685E
:103D40006FF080021A61786800F0B2FA7B681B6835
:103D50001B6903F04003402B0ED17B681B68DB68B6
:103D600003F04003402B07D17B681B686FF04002D3
:103D70001A61786800F0FFF87B681B681B6903F024
:103D80002003202B0ED17B681B68DB6803F0200327
:103D9000202B07D17B681B686FF020021A617868BE
:103DA00000F07CFA00BF0837BD4680BD80B584B006
:103DB00000AF786039600023FB737B6893F83C3078
:103DC000012B01D10223B4E07B68012283F83C205F
:103DD0007B68022283F83D207B681B689B68BB6080
:103DE000BB6823F07703BB60BB6823F47F43BB60F1
:103DF0007B681B68BA689A603B681B68B3F5005F14
:103E00003ED0B3F5005F00F28780B3F5805F00F02D
:103E10008680B3F5805F7FD8702B1AD0702B7BD84B
:103E2000602B50D0602B77D8502B3CD0502B73D8C0
:103E3000402B58D0402B6FD8302B64D0302B6BD810
:103E4000202B60D0202B67D8002B5CD0102B5AD0B1
:103E500062E07B6818683B6899683B685A683B6811
:103E6000DB6800F08DF97B681B689B68BB60BB68F2
:103E700043F07703BB607B681B68BA689A604FE0C9
:103E80007B6818683B6899683B685A683B68DB68E0
:103E900000F076F97B681B689A687B681B6842F4BF
:103EA00080429A603CE07B6818683B6859683B68D0
:103EB000DB681A4600F0EAF87B681B685021184658
:103EC00000F043F92CE07B6818683B6859683B6850
:103ED000DB681A4600F009F97B681B686021184608
:103EE00000F033F91CE07B6818683B6859683B6850
:103EF000DB681A4600F0CAF87B681B684021184648
:103F000000F023F90CE07B681A683B681B681946CF
:103F1000104600F01AF903E00123FB7300E000BF34
:103F20007B68012283F83D207B68002283F83C20D7
:103F3000FB7B18461037BD4680BD80B483B000AF10
:103F4000786000BF0C37BD465DF8047B704780B4D5
:103F500083B000AF786000BF0C37BD465DF8047BCE
:103F6000704780B483B000AF786000BF0C37BD46A7
:103F70005DF8047B704780B483B000AF786000BF09
:103F80000C37BD465DF8047B7047000080B485B0F7
:103F900000AF786039607B681B68FB607B68344ADF
:103FA00093420FD07B68B3F1804F0BD07B68314ACE
:103FB000934207D07B68304A934203D07B682F4AF4
:103FC000934208D1FB6823F07003FB603B685B6899
:103FD000FA681343FB607B68254A93421BD07B68D9
:103FE000B3F1804F17D07B68224A934213D07B688D
:103FF000214A93420FD07B68204A93420BD07B68C2
:104000001F4A934207D07B681E4A934203D07B68C5
:104010001D4A934208D1FB6823F44073FB603B6860
:10402000DB68FA681343FB60FB6823F080023B689F
:104030005B691343FB607B68FA681A603B689A68A7
:104040007B68DA623B681A687B689A627B68084A18
:10405000934203D13B681A697B681A637B6801222B
:104060005A6100BF1437BD465DF8047B704700BF3E
:10407000000001400004004000080040000C004027
:1040800000400140004401400048014080B487B036
:1040900000AFF860B9607A60FB681B6A7B61FB68FF
:1040A0001B6A23F00102FB681A62FB689B693B6193
:1040B0003B6923F0F0033B617B681B013A691343C2
:1040C0003B617B6923F00A037B617A69BB68134318
:1040D0007B61FB683A699A61FB687A691A6200BF82
:1040E0001C37BD465DF8047B704780B487B000AFD5
:1040F000F860B9607A60FB681B6A23F01002FB6805
:104100001A62FB689B697B61FB681B6A3B617B6988
:1041100023F470437B617B681B037A6913437B61E3
:104120003B6923F0A0033B61BB681B013A69134361
:104130003B61FB687A699A61FB683A691A6200BF61
:104140001C37BD465DF8047B704780B485B000AF76
:10415000786039607B689B68FB60FB6823F07003C4
:10416000FB603A68FB68134343F00703FB607B681E
:10417000FA689A6000BF1437BD465DF8047B70474B
:1041800080B487B000AFF860B9607A603B60FB68CC
:104190009B687B617B6923F47F437B613B681A02E8
:1041A0007B681A43BB6813437A6913437B61FB68DE
:1041B0007A699A6000BF1C37BD465DF8047B704782
:1041C00080B485B000AF786039607B6893F83C308C
:1041D000012B01D1022350E07B68012283F83C20AF
:1041E0007B68022283F83D207B681B685B68FB606C
:1041F0007B681B689B68BB60FB6823F07003FB60F7
:104200003B681B68FA681343FB607B681B68FA68AD
:104210005A607B681B681C4A934218D07B681B68F5
:10422000B3F1804F13D07B681B68184A93420ED0BD
:104230007B681B68164A934209D07B681B68154A45
:10424000934204D07B681B68134A93420CD1BB682D
:1042500023F08003BB603B685B68BA681343BB60B4
:104260007B681B68BA689A607B68012283F83D20EE
:104270007B68002283F83C20002318461437BD4693
:104280005DF8047B704700BF00000140000400405F
:1042900000080040000C00400040014080B483B0A2
:1042A00000AF786000BF0C37BD465DF8047B7047F7
:1042B00080B483B000AF786000BF0C37BD465DF8B6
:1042C000047B704780B582B000AF78607B68002BBC
:1042D00001D101233FE07B6893F83D30DBB2002B36
:1042E00006D17B68002283F83C207868FDF744FD06
:1042F0007B68242283F83D207B681B68DA687B6832
:104300001B6822F40052DA60786801F06FF87B686D
:104310001B681A697B681B6822F490421A617B68EB
:104320001B685A697B681B6822F02A025A617B6805
:104330001B68DA687B681B6842F40052DA607B68AD
:1043400000221A647B68202283F83D207B682022AB
:1043500083F83E20002318460837BD4680BD80B54F
:104360008AB002AFF860B9603B601346FB8000235F
:104370007B61FB6893F83D30DBB2202B7CD1BB68BE
:10438000002B02D0FB88002B01D1012375E0FB68D4
:1043900093F83C30012B01D102236EE0FB6801222F
:1043A00083F83C20FB6800221A64FB68212283F812
:1043B0003D20FEF705F87861FB68FA889A84FB686F
:1043C000FA88DA84FB689B68B3F5805F08D1FB68E4
:1043D0001B69002B04D10023FB61BB68BB6103E0B8
:1043E000BB68FB610023BB61FB68002283F83C20B3
:1043F0002AE03B6800937B6900228021F86800F086
:10440000E9FC0346002B01D0032336E0FB69002BB7
:104410000BD1BB691B881A46FB681B68C2F30802F4
:104420005A60BB690233BB6107E0FB691A78FB681D
:104430001B685A60FB690133FB61FB68DB8C9BB234
:10444000013B9AB2FB68DA84FB68DB8C9BB2002BE1
:10445000CFD13B6800937B6900224021F86800F0CF
:10446000B9FC0346002B01D0032306E0FB682022A1
:1044700083F83D20002300E0022318462037BD4684
:1044800080BD80B584B000AFF860B9601346FB8092
:10449000FB6893F83E30DBB2202B1DD1BB68002BAC
:1044A00002D0FB88002B01D1012316E0FB6893F8B2
:1044B0003C30012B01D102230FE0FB68012283F87D
:1044C0003C20FB6800221A63FB881A46B968F8682A
:1044D00000F0EEFC034600E0022318461037BD460C
:1044E00080BD80B584B000AFF860B9601346FB8032
:1044F000FB6893F83E30DBB2202B1DD1BB68002B4C
:1045000002D0FB88002B01D1012316E0FB6893F851
:104510003C30012B01D102230FE0FB68012283F81C
:104520003C20FB6800221A63FB881A46B968F868C9
:1045300000F0FCFC034600E0022318461037BD469D
:1045400080BD80B59AB000AF78607B681B680C3383
:10455000BB64BB6C53E8003F7B647B6C23F49073BB
:104560007B667B681B680C337A6E7A653B65396DB8
:104570007A6D41E80023FB64FB6C002BE5D17B687E
:104580001B6814337B637B6B53E8003F3B633B6BDF
:1045900023F001033B667B681B6814333A6E3A6470
:1045A000FB63F96B3A6C41E80023BB63BB6B002BE8
:1045B000E5D17B681B6B012B19D17B681B680C3321
:1045C0003B623B6A53E8003FFB61FB6923F0100349
:1045D000FB657B681B680C33FA6DFA62BB62B96AD3
:1045E000FA6A41E800237B627B6A002BE5D17B6895
:1045F0001B685B6903F04003402B36D17B681B6866
:104600001433FB60FB6853E8003FBB60BB6823F0DA
:104610004003BB657B681B681433BA6DBA617B616C
:104620007969BA6941E800233B613B69002BE5D118
:104630007B689B6B002B18D07B689B6B00221A65F4
:104640007B689B6B1846FEF7DFF80346002B0CD007
:104650007B689B6B1846FEF7F3FA0346202B04D1C8
:104660007B6810221A6403230AE07B680022DA8543
:104670007B68202283F83E207B6800221A63002397
:1046800018466837BD4680BD80B5BAB000AF7860C7
:104690007B681B681B68C7F8E4307B681B68DB68B5
:1046A000C7F8E0307B681B685B69C7F8DC30002323
:1046B000C7F8D8300023C7F8D430D7F8E43003F077
:1046C0000F03C7F8D830D7F8D830002B0FD1D7F860
:1046D000E43003F02003002B09D0D7F8E03003F0DA
:1046E0002003002B03D0786800F0C5FD56E2D7F810
:1046F000D830002B00F0DE80D7F8DC3003F0010367
:10470000002B06D1D7F8E03003F49073002B00F0B3
:10471000D180D7F8E43003F00103002B0BD0D7F899
:10472000E03003F48073002B05D07B681B6C43F0F2
:1047300001027B681A64D7F8E43003F00403002B0D
:104740000BD0D7F8DC3003F00103002B05D07B68D9
:104750001B6C43F002027B681A64D7F8E43003F064
:104760000203002B0BD0D7F8DC3003F00103002B41
:1047700005D07B681B6C43F004027B681A64D7F891
:10478000E43003F00803002B11D0D7F8E03003F039
:104790002003002B05D1D7F8DC3003F00103002BF8
:1047A00005D07B681B6C43F008027B681A647B6849
:1047B0001B6C002B00F0ED81D7F8E43003F02003F0
:1047C000002B08D0D7F8E03003F02003002B02D0F4
:1047D000786800F050FD7B681B685B6903F040035C
:1047E000402B0CBF01230023DBB2C7F8D4307B6819
:1047F0001B6C03F00803002B03D1D7F8D430002B37
:104800004FD0786800F058FC7B681B685B6903F048
:104810004003402B41D17B681B681433C7F89C30A0
:10482000D7F89C3053E8003FC7F89830D7F8983055
:1048300023F04003C7F8D0307B681B681433D7F8E7
:10484000D020C7F8A820C7F8A430D7F8A410D7F80C
:10485000A82041E80023C7F8A030D7F8A030002BEB
:10486000D9D17B689B6B002B13D07B689B6B7D4AF7
:104870001A657B689B6B1846FEF736F80346002BDB
:1048800016D07B689B6B1B6D7A68926B10469847BD
:104890000EE07868FCF732FF0AE07868FCF72EFF3C
:1048A00006E07868FCF72AFF7B6800221A6470E152
:1048B00000BF6EE17B681B6B012B40F04A81D7F88B
:1048C000E43003F01003002B00F04381D7F8E03010
:1048D00003F01003002B00F03C810023BB607B68D9
:1048E0001B681B68BB607B681B685B68BB60BB6840
:1048F0007B681B685B6903F04003402B40F0B48089
:104900007B689B6B1B685B68A7F8BE30B7F8BE304E
:10491000002B00F040817B689B8DB7F8BE209A4247
:1049200080F039817B68B7F8BE20DA857B689B6BA5
:10493000DB69B3F5807F00F088807B681B680C33EF
:10494000C7F88830D7F8883053E8003FC7F884307C
:10495000D7F8843023F48073C7F8B8307B681B68BD
:104960000C33D7F8B820C7F89420C7F89030D7F8A0
:104970009010D7F8942041E80023C7F88C30D7F87E
:104980008C30002BD9D17B681B6814337B677B6F1D
:1049900053E8003F3B673B6F23F00103C7F8B43097
:1049A0007B681B681433D7F8B420C7F88020FB67F6
:1049B000F96FD7F8802041E80023BB67BB6F002B5D
:1049C000E1D17B681B6814333B663B6E53E8003FC4
:1049D000FB65FB6D23F04003C7F8B0307B681B68B4
:1049E0001433D7F8B020FA66BB66B96EFA6E41E8A8
:1049F00000237B667B6E002BE3D17B68202283F84B
:104A00003E207B6800221A637B681B680C33FB64C2
:104A1000FB6C53E8003FBB64BB6C23F01003C7F88A
:104A2000AC307B681B680C33D7F8AC20BA657B656B
:104A3000796DBA6D41E800233B653B6D002BE3D1F6
:104A40007B689B6B1846FDF7DFFE7B689A8D7B6861
:104A5000DB8D9BB2D31A9BB21946786800F0B6F88A
:104A600099E000BF7F5100087B689A8D7B68DB8DE1
:104A70009BB2D31AA7F8CE307B68DB8D9BB2002B9C
:104A800000F08B80B7F8CE30002B00F086807B687A
:104A90001B680C33BB63BB6B53E8003F7B637B6BD2
:104AA00023F49073C7F8C8307B681B680C33D7F8C1
:104AB000C8207A643B64396C7A6C41E80023FB635C
:104AC000FB6B002BE3D17B681B6814337B627B6A32
:104AD00053E8003F3B623B6A23F00103C7F8C43050
:104AE0007B681B681433D7F8C4203A63FB62F96A09
:104AF0003A6B41E80023BB62BB6A002BE3D17B68C1
:104B0000202283F83E207B6800221A637B681B68A2
:104B10000C333B613B6953E8003FFB60FB6823F0CB
:104B20001003C7F8C0307B681B680C33D7F8C0206F
:104B3000FA61BB61B969FA6941E800237B617B696D
:104B4000002BE3D1B7F8CE301946786800F03EF874
:104B500023E0D7F8E43003F08003002B09D0D7F826
:104B6000E03003F08003002B03D0786800F01BFBDB
:104B700014E0D7F8E43003F04003002B0ED0D7F850
:104B8000E03003F04003002B08D0786800F05BFBB6
:104B900004E000BF02E000BF00E000BFE837BD4610
:104BA00080BD00BF80B483B000AF786000BF0C3719
:104BB000BD465DF8047B704780B483B000AF786079
:104BC00000BF0C37BD465DF8047B704780B483B0EE
:104BD00000AF78600B467B8000BF0C37BD465DF8A8
:104BE000047B704780B59CB000AF78607B689B6B9E
:104BF000FB667B681B681B6803F48073002B72D113
:104C0000FB6E0022DA85FB6E1B680C33FB64FB6CC9
:104C100053E8003FBB64BB6C23F48073BB66FB6E40
:104C20001B680C33BA6EBA657B65796DBA6D41E865
:104C300000233B653B6D002BE5D1FB6E1B681433F5
:104C4000BB63BB6B53E8003F7B637B6B23F00103CB
:104C50007B66FB6E1B6814337A6E7A643B64396C36
:104C60007A6C41E80023FB63FB6B002BE5D1FB6E04
:104C70001B6814337B627B6A53E8003F3B623B6AEC
:104C800023F040033B66FB6E1B6814333A6E3A63B5
:104C9000FB62F96A3A6B41E80023BB62BB6A002BF6
:104CA000E5D1FB6E202283F83E20FB6E1B6B012BAF
:104CB00019D1FB6E1B680C333B613B6953E8003F25
:104CC000FB60FB6823F01003FB65FB6E1B680C3375
:104CD000FA6DFA61BB61B969FA6941E800237B6149
:104CE0007B69002BE5D1FB6E1B6B012B06D1FB6EA4
:104CF0009B8D1946F86EFFF769FF02E0F86EFCF72E
:104D00009DFB00BF7037BD4680BD80B584B000AF4D
:104D100078607B689B6BFB60FB681B6B012B08D189
:104D2000FB689B8D5B089BB21946F868FFF74EFF46
:104D300002E0F868FFF740FF00BF1037BD4680BDB6
:104D400080B584B000AF78600023FB607B689B6B0C
:104D5000BB60BB681B685B6903F08003802B0CBFE2
:104D600001230023DBB2FB60BB6893F83D30DBB26C
:104D7000212B08D1FB68002B05D0BB680022DA8408
:104D8000B86800F071F9BB681B685B6903F0400309
:104D9000402B0CBF01230023DBB2FB60BB6893F800
:104DA0003E30DBB2222B08D1FB68002B05D0BB685C
:104DB0000022DA85B86800F07FF9BB681B6C43F00D
:104DC0001002BB681A64B868FCF798FC00BF103783
:104DD000BD4680BD80B590B000AFF860B9603B6063
:104DE0001346FB7150E0BB6CB3F1FF3F4CD0BB6C82
:104DF000002B07D0FDF7E4FA02463B68D31ABA6CE1
:104E00009A4241D2FB681B680C33BB62BB6A53E811
:104E1000003F7B627B6A23F4D073FB63FB681B68F3
:104E20000C33FA6B7A633B63396B7A6B41E800238E
:104E3000FB62FB6A002BE5D1FB681B6814337B61C6
:104E40007B6953E8003F3B613B6923F00103BB638F
:104E5000FB681B681433BA6B3A62FB61F9693A6A02
:104E600041E80023BB61BB69002BE5D1FB68202230
:104E700083F83D20FB68202283F83E20FB68002257
:104E800083F83C2003230FE0FB681B681A68BB68AB
:104E90001340BA689A420CBF01230023DBB21A46C2
:104EA000FB799A429FD0002318464037BD4680BD0B
:104EB00080B485B000AFF860B9601346FB80FB6832
:104EC000BA689A62FB68FA889A85FB68FA88DA857C
:104ED000FB6800221A64FB68222283F83E20FB68EC
:104EE000002283F83C20FB681B69002B07D0FB687D
:104EF0001B68DA68FB681B6842F48072DA60FB6842
:104F00001B685A69FB681B6842F001025A61FB6822
:104F10001B68DA68FB681B6842F02002DA60002335
:104F200018461437BD465DF8047B704780B598B0CD
:104F300000AFF860B9601346FB80BA68FB689A62FC
:104F4000FB68FA889A85FB6800221A64FB682222B3
:104F500083F83E20FB689B6B404ADA63FB689B6BDF
:104F60003F4A1A64FB689B6B3E4ADA64FB689B6BA2
:104F700000221A6507F10803FB65FB68986BFB6864
:104F80001B6804331946FB6D1A68FB88FDF7E4FBC8
:104F900000233B61FB681B681B683B61FB681B6867
:104FA0005B683B613B69FB68002283F83C20FB683F
:104FB0001B69002B19D0FB681B680C333B643B6CEE
:104FC00053E8003FFB63FB6B43F48073BB65FB68F6
:104FD0001B680C33BA6DFA64BB64B96CFA6C41E8B7
:104FE00000237B647B6C002BE5D1FB681B681433CA
:104FF000FB62FB6A53E8003FBB62BB6A43F00103FC
:105000007B65FB681B6814337A6DBA637B63796BCD
:10501000BA6B41E800233B633B6B002BE5D1FB6897
:105020001B681433BB61BB6953E8003F7B617B693C
:1050300043F040033B65FB681B6814333A6D7A62AA
:105040003B62396A7A6A41E80023FB61FB69002B05
:10505000E5D1002318466037BD4680BDE54B00080A
:105060000B4D0008414D000880B489B000AF786056
:105070007B681B680C33FB60FB6853E8003FBB6038
:10508000BB6823F0C003FB617B681B680C33FA69C3
:10509000BA617B617969BA6941E800233B613B6988
:1050A000002BE5D17B68202283F83D2000BF243708
:1050B000BD465DF8047B704780B495B000AF786062
:1050C0007B681B680C337B637B6B53E8003F3B635F
:1050D0003B6B23F49073FB647B681B680C33FA6CA6
:1050E0003A64FB63F96B3A6C41E80023BB63BB6B2A
:1050F000002BE5D17B681B6814333B623B6A53E8A5
:10510000003FFB61FB6923F00103BB647B681B6804
:105110001433BA6CFA62BB62B96AFA6A41E80023D6
:105120007B627B6A002BE5D17B681B6B012B19D15D
:105130007B681B680C33FB60FB6853E8003FBB6077
:10514000BB6823F010037B647B681B680C337A6CAC
:10515000BA617B617969BA6941E800233B613B69C7
:10516000002BE5D17B68202283F83E207B6800225B
:105170001A6300BF5437BD465DF8047B704780B5A5
:1051800084B000AF78607B689B6BFB60FB6800229B
:10519000DA85FB680022DA84F868FCF7AFFA00BF12
:1051A0001037BD4680BD80B485B000AF78607B68A5
:1051B00093F83D30DBB2212B3ED17B689B68B3F581
:1051C000805F14D17B681B69002B10D17B681B6A40
:1051D000FB60FB681B881A467B681B68C2F30802E9
:1051E0005A607B681B6A9A1C7B681A6208E07B68BD
:1051F0001B6A591C7A6811621A787B681B685A60AE
:105200007B68DB8C9BB2013B9BB27A681946D184E8
:10521000002B0FD17B681B68DA687B681B6822F063
:105220008002DA607B681B68DA687B681B6842F082
:105230004002DA60002300E0022318461437BD461E
:105240005DF8047B704780B582B000AF78607B6802
:105250001B68DA687B681B6822F04002DA607B68B2
:10526000202283F83D207868FFF79CFC0023184635
:105270000837BD4680BD80B58CB000AF78607B68D4
:1052800093F83E30DBB2222B40F0AB807B689B680A
:10529000B3F5805F17D17B681B69002B13D1002306
:1052A000FB627B689B6ABB627B681B685B689BB226
:1052B000C3F308039AB2BB6A1A807B689B6A9A1C84
:1052C0007B689A6226E07B689B6AFB620023BB6274
:1052D0007B689B68B3F5805F07D07B689B68002B79
:1052E0000AD17B681B69002B06D17B681B685B6851
:1052F000DAB2FB6A1A7008E07B681B685B68DBB295
:1053000003F07F03DAB2FB6A1A707B689B6A5A1C4F
:105310007B689A627B68DB8D9BB2013B9BB27A68AB
:105320001946D185002B5AD17B681B68DA687B68E7
:105330001B6822F02002DA607B681B68DA687B68F1
:105340001B6822F48072DA607B681B685A697B688C
:105350001B6822F001025A617B68202283F83E20FC
:105360007B681B6B012B35D17B6800221A637B683D
:105370001B680C337B617B6953E8003F3B613B69F1
:1053800023F010037B627B681B680C337A6A3A62F5
:10539000FB61F9693A6A41E80023BB61BB69002BF4
:1053A000E5D17B681B681B6803F01003102B0AD142
:1053B0000023FB607B681B681B68FB607B681B68C5
:1053C0005B68FB60FB687B689B8D19467868FFF71C
:1053D000FDFB02E07868FCF731F8002302E00023CF
:1053E00000E0022318463037BD4680BD2DE9B04F9E
:1053F000C0B000AFC7F8F400D7F8F4301B681B69E1
:1054000023F44050D7F8F430D968D7F8F4301A684C
:1054100040EA01031361D7F8F4309A68D7F8F43002
:105420001B691A43D7F8F4305B691A43D7F8F43094
:10543000DB691343C7F8F830D7F8F4301B68DB6832
:1054400023F4164121F00C01D7F8F4301A68D7F88C
:10545000F8300B43D360D7F8F4301B685B6923F452
:105460004070D7F8F4309969D7F8F4301A6840EAF8
:1054700001035361D7F8F4301A688F4B9A4205D074
:10548000D7F8F4301A688D4B9A4204D1FEF7C0FA6F
:10549000C7F8FC0003E0FEF7A7FAC7F8FC00D7F84E
:1054A000F430DB69B3F5004F40F00C81D7F8FC30E5
:1054B0000022C7F8E830C7F8EC20D7E93A45224681
:1054C0002B469118B9655B41FB65D7E91623214648
:1054D00012EB0108294643EB01094FF000024FF09F
:1054E00000034FEAC90343EA58734FEAC8029046E3
:1054F0009946234618EB0303C7F8E0302B4649EBE7
:105500000303C7F8E430D7F8F4305B680022C7F82B
:10551000D830C7F8DC20D7E936120B46DB183B65DC
:10552000134642EB03037B65D7E91423D7E938011F
:10553000FBF742FB02460B46614BA3FB02235B09D0
:105540001C01D7F8FC300022C7F8D030C7F8D420AF
:10555000D7E9348942464B469118B9645B41FB64F4
:10556000D7E91223414612EB010A494643EB010BEE
:105570004FF000024FF000034FEACB0343EA5A73A7
:105580004FEACA0292469B4643461AEB0303C7F80A
:10559000C8304B464BEB0303C7F8CC30D7F8F43098
:1055A0005B680022C7F8C030C7F8C420D7E93012C2
:1055B0000B46DB183B64134642EB03037B64D7E9DD
:1055C0001023D7E93201FBF7F7FA02460B461146E2
:1055D0003B4BA3FB01235B09642202FB03F3CB1AC1
:1055E000DB0003F13202364BA3FB02235B095B00B5
:1055F00003F4F8731C44D7F8FC300022C7F8B83025
:10560000C7F8BC20D7E92E8942464B469118B963AA
:105610005B41FB63D7E90E23414651183963494684
:105620004B417B634FF000024FF00003D7E90CAB16
:105630005946CB00514643EA51735146CA001046C1
:105640001946034642469B18C7F8B0304B460A46F7
:1056500042EB0303C7F8B430D7F8F4305B6800229C
:10566000C7F8A830C7F8AC20D7E92A120B46DB18D8
:10567000BB62134642EB0303FB62D7E90A23D7E977
:105680002C01FBF799FA02460B460D4BA3FB0213C4
:105690005B09642101FB03F3D31ADB003233084AB0
:1056A000A2FB03235B0903F00702D7F8F4301B6861
:1056B00022449A6006E100BF00100140001401403E
:1056C0001F85EB51D7F8FC300022C7F8A030C7F88F
:1056D000A420D7E9288942464B46911839625B419C
:1056E0007B62D7E9082341465418494643EB01053C
:1056F0004FF000024FF00003EB0043EA5473E20066
:1057000014461D464346E318C7F898304B4645EB10
:105710000303C7F89C30D7F8F4305B680022C7F861
:105720009030C7F894204FF000024FF00003D7E903
:10573000244529468B00214643EA917321468A007D
:10574000D7E92601FBF738FA02460B46604BA3FB6C
:1057500002235B091C01D7F8FC300022C7F888300F
:10576000C7F88C20D7E9228942464B469118B96187
:105770005B41FB61D7E9062341465118396149462F
:105780004B417B614FF000024FF00003D7E904ABBF
:105790005946CB00514643EA51735146CA00104660
:1057A0001946034642469B18C7F880304B460A46C6
:1057B00042EB0303C7F88430D7F8F4305B6800226B
:1057C000BB67FA674FF000024FF00003D7E91E896C
:1057D00049468B00414643EA917341468A00D7E926
:1057E0002001FBF7E9F902460B461146384BA3FBB3
:1057F00001235B09642202FB03F3CB1A1B01323342
:10580000334AA2FB03235B0903F0F0031C44D7F8DF
:10581000FC3000223B677A67D7E91C8942464B4639
:105820009118B9605B41FB60D7E9022341465118EA
:10583000396049464B417B604FF000024FF0000356
:10584000D7E900AB5946CB00514643EA5173514664
:10585000CA0010461946034642469B18BB664B4693
:105860000A4642EB0303FB66D7F8F4305B6800227C
:105870003B667A664FF000024FF00003D7E91889C3
:1058800049468B00414643EA917341468A00D7E975
:105890001A01FBF791F902460B460D4BA3FB0213CD
:1058A0005B09642101FB03F3D31A1B013233084A5D
:1058B000A2FB03235B0903F00F02D7F8F4301B6847
:1058C00022449A6000BF07F58077BD46BDE8B08FDF
:1058D0001F85EB512DE9FF4757EC106B002F0C464D
:1058E00019463B46BBBF07F100431F4600232D234B
:1058F0000B700D9BDDF830A0914623F02008BCBF53
:1059000032461646B8F1460F05D0B8F1450F00D122
:105910000134022100E0032103AB019302AB0093A9
:1059200047EC106B5346224600F03EFFB8F1470F9C
:10593000054619D119F0010F0ED000EB0409002221
:10594000002330463946FBF7C7F808B1CDF80C9074
:105950003022039B4B451ED3039B0E9A5B1B2846AC
:10596000136004B0BDE8F087B8F1460F00EB0409FE
:10597000E5D10378302B0AD1002200233046394686
:10598000FBF7AAF818B9C4F10104CAF80040DAF824
:1059900000309944D3E7591C03911A70D9E7F7B541
:1059A0000029BABF49422D232B23092902704370D5
:1059B00029DD0DF107031D460A271A46B1FBF7F64C
:1059C00007FB1614303402F8014C0C46632C03F12B
:1059D000FF333146F1DC3031941E03F8011C411CC9
:1059E0002346AB420AD30DF109039B1AAC4288BF90
:1059F000002302330344181A03B0F0BD13F8016BFF
:105A000001F8016FEDE7302330318370C170031D61
:105A1000F1E700002DE9F04F8DB00C46DDF858801D
:105A200016461F46054600F0BDFD03680493184660
:105A3000FAF726FC00230A93D8F8003005900733C4
:105A400023F0070303F1080294F818A0D4F800B07B
:105A5000C8F80020D3E9008929F000430793CDF866
:105A60001880C4E91289DDE906019C4B4FF0FF3232
:105A7000FBF764F870BBDDE90601984B4FF0FF328D
:105A8000FBF73EF830BB0022002340464946FBF7B7
:105A90002DF810B12D2384F84330914A914BBAF17F
:105AA000470F8CBF90469846032323612BF00403D5
:105AB00023604FF00009009733460BAA2146284681
:105AC00000F0D2F9013040F08D804FF0FF300DB082
:105AD000BDE8F08F42464B4640464946FBF72EF85C
